:020000040800F2
:100000000008002089010008E5010008E50100085A
:10001000E5010008E5010008E50100080000000016
:10002000000000000000000000000000E5010008E2
:10003000E501000800000000E5010008E5010008F6
:10004000E5010008E5010008E5010008E5010008F8
:10005000E5010008E5010008E5010008E5010008E8
:10006000E5010008E5010008E5010008E5010008D8
:10007000E5010008E5010008E5010008E5010008C8
:10008000E5010008E5010008E5010008E5010008B8
:10009000E5010008E5010008E5010008E5010008A8
:1000A000E5010008E5010008E5010008E501000898
:1000B000E5010008E501000849020008E501000823
:1000C000E5010008E5010008E5010008E501000878
:1000D000E5010008E5010008E5010008E501000868
:1000E000E5010008E5010008E5010008E501000858
:1000F000E5010008E5010008E5010008E501000848
:10010000E5010008E5010008E5010008E501000837
:10011000E5010008E5010008E5010008E501000827
:10012000E5010008E5010008E5010008E501000817
:10013000E5010008E5010008E5010008E501000807
:10014000E5010008E5010008E5010008E5010008F7
:10015000E5010008E5010008E5010008E5010008E7
:10016000E5010008E5010008E5010008E5010008D7
:10017000E5010008E5010008E5010008E5010008C7
:10018000E5010008E501000880B582B000AF104B22
:100190007B60104B3B6007E03B681A1D3A607A6851
:1001A000111D796012681A603B680B4A9342F3D3C1
:1001B0000A480B494FF000028842B8BF40F8042BB0
:1001C000FADB00F0ADF800BF0837BD4680BD00BFC8
:1001D0002C0B000800000020000000200000002080
:1001E0000000002080B400AFFEE700BF80B500AF84
:1001F0000121022000F0C4F80121082000F0C0F81D
:100200000121042000F0DAF800BF80BD80B586B07F
:1002100000AF786039607B683B613B689BB2BB8113
:100220000023BB821023FB8107F10C03194605480C
:1002300000F07CFA0121034800F0E2FA00BF183711
:10024000BD4680BD0008004080B500AF01210648D2
:1002500000F032FC0346002B03D00121024800F0DD
:1002600055FC00BF80BD00BF0008004080B588B0CD
:1002700000AF4FF44053BB610023BB7703237B7770
:100280000023FB7702220C21164800F05FF90222BE
:100290000D21144800F05AF902233B7707F11803A7
:1002A0001946104800F0A8F86023BB800123FB80AA
:1002B0000023FB6000233B823B1D19460A4800F0E7
:1002C000BFFA0821084800F0BDFB3B1D194606484F
:1002D00000F030FB0821044800F0D0FB00BF2037BD
:1002E000BD4680BD000C02400008004080B582B0D1
:1002F00000AF43F630033B6001233B710023BB7129
:1003000003237B710023FB713B461946034800F031
:1003100073F800BF0837BD4680BD00BF000402402F
:1003200080B500AF00F05AF9FFF760FFFFF7DEFF7E
:1003300022212720FFF76AFFFFF798FF4FF40051B3
:100340000D4800F0E7F84FF480510B4800F0E2F858
:100350004FF40061084800F0EBF8084B13225A6391
:100360002021054800F0D6F81021034800F0E0F8FD
:10037000024B13229A63E1E70004024000080040A8
:1003800080B483B000AF78600B46FB70FB78002B25
:1003900006D00949084B1A6B7B6813430B6306E0D0
:1003A0000549054B1A6B7B68DB4313400B6300BFA9
:1003B0000C37BD4680BC70470038024080B483B023
:1003C00000AF78600B46FB70FB78002B06D0094924
:1003D000084B1A6C7B6813430B6406E00549054B18
:1003E0001A6C7B68DB4313400B6400BF0C37BD46BF
:1003F00080BC70470038024080B487B000AF78609E
:10040000396000237B6100233B610023FB600023F4
:100410007B6176E001227B6902FA03F33B613B6872
:100420001A683B691340FB60FA683B699A4265D1E0
:100430007B681A687B695B00032101FA03F3DB43E5
:100440001A407B681A607B681A683B681B791946FA
:100450007B695B0001FA03F31A437B681A603B680F
:100460001B79012B03D03B681B79022B2ED17B68B3
:100470009A687B695B00032101FA03F3DB431A40AE
:100480007B689A607B689A683B685B7919467B69F0
:100490005B0001FA03F31A437B689A607B685A6831
:1004A0007B699BB2194601238B40DB431A407B6872
:1004B0005A607B685B683A68927911467A6992B2B1
:1004C00001FA02F292B21A437B685A607B68DA68DA
:1004D0007B699BB25B00032101FA03F3DB431A4003
:1004E0007B68DA607B68DA683B68DB7919467B6990
:1004F0005B0001FA03F31A437B68DA607B6901331E
:100500007B617B690F2B85D900BF1C37BD4680BC42
:10051000704700BF80B483B000AF78600B467B802B
:100520007B687A881A8300BF0C37BD4680BC704751
:1005300080B483B000AF78600B467B807B687A889C
:100540005A8300BF0C37BD4680BC704780B485B06D
:1005500000AF78600B467B8013467B700023FB6006
:100560000023BB607A787B8803F007039B0002FAC4
:1005700003F3FB607B88DB089BB218467B88DB08B3
:100580009BB21A467B68083253F822207B8803F01E
:1005900007039B000F2101FA03F3DB4302EA030187
:1005A0007B6800F1080243F822107B88DB089BB2CD
:1005B0001A467B68083253F82220FB681343BB605D
:1005C0007B88DB089BB21A467B680832B96843F81F
:1005D000221000BF1437BD4680BC704780B500AF05
:1005E000124A124B1B6843F0010313600F4B0022A9
:1005F0009A600E4A0D4B1B6823F0847323F48033FA
:1006000013600A4B0A4A5A60084A084B1B6823F4D5
:1006100080231360054B0022DA6000F00DF8054BD3
:100620004FF000629A6000BF80BD00BF00380240FA
:100630001030002400ED00E080B483B000AF002350
:100640007B6000233B60354A344B1B6843F48033A6
:100650001360324B1B6803F400333B607B6801334B
:100660007B603B68002B03D17B68B3F5A06FF0D1B2
:100670002A4B1B6803F40033002B02D001233B609C
:1006800001E000233B603B68012B42D1234A234B0E
:100690001B6C43F080531364214A214B1B6843F4C5
:1006A000804313601D4A1D4B9B6893601B4A1B4B84
:1006B0009B6843F400439360184A184B9B6843F4CB
:1006C000A0539360154B174A5A60144A134B1B688A
:1006D00043F08073136000BF104B1B6803F000737E
:1006E000002BF9D0104B40F205621A600B4A0B4BFD
:1006F0009B6823F003039360084A084B9B6843F010
:100700000203936000BF054B9B6803F00C03082BAA
:10071000F9D100BF0C37BD4680BC7047003802409D
:100720000070004008544007003C024080B485B08F
:1007300000AF786039600023FB817B681B88FB81F8
:100740007B68284A934213D07B68274A93420FD094
:100750007B68B3F1804F0BD07B68244A934207D06B
:100760007B68234A934203D07B68224A934208D194
:10077000FB8923F07003FB813B685A88FB89134394
:10078000FB817B681C4A93420CD07B681B4A9342D6
:1007900008D0FB8923F44073FB813B681A89FB89ED
:1007A0001343FB817B68FA891A803B685A687B682F
:1007B000DA623B681A887B681A857B68094A93422B
:1007C00003D07B68084A934204D13B689B7A9AB273
:1007D0007B681A867B6801229A8200BF1437BD4667
:1007E00080BC70470000014000040140000400404C
:1007F00000080040000C00400010004000140040C1
:1008000080B483B000AF78600B46FB70FB78002BA0
:1008100008D07B681B889BB243F001039AB27B68C7
:100820001A8007E07B681B889BB223F001039AB211
:100830007B681A8000BF0C37BD4680BC704700BF84
:1008400080B485B000AF7860396000237B810023DD
:10085000FB810023BB817B681B8C9BB223F00103CF
:100860009AB27B681A847B681B8CFB817B689B88AF
:10087000BB817B681B8B7B817B8923F070037B8131
:100880007B8923F003037B813B681A887B891343B0
:100890007B81FB8923F00203FB813B689A89FB89FA
:1008A0001343FB813B685A88FB891343FB817B68B8
:1008B0001E4A934203D07B681D4A934223D1FB8991
:1008C00023F00803FB813B68DA89FB891343FB8132
:1008D000FB8923F00403FB813B689A88FB8913435F
:1008E000FB81BB8923F48073BB81BB8923F4007334
:1008F000BB813B681A8ABB891343BB813B685A8A18
:10090000BB891343BB817B68BA899A807B687A89EB
:100910001A833B689A687B685A637B68FA891A84F1
:1009200000BF1437BD4680BC704700BF00000140C7
:100930000004014080B485B000AF786039600023C6
:100940007B810023FB810023BB817B681B8C9BB2D6
:1009500023F010039AB27B681A847B681B8CFB819E
:100960007B689B88BB817B681B8B7B817B8923F4A5
:10097000E0437B817B8923F440737B813B681B8848
:100980001B029AB27B8913437B81FB8923F02003EE
:10099000FB813B689B891B019AB2FB891343FB8156
:1009A0003B685B881B019AB2FB891343FB817B6820
:1009B000224A934203D07B68214A93422BD1FB8980
:1009C00023F08003FB813B68DB891B019AB2FB8922
:1009D0001343FB81FB8923F04003FB813B689B8829
:1009E0001B019AB2FB891343FB81BB8923F480630B
:1009F000BB81BB8923F40063BB813B681B8A9B00DE
:100A00009AB2BB891343BB813B685B8A9B009AB255
:100A1000BB891343BB817B68BA899A807B687A89DA
:100A20001A833B689A687B689A637B68FA891A84A0
:100A300000BF1437BD4680BC704700BF00000140B6
:100A40000004014080B485B000AF78600B467B8025
:100A50000023FB817B681B8BFB81FB8923F0080350
:100A6000FB81FA897B881343FB817B68FA891A83AF
:100A700000BF1437BD4680BC704700BF80B485B04E
:100A800000AF78600B467B800023FB817B681B8B6B
:100A9000FB81FB8923F40063FB817B881B029AB2F4
:100AA000FB891343FB817B68FA891A8300BF1437E3
:100AB000BD4680BC704700BF80B485B000AF786091
:100AC0000B467B800023FB730023BB8100237B81CB
:100AD0007B681B8A9AB27B881340BB817B689B89A9
:100AE0009AB27B8813407B81BB89002B05D07B8920
:100AF000002B02D00123FB7301E00023FB73FB7B7F
:100B000018461437BD4680BC704700BF80B483B020
:100B100000AF78600B467B807B88DB439AB27B68B2
:0C0B20001A8200BF0C37BD4680BC704735
:0400000508000000EF
:00000001FF
