:020000040800F2
:10000000F855012069020008C5020008C502000871
:10001000C5020008C5020008C50200080000000073
:10002000000000000000000000000000C502000801
:10003000C502000800000000C5020008C502000853
:10004000C5020008C5020008C5020008C502000874
:10005000C5020008C5020008C5020008C502000864
:10006000C5020008C5020008C5020008C502000854
:10007000C5020008C5020008C5020008C502000844
:10008000C5020008C5020008C5020008C502000834
:10009000C5020008C5020008C5020008C502000824
:1000A000C5020008C5020008C5020008C502000814
:1000B000C502000871030008C5020008C502000857
:1000C000C5020008C5020008C5020008C5020008F4
:1000D000C5020008C5020008C5020008C5020008E4
:1000E000C5020008C5020008C5020008C5020008D4
:1000F000C5020008C5020008C5020008C5020008C4
:10010000C5020008C5020008C5020008C5020008B3
:10011000C5020008C5020008C5020008C5020008A3
:10012000C5020008C5020008C5020008C502000893
:10013000C5020008C5020008C5020008C502000883
:10014000C5020008C5020008C5020008C502000873
:10015000C5020008C5020008C5020008C502000863
:10016000C5020008C5020008C5020008C502000853
:10017000C5020008C5020008C5020008C502000843
:10018000C5020008C502000880B485B000AF7860E1
:1001900039600023FB600023BB60134B1B68FB60CE
:1001A00040F6FE727B6802FA03F3DB43FA68134001
:1001B000FB603B681A683B685B681A433B689B6856
:1001C0001A433B68DB681343BB60BA687B6802FA7A
:1001D00003F3FA681343FB60034AFB68136000BF34
:1001E0001437BD4680BC70470074004080B483B0B3
:1001F00000AF78600B46FB70FB78002B09D00C49F0
:100200000B4B1A6801207B6800FA03F313430B6061
:1002100009E00749064B1A6801207B6800FA03F3DE
:10022000DB4313400B6000BF0C37BD4680BC7047FA
:100230000074004080B485B000AF78600B467B80CE
:100240000023FB60074BFB60FA687B6813440833AC
:10025000FB60FB681A467B88136000BF1437BD46FD
:1002600080BC70470074004080B582B000AF104B76
:100270007B60104B3B6007E03B681A1D3A607A6870
:10028000111D796012681A603B680B4A9342F3D3E0
:100290000A480B494FF000028842B8BF40F8042BCF
:1002A000FADB00F0C1F800BF0837BD4680BD00BFD3
:1002B000E009000800000020F44D0120F44D012069
:1002C000F84D012080B400AFFEE700BF80B500AF5D
:1002D0000121012000F0B8F80121022000F0D2F83D
:1002E00001214FF0005000F0CDF800BF80BD00BFED
:1002F00080B586B000AF786039607B683B613B6851
:100300009BB2BB810023BB821023FB8107F10C034E
:100310001946054800F07CFA0121034800F0E2FA92
:1003200000BF1837BD4680BD0004004080B582B0D4
:1003300000AF4FF4C06000F0F9F91D233B710023BA
:100340007B710023BB710123FB713B1D184600F03C
:10035000FFF90121054800F033FB01220121034888
:1003600000F0E0FA00BF0837BD4680BD0004004041
:1003700080B500AF0121144800F0F8FA0346002BC5
:100380001FD0124B1B68124AD3569BB29B009BB2E4
:1003900019460020FFF74EFF0C4B1B680D4A934295
:1003A00006D10A4B00221A600021074800F09AFA91
:1003B000064B1B680133054A13600121024800F017
:1003C000FFFA00BF80BD00BF00040040F44D0120D3
:1003D00000000020F24D010080B586B000AF102370
:1003E0003B6103233B7503237B750023FB7507F1FA
:1003F000100319460B4800F063F800233B6000230C
:100400007B600023BB600023FB603B461946002055
:10041000FFF7BAFE01210020FFF7E8FE00BF183702
:10042000BD4680BD0000024080B500AF00F0D6F8A8
:10043000FFF74CFF0F213C20FFF75AFFFFF776FF35
:10044000FFF7CAFFFEE700BF80B483B000AF78605B
:100450000B46FB70FB78002B06D00949084B1A6B42
:100460007B6813430B6306E00549054B1A6B7B68F9
:10047000DB4313400B6300BF0C37BD4680BC7047A5
:100480000038024080B483B000AF78600B46FB7048
:10049000FB78002B06D00949084B1A6C7B68134384
:1004A0000B6406E00549054B1A6C7B68DB4313407F
:1004B0000B6400BF0C37BD4680BC7047003802405B
:1004C00080B487B000AF7860396000237B6100237F
:1004D0003B610023FB6000237B6176E001227B69A6
:1004E00002FA03F33B613B681A683B691340FB6007
:1004F000FA683B699A4265D17B681A687B695B0040
:10050000032101FA03F3DB431A407B681A607B681E
:100510001A683B681B7919467B695B0001FA03F393
:100520001A437B681A603B681B79012B03D03B6838
:100530001B79022B2ED17B689A687B695B000321B3
:1005400001FA03F3DB431A407B689A607B689A6880
:100550003B685B7919467B695B0001FA03F31A4338
:100560007B689A607B685A687B699BB21946012355
:100570008B40DB431A407B685A607B685B683A6853
:10058000927911467A6992B201FA02F292B21A4352
:100590007B685A607B68DA687B699BB25B000321E9
:1005A00001FA03F3DB431A407B68DA607B68DA68A0
:1005B0003B68DB7919467B695B0001FA03F31A4358
:1005C0007B68DA607B6901337B617B690F2B85D99E
:1005D00000BF1C37BD4680BC704700BF80B500AF70
:1005E000124A124B1B6843F0010313600F4B0022A9
:1005F0009A600E4A0D4B1B6823F0847323F48033FA
:1006000013600A4B0A4A5A60084A084B1B6823F4D5
:1006100080231360054B0022DA6000F00DF8054BD3
:100620004FF000629A6000BF80BD00BF00380240FA
:100630001030002400ED00E080B483B000AF002350
:100640007B6000233B60354A344B1B6843F48033A6
:100650001360324B1B6803F400333B607B6801334B
:100660007B603B68002B03D17B68B3F5A06FF0D1B2
:100670002A4B1B6803F40033002B02D001233B609C
:1006800001E000233B603B68012B42D1234A234B0E
:100690001B6C43F080531364214A214B1B6843F4C5
:1006A000804313601D4A1D4B9B6893601B4A1B4B84
:1006B0009B6843F400439360184A184B9B6843F4CB
:1006C000A0539360154B174A5A60144A134B1B688A
:1006D00043F08073136000BF104B1B6803F000737E
:1006E000002BF9D0104B40F205621A600B4A0B4BFD
:1006F0009B6823F003039360084A084B9B6843F010
:100700000203936000BF054B9B6803F00C03082BAA
:10071000F9D100BF0C37BD4680BC7047003802409D
:100720000070004019544007003C024080B483B080
:1007300000AF7860054A7B6843F0BF6343F4003341
:10074000D36000BF0C37BD4680BC704700ED00E0B1
:1007500080B485B000AF78600023FB730023BB73C7
:100760000F237B737B68DB78002B38D0264BDB684C
:10077000DB4303F4E0631B0AFB73FB7BC3F104035D
:10078000BB737A7BFB7B42FA03F37B737B685B78FA
:100790001A46BB7B02FA03F3FB737B689A787B7B78
:1007A0001340DAB2FB7B1343FB73FB7B1B01FB7330
:1007B000164A7B681B781344FA7B83F80023134A9C
:1007C0007B681B785B09DBB218467B681B7803F0FB
:1007D0001F03012101FA03F342F820300FE00B4917
:1007E0007B681B785B09DBB218467B681B7803F0DB
:1007F0001F0301229A4000F1200341F8232000BF8B
:100800001437BD4680BC704700ED00E000E100E019
:1008100080B485B000AF786039600023FB817B68CD
:100820001B88FB817B68284A934213D07B68274A48
:1008300093420FD07B68B3F1804F0BD07B68244A82
:10084000934207D07B68234A934203D07B68224AB5
:10085000934208D1FB8923F07003FB813B685A88DF
:10086000FB891343FB817B681C4A93420CD07B6855
:100870001B4A934208D0FB8923F44073FB813B68F9
:100880001A89FB891343FB817B68FA891A803B68CC
:100890005A687B68DA623B681A887B681A857B68CD
:1008A000094A934203D07B68084A934204D13B68CB
:1008B0009B7A9AB27B681A867B6801229A8200BF73
:1008C0001437BD4680BC7047000001400004014061
:1008D0000004004000080040000C004000100040F0
:1008E0000014004080B483B000AF78600B46FB700A
:1008F000FB78002B08D07B681B889BB243F0010378
:100900009AB27B681A8007E07B681B889BB223F051
:1009100001039AB27B681A8000BF0C37BD4680BCC9
:10092000704700BF80B483B000AF78600B467B8017
:1009300013467B707B78002B08D07B689B899AB22A
:100940007B8813439AB27B689A8109E07B689B8914
:100950009AB27B88DB439BB213409AB27B689A8140
:1009600000BF0C37BD4680BC704700BF80B485B067
:1009700000AF78600B467B800023FB730023BB81B4
:1009800000237B817B681B8A9AB27B881340BB81E2
:100990007B689B899AB27B8813407B81BB89002B43
:1009A00005D07B89002B02D00123FB7301E00023DB
:1009B000FB73FB7B18461437BD4680BC704700BFF5
:1009C00080B483B000AF78600B467B807B88DB43CC
:1009D0009AB27B681A8200BF0C37BD4680BC704754
:1009E00052494646EA4D010057415645666D74200E
:1009F0001000000001000200803E0000007D0000A9
:100A00000200080064617461024D010080808080F2
:100A1000807F8080807F8080807F80807F80807FDB
:100A20007F80807F7F80807F808080808080807FCB
:100A30007F80807F80807F80807F7F80807F7F80BD
:100A400080807F7F8080807F8080807F7F80807FAC
:100A50007F8080807F7F80807F7F807F7F80807F9E
:100A60007F7F7F80807F7F80807F7F80807F7F808F
:100A7000807F7F7F808080807F7F80807F7F7F807E
:100A800080807F7F80807F80807F8080807F80806B
:100A90007F7F80807F7F80807F7F80807F7F7F805F
:100AA00080807F7F8080807F7F80807F80807F7F4D
:100AB0008080807F7F7F8080807F7F80807F7F803D
:100AC0008080807F7F8080807F7F80807F7F80802C
:100AD0008080807F7F80807F7F80807F7F80807F1D
:100AE0007F80807F7F8080807F7F808080807F7F0D
:100AF00080807F80807F7F80807F7F7F80807F7FFE
:100B0000808080807F7F80807F8080807F808080E9
:100B10007F7F80807F7F80807F7F80807F7F8080DD
:100B20008080807F8080807F7F808080807F7F80CA
:100B3000807F7F80807F7F80807F7F80807F7F80BD
:100B4000807F80807F7F808080807F7F80807F7FAC
:100B500080807F7F80807F7F807F7F80807F7F809D
:100B6000807F7F80807F80807F7F80807F80807F8C
:100B70007F80807F7F8080807F80807F80807F7F7C
:100B800080807F7F80807F7F80807F7F808080806B
:100B90007F7F80807F7F8080807F7F8080807F7F5D
:100BA0008080807F7F80807F7F80807F7F8080804B
:100BB0007F7F80807F7F80807F7F80807F8080803C
:100BC00080807F7F80807F7F80807F7F8080807F2C
:100BD0007F80807F7F80808080807F8080807F801A
:100BE000807F80807F7F808080807F80807F7F800B
:100BF000807F7F7F8080807F80807F7F80807F80FC
:100C0000807F8080807F7F80807F7F7F8080807FEB
:100C10007F80807F80807F80807F7F80807F7F80DB
:100C20007F7F80807F7F80807F80807F80807F7FCC
:100C300080807F80807F808080807F80807F7F80B9
:100C4000807F7F8080807F7F8080807F80807F7FAB
:100C500080807F80807F7F80807F7F80807F80809A
:100C60007F7F80807F7F8080807F7F80807F7F808C
:100C700080807F7F80807F7F8080807F7F8080807A
:100C80007F7F80807F7F7F80807F7F80807F7F806D
:100C9000807F7F80807F7F80807F7F80807F80805B
:100CA00080808080807F7F80807F7F8080807F7F4A
:100CB00080807F7F80807F7F8080807F7F80807F3B
:100CC00080807F7F80807F7F8080807F7F80807F2B
:100CD0007F80807F7F80807F7F80807F7F7F80801C
:100CE0007F7F80807F7F80807F7F80807F7F80800C
:100CF0007F7F8080807F8080807F80807F7F8080FA
:100D00007F7F80807F7F80807F7F80807F80807FEB
:100D10007F80807F80807F80807F7F8080807F7FDA
:100D20008080807F7F80807F7F8080807F7F8080C9
:100D30007F7F80807F7F80807F7F80808080807FBA
:100D40007F80807F80807F8080807F7F80807F7FAA
:100D5000808080807F7F80807F80807F7F80807F99
:100D600080807F7F80807F7F80807F7F7F80807F8B
:100D70007F80807F7F80807F8080807F80807F7F7A
:100D800080807F80807F7F80807F80807F7F808069
:100D90007F7F80807F80807F7F80807F7F8080805A
:100DA0007F807F8080807F808080807F7F80808048
:100DB0007F7F80807F7F80807F7F80807F7F80803B
:100DC0007F7F8080807F7F80807F7F8080807F7F2B
:100DD00080807F7F8080807F7F80807F7F80807F1A
:100DE0007F8080807F80807F7F80807F7F80808009
:100DF000807F7F80807F7F80807F80807F7F8080FA
:100E00007F808080807F80807F8080807F808080E6
:100E10007F7F80807F7F8080807F7F80807F8080D9
:100E2000807F7F80807F7F80807F7F80807F7F80CA
:100E300080807F80807F7F80807F7F7F80807F7FBA
:100E400080807F7F80807F8080807F7F80807F7FA9
:100E50008080807F7F808080807F7F80807F7F8098
:100E6000807F7F8080807F8080807F7F8080807F88
:100E700080807F80807F7F80807F7F80807F808078
:100E80007F7F80807F80807F80807F7F80807F7F6A
:100E900080807F80807F7F8080807F8080807F7F58
:100EA00080807F7F8080807F80807F7F807F808048
:100EB000807F7F8080807F8080807F808080808036
:100EC0007F7F80807F7F80807F8080807F7F807F2A
:100ED00080807F7F808080807F7F80807F80807F18
:100EE00080807F8080807F80807F7F7F807F808008
:100EF0007F80807F7F7F807F80807F8080807F80F9
:100F0000807F7F7F8080807F7F7F8080807F7F80E9
:100F1000807F7F8080807F8080807F7F80807F7FD8
:100F20008080807F7F7F807F7F7F807F7F80807FCA
:100F30007F7F807F807F7F80807F7F80807F7F80BA
:100F400080807F8080807F8080807F8080807F7FA6
:100F500080807F80808080808080807F8080808093
:100F600080808081808280837F8580867F87808764
:100F70007F8680857F8380807F7E807B7F78807581
:100F800080737F7180707F6F806F7F7080717F73DF
:100F900080767F79807C807F7F8280867F89808B4E
:100FA0007F8D808F7F9080907F9080907F8E808CCF
:100FB0007F8A80888086808380817F7F807D807C1F
:100FC000807B807A7F79807880788078807980795A
:100FD0007F7A807B7F7C807D807F808280867F8A15
:100FE000808E80918093809480938091808D808882
:100FF0007F82807B7F74806E7F6880627F5E805C92
:101000007F5A805A7F5C805F7F6480697F6F8076C3
:101010007F7D8084808A7F9080957F99809C7F9E51
:10102000809F7F9E809D809A7F9680927F8D808911
:101030007F84807F7F7C80787F7680747F738072EE
:101040007F7180727F7280737F75807680787F7BFE
:10105000807E80827F87808C7F917F9480977F972E
:1010600080967F948090808A7F84807D7F75806E5B
:1010700080687F62805E7F5B805A805A7F5C806080
:101080007F64806A7F708077807F7F86808C7F928C
:101090008097809B809E80A080A17FA0809E7F9B68
:1010A000809780937F8E80887F83807E7F7A807711
:1010B0007F7480737F72807180717F7280737F74A0
:1010C00080768078807A7F7D80807F8480897F8E23
:1010D00080927F9580967F9680958091808D808785
:1010E0007F8080797F71806B80647F5F805C8059B6
:1010F00080597F5A805C80607F65806B7F728079C9
:101100007F818088808E7F9480987F9C809F80A044
:101110007FA0809F7F9D809A80967F91808B7F8625
:1011200080817F7C80787F758073807180717F7112
:1011300080717F7380747F768078807A7F7C807FF7
:101140007F838087808B7F9080937F9680967F9629
:1011500080937F90808A7F84807D7F76806E806898
:101160007F62805D7F5A80597F59805B805E80629C
:101170007F68806E7F76807D7F84808B7F91809773
:10118000809B7F9E80A07FA180A17F9F809D7F9973
:1011900080947F8F808A7F84807F7F7A80767F7340
:1011A0008071807080708071807280747F768078AA
:1011B0007F7A807D7F7F808280867F8A808E7F920B
:1011C000809580967F96809580927F8D80877F81A5
:1011D00080797F72806B80657F5F805B7F598058EC
:1011E0007F597F5B805F7F64806A7F7180788080B9
:1011F0008087808D809380987F9C809F80A180A134
:1012000080A07F9E809B7F978092808D8087808248
:10121000807C7F7880747F717F70806F7F6F80713A
:101220007F7280747F778079807C807E80818084EB
:1012300080887F8C80907F9380967F978096809423
:1012400080907F8B80857F7E80767F6F80688062D4
:101250007F5D805A7F5880577F59805C80607F65B2
:10126000806C7F73807A80827F8980907F95809A5E
:101270007F9E80A07FA280A27FA0809E7F9A809682
:101280008091808B80858080807B80768073807069
:101290007F6F806F7F7080717F7380758078807BB7
:1012A000807D7F8080827F86808A7F8E80918094FF
:1012B0007F9680977F9680937F8F808980837F7CC5
:1012C00080747F6D80677F61805C7F598057805814
:1012D0007F59805D7F6180677F6E80757F7C8084B1
:1012E000808B7F9180977F9B809F7FA180A27FA230
:1012F00080A07F9D80997F95808F7F8A8084807E6B
:1013000080797F7580727F70806F7F6F80707F7251
:1013100080747F7680797F7B807E7F8180838087E9
:101320007F8A808E7F9280957F9680967F9580922F
:101330007F8D80887F81807A7F73806C7F658060FD
:10134000805B7F5980577F58805A805D7F628068BC
:101350007F6F8076807E8085808C80927F98809C55
:10136000809F80A180A280A180A0809D7F99809491
:10137000808E808980837F7D80787F758072807089
:101380007F6F806F7F7180727F7480777F79807CC0
:101390007F7E80817F838087808B7F8F80927F9507
:1013A00080967F96809580917F8D80877F808079E1
:1013B0007F71806A7F64805F7F5B80597F5880582F
:1013C0007F5B805F7F64806A7F7180787F7F8087AA
:1013D000808D80937F99809D7FA080A17FA280A136
:1013E0007F9F809C7F9780937F8D808880827F7D88
:1013F00080787F74807280708070807080717F735D
:1014000080757F7780797F7B807E7F8080837F87F8
:10141000808B808F7F9280957F9680967F9480913D
:101420007F8C80867F7F80787F71806A7F64805F19
:101430007F5B80597F588059805C7F6080657F6BBF
:1014400080727F7980807F88808E80947F99809D54
:1014500080A080A180A17FA0809E7F9B80977F92AB
:10146000808D7F8780817F7C80787F7580727F719F
:10147000807180717F7280737F75807680787F7ACB
:10148000807C807F80827F86808A7F8E80927F951D
:1014900080967F9680947F91808C7F86807F7F78F6
:1014A00080717F6A80647F5F805B80597F59805A3A
:1014B000805C7F6080657F6B80727F7A80818088AE
:1014C0007F8E809480997F9D80A07FA180A180A045
:1014D0007F9E809B80978092808C80878081807D9A
:1014E00080798076807380727F7180717F71807265
:1014F0007F7380757F7780797F7B807D7F8180851A
:101500007F8A808E7F9280957F9780977F9580914C
:101510007F8D80877F8080797F72806B7F65806020
:101520007F5C805A7F59805A805C7F6080657F6BCA
:1015300080727F79808180887F8E80947F99809D62
:1015400080A07FA180A17FA0809E7F9B80977F92BB
:10155000808C7F8780827F7E807A7F7780747F73A4
:101560007F7180717F71807180727F7380747F76EC
:1015700080797F7C80807F84808A7F8F80937F9634
:1015800080987F9880967F93808E7F8880817F7AF5
:1015900080727F6B80657F60805C7F5A80597F5A44
:1015A000805C7F6080657F6B80727F7980807F88C0
:1015B000808E7F9480997F9D80A07FA180A17FA154
:1015C000809E7F9B80977F92808D7F8880837F7FA6
:1015D000807B7F7880757F728071806F7F6F806F76
:1015E0007F6F80707F72807480767F7A807F7F8447
:1015F000808A809080948098809A7F9A80987F9546
:1016000080907F898082807A8073806B7F65805F25
:10161000805B805980587F58805B7F5F8064806AE0
:101620008071807980807F88808E80947F9A809E70
:1016300080A17FA280A27FA2809F7F9C80987F93C1
:10164000808E80897F848080807B7F7880747F71AA
:10165000806E7F6D806C806B7F6C806D7F6F807122
:101660007F747F79807F7F857F8C80927F97809B3E
:101670007F9D7F9D809B7F9780927F8B8083807BE7
:1016800080737F6B80647F5E805A7F5780567F5760
:101690008059805D7F6380697F7080787F808088DB
:1016A0007F8F80957F9B809F80A280A480A47FA352
:1016B00080A17F9E809A7F9580907F8B808680809E
:1016C000807B7F7680727F6E806B7F6880677F67AC
:1016D000806780697F6B806F80737F7980807F8770
:1016E000808F80967F9B809F80A17FA1809E7F9A24
:1016F0008094808C7F84807B80727F6A8062805C33
:101700007F5780547F5380547F57805B80617F6810
:1017100080707F78808080897F9080977F9D7FA177
:1017200080A47FA680A680A57FA380A07F9C8097B1
:101730007F92808C7F85807F7F7980737F6E8069C8
:101740007F6680637F6280628064806680697F6E6E
:1017500080747F7B80837F8B7F93809B7FA080A41E
:1017600080A580A57FA1809C7F95808D80837F7AD6
:10177000807080677F5F80587F5380517F50805199
:1017800080547F5980607F6880707F797F82808BF2
:101790007F93809A7FA080A47FA780A980A980A83A
:1017A0007FA680A27F9E80988091808A8083807BA4
:1017B00080747F6E80687F6380607F5E805E805F04
:1017C0007F6180657F6A806F7F77807F7F8880916F
:1017D000809980A180A680A97FAA80A880A4809DEE
:1017E00080957F8B80818076806C7F62805A7F5469
:1017F000804F7F4C804C804E7F5280587F60806845
:1018000080727F7C8085808E7F96809E7FA380A85B
:1018100080AB80AC7FAC80AB80A87FA4809E80979B
:101820007F8F80877F7E8076806E7F678061805D1E
:10183000805A7F5A805A805D80618066806C807398
:10184000807B8085808E809880A080A77FAB80AED3
:101850007FAD80AA7FA5809D80938089807D8072E6
:101860008067805D8055804E804A7F4980497F4CEB
:1018700080517F587F61806B7F757F7F80897F93E8
:10188000809B7FA27FA880AC7FAF80B07FAF7FAD11
:1018900080A97FA3809C7F94808A80818077806EDE
:1018A00080667F60805B80587F5680577F59805D5F
:1018B000806380697F7180797F82808C7F96809F32
:1018C0007FA780AC80B07FB180AF7FAA80A37F9AD2
:1018D000808F80848077806B80607F57804F7F49C6
:1018E000804680467F48804C7F52805A80647F6F5C
:1018F00080797F84808E80987FA080A77FAC80B124
:1019000080B37FB380B17FAD80A880A07F97808DAA
:101910007F8380797F6F80667F5F805A8056805496
:101920007F5580577F5B806180677F6F80787F8184
:10193000808A7F94809D80A67FAC80B17FB380B287
:101940007FAE80A87FA080957F8A807D80707F6435
:10195000805A80517F4A804580447F4480487F4D33
:1019600080557F5E80688074807F7F8A8094809DB0
:101970007FA580AC7FB180B480B57FB480B07FABF1
:1019800080A3809A80907F85807B7F708067806055
:10199000805A80567F5480548056805A806080667A
:1019A0007F6E80767F7F80887F927F9B80A47FABD5
:1019B00080B080B380B37FB180AC80A47F9B808FE8
:1019C0007F8380767F69805E80547F4C8046804331
:1019D0007F43804580497F5080597F63806E807946
:1019E0007F858090809A80A380AB80B17FB480B6E1
:1019F0007FB580B280AC80A5809C809280877F7DFF
:101A000080727F698061805B7F5780557F558057EA
:101A10007F5A806080667F6E80767F7E80877F8F32
:101A200080987FA180A880AE7FB280B37FB280AE65
:101A30007FA7809F7F948088807B7F6F80637F58A3
:101A4000804F7F49804580437F4480477F4D80554C
:101A5000805E7F6980747F80808B7F9680A080A865
:101A600080AE7FB280B47FB480B17FAC80A67F9D12
:101A700080947F89807F7F75806C7F64805E7F5AD1
:101A8000805780577F59805C7F6180677F6E80754B
:101A90007F7D80857F8D80957F9C80A47FAA80AE8E
:101AA0007FB080B080AE80A980A17F98808D7F813B
:101AB00080757F69805E7F55804D804880457F447A
:101AC00080467F4B8051805A7F64806F7F7B808609
:101AD0007F91809B80A47FAA80AF7FB180B180AFCF
:101AE0007FAB80A5809E7F95808C7F8280797F7080
:101AF00080697F63805E805C805B805C7F5E8062EB
:101B00007F67806E7F75807C7F83808A7F918098DD
:101B10007F9E80A47FA980AC7FAE80AD7FA980A38B
:101B2000809B809280877F7B80708065805B805304
:101B30007F4C804880467F47804A7F4F80567F5F3A
:101B4000806A80767F81808C7F96809F80A57FAA27
:101B500080AD80AE80AD7FA980A47F9E8096808E70
:101B60007F85807C80747F6D80677F6380607F5F0E
:101B7000805F7F6180657F6A80707F76807D7F83F4
:101B800080897F9080967F9C80A27FA780AA7FAB70
:101B900080AA7FA780A27F9A80917F86807B7F70BA
:101BA00080657F5C80547F4D7F4980487F49804CB1
:101BB0007F5280598063806E807980847F8E809789
:101BC000809E80A480A77FA980A97FA780A47F9EF4
:101BD00080987F907F8980817F7980727F6C806818
:101BE0007F6580637F637F6580687F6C80717F76AF
:101BF000807C7F828088808D80938099809E7FA367
:101C000080A67FA880A880A680A1809A80918087E6
:101C10007F7D80727F67805E7F568050804C804AD7
:101C2000804B7F4E80547F5C80657F70807A7F849C
:101C3000808E7F96809C7FA180A480A57FA580A2B6
:101C4000809E7F9980937F8C8085807E7F78807254
:101C50007F6D806A7F6880677F68806A7F6D807132
:101C600080767F7B80807F85808A7F8F80947F993C
:101C7000809E7FA280A57FA680A57FA1809C7F9467
:101C8000808B80817F76806B7F62805980527F4E0F
:101C9000804C7F4C804F7F55805C7F65806F807962
:101CA0008082808B80928099809D7FA080A17FA17F
:101CB000809F7F9B80978091808B7F85807F7F79BD
:101CC000807480707F6D806B7F6B806C806E8070A5
:101CD00080748079807D7F8280877F8B808F7F94E6
:101CE00080987F9D80A180A380A480A37F9F8099FE
:101CF0007F9180887F7E80737F69805F80577F516E
:101D0000804E804D7F4F80547F5A80627F6B8074FD
:101D1000807D8086808D7F948099809C7F9E809E30
:101D20007F9D809A7F9780927F8D80877F81807C46
:101D30007F7780738070806E7F6D806E806F7F7222
:101D400080757F79807D7F818086808A7F8E80927A
:101D500080977F9B809F7FA280A37FA2809F7F9997
:101D600080917F88807E80737F69806080587F52F9
:101D7000804F7F4E805180557F5B8063806C7F7584
:101D8000807D7F86808D7F938098809B809D7F9DC6
:101D9000809C7F9980957F91808B7F867F81807BDF
:101DA0007F77807380707F6F806E7F6F80708073AD
:101DB0008076807A807E7F8280877F8B808F809400
:101DC0007F99809E7FA180A37FA380A17F9C809527
:101DD0007F8D80827F77806D7F63805A7F548050B3
:101DE000804F7F5080547F5980607F6880707F79FA
:101DF0007F8180897F9080957F99809C7F9D809D49
:101E0000809B7F9880947F8F80898084807E80797A
:101E100080757F71806F7F6D806D806E8070807443
:101E200080777F7C80807F85808A7F8F8095809B74
:101E30007FA080A480A67FA580A2809C7F94808BB9
:101E40007F7F807480687F5F80577F52804F7F4F95
:101E500080517F55805B8062806B8073807C7F8443
:101E6000808C7F9280977F9B809D7F9E809D7F9BB3
:101E700080977F93808D7F8880827F7C80777F733F
:101E80008070806E806D806E806F7F7280767F7ACA
:101E9000807E7F8380897F8F8096809D7FA280A6B1
:101EA0007FA680A57FA080987F8F80848078806DBA
:101EB0008063805A8054805180507F5180547F5974
:101EC00080607F688071807A80827F8A80917F972E
:101ED000809B7F9D809E7F9D809B80977F92808D41
:101EE0007F8780827F7C807880747F71806F806F35
:101EF0007F7080727F747F78807C7F818086808D08
:101F00007F95809B7FA180A57FA680A4809E7F97E0
:101F1000808D7F8180757F6A80617F5980547F507A
:101F200080507F5180557F5B80637F6B80747F7DA5
:101F300080867F8E80957F9A809D809F7F9F809DE9
:101F40007F9A8095808F7F8980837F7D80777F7364
:101F5000806F806D7F6D806E80707F748078807DF3
:101F60007F83808A7F92809A7FA180A67FA97FA8A5
:101F700080A47F9D80937F87807B7F6E8063805964
:101F80007F52804D7F4B804B7F4F80547F5C8065BC
:101F90007F6F80797F84808D7F95809B7FA080A3D9
:101FA0007FA380A27F9F809A8093808C80857F7D95
:101FB00080777F71806D806B7F6A806B7F6D8071B1
:101FC0008076807C8083808B7F94809E7FA580AA92
:101FD0007FAD80AB7FA6809D80927F8580787F6B70
:101FE000806080567F4E804A804880497F4D805473
:101FF0007F5D80677F72807D7F8880918099809FE0
:102000007FA380A47FA380A1809C7F96808F7F8701
:10201000808080797F73806E7F6C806B806C806E37
:1020200080727F77807D80857F8F80997FA180A857
:1020300080AC80AC80A880A18096808A807C7F6FF5
:1020400080637F5880507F4B7F49804A7F4E805409
:102050007F5D80687F73807E7F897F92809A7FA07A
:1020600080A380A47FA2809F80997F92808A7F82B4
:10207000807A80737F6E806A7F688069806B7F6FF3
:1020800080747F7A8082808C7F9780A180A97FAFC7
:1020900080B07FAE80A77F9D80907F8280737F66B7
:1020A000805A7F50804980467F458049804F7F58C5
:1020B00080637F70807C7F8880937F9B80A27FA6D7
:1020C0007FA880A67FA3809D7F95808D8084807B64
:1020D00080737F6D80687F6680667F68806C8072A9
:1020E00080797F82808D7F9980A37FAB80AF7FAF27
:1020F00080AB80A280977F8A807B806D80608055D6
:102100007F4D804880477F49804E7F5680617F6C3D
:10211000807980857F9080997FA080A580A77FA609
:1021200080A27F9D8095808D7F84807B8073806D71
:1021300080697F6780677F69806E7F74807B808520
:102140008090809B80A57FAC80B07FB080AB80A268
:102150007F9680887F79806A7F5D80517F49804447
:102160007F438045804B7F54805F7F6C80797F8682
:102170008092809C7FA380A880AA80A980A580A04F
:102180008098808F8085807C7F74806D7F6880667A
:102190007F6680687F6C8072807980837F8E809A72
:1021A0007FA480AC80B080B07FAB80A27F96808916
:1021B000807A806C7F5F8054804C7F4780457F4869
:1021C000804D7F568061806D7F7A80867F91809A76
:1021D0007FA080A480A580A47FA0809A7F93808A1E
:1021E00080827F7980727F6D80697F6880697F6C73
:1021F00080717F77807F7F8A809580A07FA980B063
:102200007FB280AF7FA8809E7F90808180727F6444
:1022100080577F4D80468043804480487F50805A5D
:102220007F67807480817F8E80987FA080A680A940
:1022300080A87FA580A07F9880907F86807D7F7416
:10224000806D7F6880657F657F66806A7F7080783B
:102250007F81808D7F9980A47FAC80B17FB17FAD7D
:1022600080A57F98808A7F7B806C7F5F80547F4CC5
:10227000804780467F49804F80587F6380707F7C95
:10228000808880937F9B80A180A47FA580A3809E6F
:102290007F9880907F87807F807780717F6C806956
:1022A0007F69806B806F7F74807A7F83808D7F9859
:1022B00080A27FAA80AF7FAF80AB80A38097808809
:1022C00080797F6A805C8051804A80458045804863
:1022D000804E8058806380707F7D80897F94809D50
:1022E0007FA380A680A780A580A0809A7F92808906
:1022F0007F80807880717F6B80687F678068806C6A
:102300007F718077807F7F8A809580A07FA980AE53
:102310007FB080AD7FA6809A7F8C807D7F6E80604D
:1023200080557F4D80497F48804B7F507F59806327
:102330007F6F807B7F8680907F98809D80A17FA12A
:10234000809F7F9B80957F8D8086807E7F77807148
:102350007F6D806B7F6C806E80727F77807E7F86E2
:1023600080907F9A80A47FAC80B07FB080AB7FA24A
:10237000809580867F7580667F58804E7F47804538
:102380007F46804B7F53805E7F6A80777F83808F1C
:102390007F98809F80A47FA580A47FA0809A7F9251
:1023A0007F8A808180787F71806B7F6780667F679E
:1023B000806A7F6F80767F7D7F8780917F9C80A6FB
:1023C00080AD7FB180B07FAA80A18093808380732D
:1023D00080648057804E80498048804A8050805970
:1023E0007F648070807C7F8880927F99809E7FA1AF
:1023F00080A07F9E809880927F8A8082807A7F737F
:10240000806E7F6B806A806B7F6E80737F79808047
:102410007F888091809B80A47FAB80AF7FB080ABB2
:1024200080A27F95808680757F648056804B804433
:1024300080417F44804A7F5480607F6E807C7F89AA
:1024400080947F9D80A47FA780A77FA4809F7F9793
:10245000808F7F85807B7F73806C7F6780648065E1
:102460007F67806C80727F7980827F8B809580A06F
:102470007FA980B07FB280B180AA7FA080927F8246
:1024800080707F6080527F4980437F4380477F4FC9
:10249000805A7F6780757F83808F80997FA080A41A
:1024A00080A47FA2809D7F96808D80847F7A8072B9
:1024B000806B80667F64806580687F6D80747F7CC0
:1024C00080857F8E80987FA280AC7FB280B580B4FB
:1024D0007FAE80A380957F838071805F7F4F804334
:1024E0007F3C803A7F3E80477F53806280737F834A
:1024F00080927F9E80A880AD80AF80AD80A87FA0B5
:1025000080957F89807D7F7280687F60805C7F5A44
:10251000805C80617F6980727F7C80867F92809EF4
:1025200080A97FB280B780B97FB580AC7F9F808F54
:10253000807C7F698058804A7F3F803B7F3B804220
:10254000804D7F5C806C807E808E809B7FA680AC7F
:102550007FAF80AE7FA980A17F97808A7F7D8071C9
:102560007F67805F805A7F59805B7F6080687F7360
:10257000807E808980957FA180AD7FB680BC7FBD45
:1025800080B980B080A28090807C80688054804434
:10259000803880317F3080367F4180527F658079FE
:1025A0007F8D809E7FAC80B580BA7FBB80B77FAEC9
:1025B00080A37F9480857F758067805C7F54805086
:1025C00080507F54805C7F6680727F7F808D7F9B90
:1025D00080A97FB580BD7FC180C07FB980AD809C60
:1025E0007F8880737F5E804C803E80357F31803471
:1025F0007F3C804A805C7F708085809780A780B216
:1026000080B97FBB80B87FB17FA680977F878077B6
:1026100080687F5B8052804D804D805180587F6301
:1026200080707F7F808D7F9D80AB80B87FC280C6A9
:102630007FC680BF7FB380A17F8B8074805D7F4920
:1026400080397F2E80297F2B8032804080538069A3
:10265000808080967FA980B77FC180C67FC580C0FB
:102660007FB580A680947F81806E7F5D80507F489B
:1026700080447F45804B7F5580627F7180817F924F
:1026800080A47FB380C07FC780C97FC580BB7FAB7C
:1026900080967F7F80677F52804080337F2C802BA5
:1026A00080317F3C804D7F628078808E80A27FB2B7
:1026B00080BE80C57FC680C27FB880AA80997F8691
:1026C00080727F6180527F48804380437F487F5281
:1026D000805F7F6F80807F9280A57FB580C27FCB37
:1026E00080CE7FCA80C07FAF80997F8180677F5016
:1026F000803C7F2E80258024802980348045805A2C
:1027000080718089809F80B180C080C980CD80CB5E
:1027100080C380B77FA680927F7D80697F57804A83
:102720008042803E7F4180487F54806280737F87F3
:10273000809B7FAD7FBD80C87FCD80CC80C47FB6BD
:1027400080A37F8C80737F5B804680367F2C8029BE
:10275000802C80357F4380567F6B80817F9680A957
:102760007FB880C27FC880C87FC280B880A87F96AB
:1027700080827F6E805D7F4E80457F4080418047B4
:102780007F51805F806F8082809780AA80BB7FC7E7
:1027900080CD7FCD80C77FBA80A780907F77805E15
:1027A0007F488037802C7F2780297F31803E7F5172
:1027B0008066807C7F9280A57FB580C17FC980CCF8
:1027C00080C97FC180B47FA2808F7F7A80677F5667
:1027D00080497F41803F7F4180487F54806380757E
:1027E0007F8A809E7FB180BF80C87FCA80C77FBD3F
:1027F00080AC80987F8080697F53804180347F2EB9
:10280000802D7F33803E804E80627F76808A809DDF
:1028100080AC80B97FC180C57FC480BE7FB47FA6F5
:1028200080957F8280707F6080537F4B80467F479A
:10283000804C7F5680637F7380867F9980AB7FB9A1
:1028400080C280C57FC280B980AA7F9780817F6A5D
:102850008055804480378030802F7F34803E804E8A
:102860007F6080747F88809A80A97FB580BD7FC19A
:1028700080C17FBD80B57FA9809A7F8980787F687D
:10288000805B7F51804B7F49804C7F53805D806CA3
:10289000807E7F9180A37FB280BC80C17FC080B9E1
:1028A0007FAD809C80888073805F804E7F418038C0
:1028B0007F3680397F41804D7F5D806F7F81809240
:1028C00080A180AC80B47FB880B980B780B180A887
:1028D0007F9C808E808080728066805C7F56805373
:1028E0007F5480588060806B807A808B7F9B80A92A
:1028F00080B380B77FB780B17FA6809780857F73D4
:1029000080617F518046803F803D7F408048805479
:102910007F6380747F8580947FA280AC7FB380B515
:1029200080B57FB180AA7FA18097808A7F7E8072E8
:10293000806880607F5B80597F59805D80647F6E96
:10294000807B7F8A80997FA580AE80B27FB280AC89
:102950007FA280937F83807280617F5380487F4213
:102960007F4080437F4B80567F6580747F84809258
:102970007F9F80A87FAF80B280B180AE7FA7809F0D
:102980007F96808C7F8280797F71806A7F66806489
:1029900080648065806A7F71807B7F8680917F9B69
:1029A00080A27FA580A4809E8096808A807D7F7093
:1029B000806380597F52804E7F4E805280597F6362
:1029C000806F7F7B808780927F9C80A27FA680A77C
:1029D0007FA680A17F9B80937F8B80837F7C807785
:1029E0007F72806F806E7F6E80707F7380777F7D57
:1029F00080847F8B80937F99809C7F9C809980933B
:102A0000808B80817F76806C7F63805B7F57805670
:102A10008057805C8063806C7F7680807F8A809224
:102A20007F99809E7FA180A17F9E809A7F947F8DD9
:102A300080867F7F807980757F7380717F727F73DE
:102A4000807580787F7C80807F85808B7F8F80936E
:102A50007F9580947F92808D7F87807F7F78807044
:102A6000806A7F6580627F6280637F67806C7F732E
:102A7000807A7F8180887F8E809280957F968096F5
:102A80007F9480907F8C80878082807D80797F7624
:102A900080757F7580777F79807C7F7F80827F855E
:102AA0008088808C7F8E80908090808E7F8B8086C7
:102AB0007F807F7A80747F6F7F6B80687F687F699B
:102AC000806C7F7080757F7B80817F86808B808F1C
:102AD0007F9180927F928090808D7F8980857F8199
:102AE000807C80797F7680747F7480757F77807931
:102AF0007F7D80807F848087808A7F8D808E7F8F9E
:102B0000808E808C7F8980847F7F807A7F758071C2
:102B10007F6E806D7F6C806D80707F7380777F7C2F
:102B200080817F86808A7F8D808F7F9080907F8E4E
:102B3000808C80887F8480807F7C80797F768075A0
:102B40007F7480747F758078807A807E80817F84B6
:102B500080877F89808B808C7F8B808A7F8880852F
:102B600080817F7E807A7F77807580737F738073AA
:102B70007F74807680797F7C807F7F82808580876C
:102B80007F89808A7F8A808A7F89808780857F830A
:102B900080817F7F807D807B807A80798079807A58
:102BA000807B807C807E807F80817F828083808428
:102BB000808480847F8380828081807F7F7E807D0F
:102BC0007F7B807B807A7F7B807B7F7C807D7F7E2C
:102BD00080807F818082808380837F8480847F83E4
:102BE00080837F8280827F8180807F8080807F7FE2
:102BF000807F7F7F807F7F7F807F7F7F807F807FE0
:102C00007F7F807F7F80808080807F7F807F807FCC
:102C10007F7F807E7F7E807E807E807E7F7F807FC4
:102C20007F7F80807F8080807F8180817F818081A5
:102C300080807F8080807F8080807F7F807F7F7F9B
:102C4000807F7F8080807F8180817F8280827F8281
:102C50008082808280817F8080807F7F807E7F7E77
:102C6000807D807C7F7C807C7F7C807D7F7D807E82
:102C7000807F807F8080808180818082808280824E
:102C8000808280827F8180817F808080807F7F7F43
:102C9000807E807E7F7E807E7F7E807E7F7F807F45
:102CA00080807F8180817F8280827F83808280821A
:102CB0008081808180807F7F807E7F7E807D807D1F
:102CC000807C7F7C807D7F7D807D7F7E807F807F1C
:102CD00080807F8180817F8280827F8280827F81ED
:102CE00080817F8180807F7F807F807F7F7E807EEC
:102CF0007F7E807E7F7E807F7F7F80807F808081DF
:102D00007F8280827F8280827F82808280817F80BA
:102D1000807F7F7E807E7F7D807C807C807C807CCD
:102D2000807C807D7F7D807E7F7F80807F808081B2
:102D300080827F8280827F82808280827F81808188
:102D40007F8080807F7F807F7F7E7F7E807E7F7E92
:102D5000807E7F7E807F7F7F808080817F81808278
:102D600080827F8280827F8280817F8080807F7F5F
:102D7000807E7F7D807D807C807C7F7C807C7F7D71
:102D8000807D807E7F7F807F7F8080817F8180814A
:102D90007F827F8280817F817F8180807F807F7F33
:102DA000807F7F7F807E7F7E7F7E807E7F7F807F33
:102DB000807F808080817F8180827F8280837F820C
:102DC00080827F8280817F80807F807E807D7F7D0A
:102DD000807C7F7C807C7F7C807C7F7D807E807E11
:102DE0007F7F80807F8180817F8280827F828082DE
:102DF0007F8280817F818080807F7F7F807E7F7ED9
:102E0000807E7F7E807E807E7F7E807F7F7F8080D1
:102E100080818081808280827F8380837F828082A4
:102E200080817F80807F7F7E7F7D807D7F7C807CB6
:102E30007F7C807C7F7D807D7F7E807F7F808080A7
:102E400080817F8180827F8280827F8180817F817B
:102E50008080807F7F7F807F7F7E807E7F7E807E80
:102E60007F7E807F807F7F8080807F8180817F8266
:102E7000808280827F8280827F8180807F7F807E4F
:102E8000807D7F7D807C7F7C807C807C7F7C807D62
:102E9000807D807E7F7F808080817F8180827F8235
:102EA00080827F8280827F8180817F8080807F7F1F
:102EB000807F7F7E807E807E7F7E807E7F7E807E24
:102EC000807F7F8080807F81808280827F828082FD
:102ED0007F8280827F8180807F7F807E7F7D807DFA
:102EE000807C7F7C807C7F7C807D807D7F7E807FFE
:102EF0007F7F808080807F8180817F8180817F81D2
:102F000080817F8080807F80807F7F7F807F7F7EC9
:102F1000807E7F7E807F7F7F807F7F8080808081BA
:102F20007F8280827F82808280827F8280817F8098
:102F3000807F7F7E807D807D7F7C807C7F7C807CAD
:102F4000807C7F7D807E7F7F807F80807F8180818D
:102F50007F8280827F82808280817F8180807F806B
:102F6000807F807E7F7E807E7F7E807E7F7E807E73
:102F7000807E7F7F807F80807F8180827F82808251
:102F80007F83808280827F8180807F7F807E7F7E42
:102F9000807D807D7F7C807C807D7F7D807E7F7E4C
:102FA000807F80807F8080817F8180817F81808120
:102FB0007F818081808080807F7F807F7F7E807E18
:102FC000807E7F7E807E7F7F7F7F807F80807F800E
:102FD00080817F82808280827F8280827F827F81E7
:102FE00080807F7F807E7F7D807C807C807C807CF9
:102FF000807C7F7D807D7F7E807F80807F818081DF
:103000007F8280827F8280827F827F8180817F80B9
:10301000807F807F7F7E807E7F7E807E7F7E807EC1
:103020007F7E807F7F7F808080807F8180827F82A3
:103030007F8380837F8280827F817F80807F7F7E8D
:10304000807D7F7D807C7F7C807C7F7C807D7F7E9F
:10305000807E807F808080807F8180817F81808171
:103060007F8180817F808080807F7F7F807E807E67
:10307000807E807E807E7F7E807F807F808080805B
:1030800080817F82808280838083808380827F8230
:1030900080817F80807F807E807D7F7C807B7F7B46
:1030A000807B807C7F7C807D7F7E807F7F80808135
:1030B0007F8280827F8380837F82808280817F8005
:1030C0008080807F7F7E807E7F7D807D807D7F7D14
:1030D000807E7F7E807F807F7F8080817F818082F5
:1030E0007F83808380837F8380827F817F80807FD6
:1030F0007F7E807D7F7C807C807C807C807C7F7DEF
:10310000807E807F7F8080817F81808280827F82BD
:10311000808280817F8180807F7F807F7F7E807EB4
:10312000807D7F7D807D7F7E807E807F7F7F8080B1
:1031300080817F8180827F8380837F8380837F8281
:1031400080827F81807F7F7E807D807C807B7F7B93
:10315000807B807B807B7F7C807D7F7F7F80808188
:103160007F8280837F83808380838083808280814D
:103170007F80807F7F7E807E7F7D807D7F7C807D65
:10318000807D7F7D807E7F7F80807F8180817F8248
:1031900080837F838083808380837F8280817F7F21
:1031A000807E807D7F7C807B7F7B807B7F7B807C43
:1031B0007F7D807E7F7F80807F8180827F82808311
:1031C0007F83808280827F8180807F7F807E807D00
:1031D000807D7F7D807D7F7D807D7F7E807F807F05
:1031E0007F8080817F8280837F8380847F848083CF
:1031F000808380827F80807F7F7E807C7F7B807BDE
:10320000807A7F7A807B7F7B807C7F7E807F8080DE
:103210007F8280837F84808480847F8480837F8298
:1032200080817F80807F807E7F7D807C7F7C807CB2
:103230007F7C807C7F7D807F80807F8280857F8790
:1032400080887F89808A80897F88808680837F804C
:10325000807C80787F7580727F70806E806D7F6DDE
:10326000806E7F6F80717F748077807A807D7F80B1
:1032700080837F8580887F89808B7F8C808C7F8C0A
:10328000808C808C808C7F8B808B7F8A808A8089E9
:10329000808880888087808680857F8480827F8008
:1032A000807E7F7C80797F7780758073807180716C
:1032B0007F7180737F76807A7F7F80848088808C26
:1032C0007F9080917F9280917F8F808C7F8780829A
:1032D0007F7D80777F71806B806780638060805F97
:1032E000805F7F6080627F65806A7F6F80747F7A95
:1032F00080807F867F8B808F7F9380967F98809958
:103300007F9980997F9880967F95809380917F8F19
:10331000808D808B7F8880857F838080807D7F7992
:1033200080767F7380717F6E806C7F6B806B7F6D2A
:10333000807080737F78807D80827F86808A7F8D99
:10334000808F80907F90808F7F8E808B80877F831F
:10335000807F7F7A80757F70806C7F6880668064F4
:103360007F6480647F6680697F6D80727F77807DF7
:103370007F828088808D80917F9580987F9A809CC5
:103380007F9C809C809B7F9980977F948091808D8B
:103390007F8980857F81807D7F7980757F73807054
:1033A000806F7F6D806D7F6D806E7F7080737F77A3
:1033B000807B7F7E808280857F8780887F898089EF
:1033C0007F8980887F8680847F81807E7F7B8078F4
:1033D0007F7580737F70806E7F6D806C7F6B806B7C
:1033E0007F6C806E7F7080738077807B807F7F832F
:1033F00080887F8C80907F948097809A7F9C809D2E
:103400007F9D809C809A7F9780937F8E8089808328
:103410007F7D80787F7480707F6C806A8068806830
:1034200080697F6A806E80728077807D7F828087EE
:103430007F8B808E7F9080908090808E7F8C808923
:1034400080857F81807D7F79807580727F6F806DC0
:103450007F6C806C806C7F6C806D7F6F80707F7301
:1034600080757F78807B807E7F8180848088808B60
:103470007F8F80927F9580987F9A809C809C7F9C94
:10348000809A7F9780947F8F808A8085807F7F7AE3
:1034900080757F70806C80687F6680657F658067DF
:1034A0007F6B80707F76807C7F8380897F8E7F9228
:1034B00080957F9580957F938090808B7F8680819B
:1034C0007F7C80767F71806D7F6A80677F66806594
:1034D0007F6680677F69806C7F6F80737F77807B7A
:1034E0007F7F808380877F8B808E7F9280957F9780
:1034F00080997F9B809B7F9B7F9A80987F9580920D
:103500007F8E808A80867F81807C80777F72806ECC
:103510007F6A80677F65806480658068806C7F716A
:103520008077807E8085808B80907F938096809747
:10353000809780958092808E7F8980847F7E80793D
:103540007F73806E7F6A806680647F6280627F6244
:1035500080647F67806B7F7080757F7A80807F85D5
:10356000808A7F8F80947F97809A7F9C809E809EA8
:103570007F9D809B7F98809580917F8C80877F83C3
:10358000807E7F79807580717F6E806B80697F68B7
:1035900080687F69806B7F6F80747F7A808080868F
:1035A0007F8B80907F9380967F97809780957F9385
:1035B000808F7F8B80867F80807A7F75806F7F6A27
:1035C00080667F628060805F7F5F80617F638067ED
:1035D000806B80707F76807C7F8380897F8F8095F1
:1035E0007F99809D7FA080A17FA280A17F9E809BEC
:1035F00080977F92808D7F878081807C80768072AB
:10360000806E7F6B8068806780677F6780697F6C72
:103610007F7080757F7B80827F88808D7F92809590
:103620007F9880987F9880967F93808F808A7F850F
:10363000807F7F798073806E7F6980657F62806024
:103640007F6080607F6180647F67806B80707F7641
:10365000807C7F838089808F7F9580997F9D80A0EB
:103660007FA180A180A07F9E809B7F9680917F8C90
:1036700080867F80807A7F758070806C80698067AB
:103680007F6680667F6780697F6C80717F767F7DD3
:1036900080837F8A80907F958099809B809C809B8F
:1036A00080997F958091808B8085807E80787F72E5
:1036B000806C7F6780638060805E805D7F5E805FFE
:1036C0007F6280667F6B80707F76807D7F84808A5A
:1036D0007F9080967F9A809E80A080A17FA1809F0E
:1036E000809D809A7F9580907F8B80857F7F807A78
:1036F00080757F707F6D806A7F6880677F67806874
:103700007F6A806D7F728077807E7F84808B7F91DF
:1037100080977F9B809D7F9E809D809A7F968091E1
:103720007F8B8084807D7F76806F7F6980647F5F00
:10373000805C7F5B805A7F5B805D80617F66806B91
:103740007F728079808080877F8E80947F98809C34
:103750007F9F80A07FA07F9F809D809A7F96809290
:103760007F8C808780827F7D80787F7480707F6D82
:10377000806B806A7F6A806A806C806E7F718075E2
:103780007F7A80807F87808D80937F98809B7F9DCC
:10379000809D7F9C80997F9580907F898083807BAE
:1037A00080747F6E80687F62805E7F5B805A805A03
:1037B0007F5B805E7F6280677F6D7F74807B7F82AE
:1037C0008089808F80948098809B809D809E809E41
:1037D000809D809A809780937F8F808A7F8580806C
:1037E0007F7C80777F748071806E7F6D806C806C51
:1037F0007F6D806E7F7180747F787F7D808380890C
:103800007F8F809580997F9C809D7F9D809B8098F5
:103810007F93808D7F87807F80787F71806A7F64CF
:10382000805F7F5C805980597F59805C7F608065B4
:10383000806B7F728078807F7F86808C80917F957F
:1038400080987F9B809C7F9C809B7F9980977F94B2
:1038500080907F8C80887F83807F7F7B80787F755E
:1038600080727F7180707F6F80707F7180727F74D3
:1038700080777F7B807F7F85808A808F7F94809810
:103880007F9A809B7F9A80987F9580907F8A8084A2
:103890007F7D80767F6F80697F63805F805C805AE8
:1038A000805A805C805F80638068806E7F74807ADD
:1038B00080818086808B7F9080947F978099809A8A
:1038C0007F9A80997F9780957F92808E808B7F876B
:1038D00080837F7F807B7F7880767F7480727F7229
:1038E00080728072807380757F777F79807D7F8121
:1038F0008086808B7F908094809780997F99809834
:103900007F9680927F8D80877F81807A7F73806DA4
:103910007F6780637F5F805D7F5C805D7F5F8063AA
:103920007F67806C7F7180767F7C808180867F8AD4
:10393000808E80917F9380957F9680967F958094EE
:1039400080927F90808D7F8B8088808480817F7E35
:10395000807C7F7980777F767F7580757F758075B5
:103960007F768078807A7F7D80817F86808B7F8F55
:1039700080937F9680977F97809680948090808BAD
:103980008085807F7F7880727F6C80677F638060B6
:103990007F5E805E7F60806280657F69806D7F7200
:1039A00080777F7C808080857F89808C7F8F8091ED
:1039B0007F9380947F9480947F9380917F90808D7B
:1039C000808B7F8880857F838080807E7F7C807AEB
:1039D00080797F78807780777F7780787F79807A29
:1039E0007F7D80817F858089808D7F918093809588
:1039F0007F9580937F91808D7F897F83807D7F7786
:103A00008072806C7F6880657F6380627F62806384
:103A10007F6480677F6A806E807280767F7A807E26
:103A20007F8280867F8A808D7F8F80917F93809434
:103A300080947F9380927F91808F7F8D808A7F8812
:103A4000808580827F80807D7F7B807A80787F7791
:103A500080777F7780777F78807A7F7D80807F8591
:103A600080897F8D80907F9380947F9480927F90D7
:103A7000808C7F8780827F7C80767F71806D7F697C
:103A800080667F6580647F6380647F6680687F6A0C
:103A9000806D7F71807580787F7C80807F84808856
:103AA0007F8B808E7F9080927F9380947F94809391
:103AB0007F9280917F8F808D7F8A808780857F82B3
:103AC000807F7F7D7F7B80797F78807780767F762F
:103AD00080777F79807C807F80847F88808C7F8FD7
:103AE000809280937F9380917F8F808B80867F816F
:103AF000807B7F7680727F6E806A7F6780667F655D
:103B000080647F6580667F68806A7F6D80717F7466
:103B100080787F7C80807F8480877F8B808E7F9081
:103B200080927F9380947F94809480937F91809003
:103B30007F8D808B80887F86808380807F7E807C65
:103B40007F7A8078807780767F7680767F78807ABB
:103B5000807D7F81808480877F8A808C7F8D808D2F
:103B6000808C808A7F8880857F81807E807B7F7744
:103B700080747F72806F7F6E806C7F6C806B7F6CD7
:103B8000806D7F6E807080737F7580787F7C807F92
:103B90007F82808580887F8A808D7F8E808F7F90D6
:103BA00080907F8F808F808D7F8C808A7F888086B9
:103BB00080847F8280807F7E807C7F7B7F7980791C
:103BC0007F7880787F788079807B807D7F8080821D
:103BD0007F8480867F8780887F88808780868085B5
:103BE00080837F81807F7F7D807B7F7A80787F76F6
:103BF000807580737F7380727F7280727F73807430
:103C00007F7680787F7A807C807E7F8180837F85CD
:103C100080877F89808A7F8B808B808C808B808B54
:103C20007F8A80897F8780867F8480837F81807F71
:103C30007F7E807D7F7C807B807A7F7A807A7F7BAD
:103C4000807B7F7D807E7F80808180827F83808477
:103C50007F8480847F8480837F8280817F80807F57
:103C60007F7E807D7F7C807B7F7A80797F78807883
:103C7000807880787F7880797F79807A807B7F7C7C
:103C8000807E7F7F80807F8180837F848085808528
:103C90007F86808680877F8780867F867F858085F8
:103CA0007F8480837F8280818080807F7F7E807D13
:103CB0007F7C807C7F7C807C807C807C807D807E23
:103CC0007F7F7F8080817F8280827F8280828082EE
:103CD0007F8280827F8180807F80807F7F7E807EE8
:103CE0007F7D807C7F7C807C7F7C807C7F7C807CF7
:103CF000807C807D807D7F7E807F7F7F80807F80D5
:103D000080817F8180818082808280827F828082A8
:103D10007F8280827F827F8280827F8180817F819B
:103D2000808080807F80807F7F7F807F7F7E807E9D
:103D30007F7E807E7F7E807E807E7F7F807F7F7F94
:103D400080807F8080807F8080817F818081808172
:103D50007F8180807F8080807F7F807F7F7F807E6B
:103D6000807E7F7E807E7F7E807E807E807E7F7F65
:103D7000807F7F7F80807F8080807F8080807F8148
:103D800080817F81808080807F8080807F80808034
:103D90007F80808080807F80808080807F80808026
:103DA0007F80808080807F8080807F808080808016
:103DB0007F7F807F7F7F807F807F807F807F807F0D
:103DC000807F807F807F7F7F8080808080808080F8
:103DD0007F8080807F8080807F8080807F808080E7
:103DE000807F7F7F807F7F7F807F807F807F7F7FDE
:103DF000807F7F7F807F7F808080808080807F80C9
:103E000080817F8180807F8080808080807F807FB4
:103E1000807F7F7E807E7F7E807E7F7E807E7F7EB5
:103E2000807E7F7F807F807F808080808080808098
:103E30007F8080807F8080807F8080808080808085
:103E40007F8080807F8080807F8080807F80808076
:103E50007F8080807F8080807F8080807F80808066
:103E6000807F7F7F807F7F7F807E807E807E807E60
:103E70007F7E807F7F7F807F80807F8080807F814A
:103E800080817F8180817F81808180807F80807F31
:103E90007F7F7F7E807E7F7E807D7F7D807D807D39
:103EA000807D807E7F7E807E7F7F807F7F80808020
:103EB0007F81808180817F8180817F8180818081FD
:103EC0007F8180807F8080807F80808080808080F4
:103ED0007F8080807F8080807F807F80807F7F7FE9
:103EE000807F807F7F7F807F7F7E807E7F7E807EE1
:103EF0007F7F807F807F807F8080808080807F80C8
:103F000080817F8180817F81808180807F808080AF
:103F10007F7F807F807E7F7E807E7F7E807D7F7DB5
:103F2000807D807E7F7E807E7F7F807F7F8080809F
:103F30007F80808180817F8180827F82808280817A
:103F40007F8180818081808180807F8080807F7F71
:103F5000807F7F7F807F7F7F807F7F7F807F7F7F6D
:103F6000807F807F807F807F807F807F7F7F807F5A
:103F7000807F807F807F7F8080807F8080807F8047
:103F800080807F8080807F80807F807F7F7F807F38
:103F90007F7F807F807F807F807F807E807E807E2D
:103FA0007F7E807E807F7F7F807F7F7F808080801C
:103FB0007F8080817F8180817F81808280827F82FB
:103FC00080818081808180808080807F807F807FF1
:103FD000807E807E807E807E807E807E807E807EF1
:103FE000807F7F7F807F7F8080807F8080807F81D7
:103FF00080817F8180807F8080807F8080807F7FC4
:10400000807F7F7F807F7F7F807E807E7F7F807FBD
:104010007F7F807F7F7F807F7F7F807F807F807FAB
:104020007F7F807F7F7F807F7F7F808080807F8099
:1040300080807F8180817F8180817F8180817F817D
:1040400080817F8180817F808080807F7F7F807F73
:10405000807E7F7E807E7F7E807E7F7E807E7F7E74
:10406000807F807F7F8080807F81808180817F8151
:1040700080817F8180817F8080807F7F807F7F7F44
:10408000807E807E7F7E807E807E7F7E807E7F7E43
:10409000807E807F7F7F807F7F7F807F7F8080802A
:1040A00080807F8080807F8080817F8180817F8110
:1040B00080817F8180817F81808180817F818080FC
:1040C0007F8080807F80807F807F7F7F807E7F7EFB
:1040D000807E7F7E807E7F7E807E807E7F7F807FF1
:1040E0007F7F80807F8080817F81808180818081CF
:1040F0008081808180807F8080807F7F807F7F7FC4
:10410000807E807E7F7E807E7F7E807E7F7E807EC2
:104110007F7E807E807F7F7F80807F807F808081A8
:104120007F8180817F818081808180817F8180818A
:104130007F8180807F8080807F8080807F80807F83
:10414000807F807F807F7F7F807E7F7E7F7E807E7E
:104150007F7E807E807F807F807F808080807F8068
:1041600080817F8180817F8180817F8180817F804C
:1041700080807F80807F7F7F807F7F7E807E7F7E4C
:10418000807E7F7D807D7F7D807D7F7E807E7F7E47
:10419000807F807F7F8080807F8080817F81808121
:1041A00080827F8280827F8280817F8180817F8107
:1041B000808080807F80807F7F7F807F807E7F7E09
:1041C000807E7F7E807E7F7E807E807E7F7F807F00
:1041D000807F7F7F80807F8080807F8180817F81E2
:1041E00080817F8180817F80808080807F80807FD0
:1041F0007F7F807F7F7E807E7F7E807E7F7E807ED1
:10420000807E807E807E807E7F7E807F7F7F807FBD
:104210007F808080808180818081808180827F8298
:1042200080827F817F8180817F81808080807F7F8D
:10423000807F807F807F7F7E807E7F7E807E807E8D
:104240007F7E807E7F7E807F807F7F7F80807F807B
:10425000808080817F81808180817F8180817F815A
:1042600080817F8080807F80807F7F7F807F7F7E56
:10427000807E807E807E807E7F7E807E807E807E4F
:10428000807E7F7E807F7F7F807F80807F80808137
:104290007F8180817F8180817F8180818081808119
:1042A0008081808180807F8080807F7F807F807F11
:1042B000807E7F7E807E7F7E807E807E7F7E807E11
:1042C0007F7E807F7F7F80807F80808080817F81F4
:1042D00080817F81808180817F8180817F808080DB
:1042E0007F7F807F807F807E7F7E807E807D7F7DE0
:1042F000807D7F7D807D807E7F7E807E7F7F807FD2
:10430000807F7F8080807F8180817F8180817F81AD
:10431000808180817F8180817F8180817F8080809A
:1043200080807F7F807F7F7F807F7F7E7F7E807E9B
:104330007F7E807E7F7E7F7E807F7F7F807F7F7F8E
:1043400080807F8080807F8180817F8180817F816C
:1043500080818081808180808080807F807F807F5D
:10436000807E7F7E807E7F7D807D807D7F7D807D65
:10437000807E7F7E807E7F7F807F7F7F8080808049
:1043800080817F8180817F8180817F8180817F8129
:10439000808180817F80808080807F80807F7F801F
:1043A0008080808180837F8480867F8680867F86F0
:1043B00080847F8280807F7D807A80777F74807226
:1043C00080707F6F806E7F6F80717F7380767F7962
:1043D000807D808180847F87808A808C7F8D808EA5
:1043E0007F8E808D808C808A7F8880857F8380808F
:1043F0007F7E807C7F7A80797F7880787F788079F3
:104400007F7A807C807E7F8080827F8480857F87AA
:1044100080887F89808A7F8A808A808B7F8D808F49
:1044200080917F92809280917F8E808A7F85807E2E
:1044300080777F7080697F62805D7F59805680556C
:104440007F568059805E80647F6B80737F7C80851F
:104450007F8C7F9380997F9D809F80A07F9F809C91
:104460007F9880937F8D80877F80807A7F74806F34
:104470007F6B80687F67806780687F6B806F8073E9
:1044800080797F7E80847F89808E7F9280968098DD
:104490007F9A809A7F9B809C809D7F9D809C809945
:1044A0007F9680907F897F8280797F7080687F602F
:1044B000805A805580517F5080517F5480587F5E54
:1044C0008066806F7F7880827F8B8094809C7FA2C3
:1044D00080A67FA87FA980A77FA3809E7F978090DA
:1044E0008087807F8076806F80697F6480607F5F57
:1044F000805F80607F6480687F6E8075807C7F8352
:1045000080897F8F80957F99809C7F9E809F7FA0F0
:104510007FA080A07FA07F9E809B7F96808F8088D9
:10452000807F7F76806C7F63805B80557F50804D7D
:104530007F4C804D80517F56805D7F65806E7F7897
:104540008081808B7F93809B7FA280A780AA7FAB96
:1045500080AA7FA680A17F9B8093808A7F818078BC
:104560007F7080687F627F5E805C7F5B805C805F45
:1045700080648069807080787F7F80877F8E809460
:104580007F99809D7FA080A180A37FA380A47FA32B
:1045900080A27F9E80998093808B7F8180787F6EC0
:1045A00080647F5B80547F4F804C804A804C804F7A
:1045B0008054805B8064806D80777F81808A7F9368
:1045C000809B7FA180A77FAA80AC7FAC80AA7FA6BA
:1045D00080A07F9980908087807E80747F6C8065CA
:1045E0007F60805C7F5A805A7F5C80607F65806BD3
:1045F0008073807A8082808980908096809B809E64
:104600007FA180A380A480A67FA680A57FA2809D95
:104610007F97808E8085807B7F7080667F5C8054F2
:104620007F4E804A7F4880497F4C80517F58806010
:104630007F6A80747F7E80887F9180997FA080A62A
:104640007FAA80AC7FAD80AB7FA880A37F9C809445
:104650007F8C80827F7980707F6880627F5D805AE6
:1046600080597F5A805D7F618067806D8075807C16
:104670008084808B7F9280977F9B809F7FA280A584
:1046800080A780A880A780A580A17F9B80937F8939
:10469000807F80747F69805F7F56804F7F4A80482B
:1046A0007F47804A7F4E8055805D80667F71807B2A
:1046B0007F85808F7F98809F80A580A980AB7FAC0D
:1046C00080AB7FA980A57F9F809980917F88807F24
:1046D0008077806F80688062805E805C7F5B805DB9
:1046E0007F5F806480697F708077807E7F85808C2B
:1046F0007F9280977F9B809F7FA280A57FA780A8C5
:1047000080A77FA4809E7F97808E80837F78806D36
:104710007F6380597F51804C80487F4780487F4C21
:104720008052805A8063806E80788083808D8095EF
:10473000809D80A380A87FAA80AB7FAB80A97FA546
:1047400080A0809B7F94808C80847F7C8074806D2F
:104750007F67806380607F5E805E7F60806380674C
:104760007F6D80737F797F8080867F8C80917F963C
:10477000809A809F7FA280A57FA780A77FA580A029
:10478000809A7F918088807D807280677F5D805570
:10479000804E804A804880487F4B80517F5880619E
:1047A0007F6B8075807F7F8A80937F9B80A180A6AE
:1047B0007FA980AB7FAA80A87FA580A17F9B8095E1
:1047C0007F8E7F87807F7F7880727F6C80677F6439
:1047D00080627F6180627F6480677F6C80717F769A
:1047E000807C7F8280877F8C809180967F9A809F5B
:1047F0007FA280A57FA680A480A1809B8094808BCF
:1048000080818076806B80617F5980527F4D804AA5
:104810007F4A804C80508057805F806880727F7DA7
:1048200080877F9080987F9F80A47FA880AA80AA9D
:104830007FA880A580A0809B8095808E7F888081C6
:10484000807B807580707F6C8068806680657F6605
:1048500080677F69806D7F7180757F7A807F8084BB
:104860007F88808C80917F95809A7F9E80A17FA297
:1048700080A280A07F9B80957F8C808380797F6FD2
:1048800080657F5C80557F507F4D804D7F4E80528C
:104890007F58805F806880717F7B80857F8E809667
:1048A000809C80A280A680A880A880A780A480A0E9
:1048B000809A8094808E80888082807C80778073CC
:1048C000806F7F6C806A7F6980697F6A806C806F8F
:1048D000807280767F7A807E8082808580897F8DDD
:1048E000809180957F9A809D7F9F809F809E7F9AF8
:1048F0008094808D7F84807A7F7180687F5F80590B
:104900007F5380507F4F805180547F5980607F68F3
:104910008071807A7F83808C80937F9A809F7FA331
:1049200080A580A680A57FA3809F7F9A8094808E9B
:104930007F8880827F7C80787F7480717F6F806EBB
:10494000806D7F6E806E7F7080727F758078807BD7
:104950007F7E80817F84808680897F8D8091809515
:104960007F99809B7F9C809A80977F92808C7F84A8
:10497000807B80727F6A8062805B7F5680537F522B
:10498000805380567F5B80617F6980717F7A8083EE
:104990007F8B809280997F9E80A27FA480A57FA438
:1049A00080A17F9D80998093808C7F8680807F7B93
:1049B00080777F73807180707F7080707F7180736B
:1049C0007F7580777F7A807C807F7F8180837F8501
:1049D000808680897F8C808F80927F95809780975A
:1049E0007F9580917F8C8085807D7F75806D7F65D0
:1049F000805F7F5A80577F5580567F58805D8063E7
:104A00007F6A80727F7A7F82808A7F9280987F9D82
:104A10007FA080A27FA280A17F9E809A80958090B7
:104A2000808A7F83807D7F7880747F7180707F70C3
:104A300080717F7380767F79807C7F7F80827F84A6
:104A4000808680877F88808880897F89808B808D21
:104A50007F8F80907F91808F808C80877F81807B0B
:104A60007F73806C80667F60805C7F5980587F593F
:104A7000805C7F6180677F6E80757F7D80857F8CA5
:104A800080937F98809C809F7FA0809F7F9D809A4D
:104A90007F968090808B7F85807F7F7A80757F7204
:104AA000806F806F807080728076807A7F7E808356
:104AB0007F86808A7F8C7F8D808E7F8D808C7F8BA0
:104AC000808B7F8B808C7F8C808C7F8B8088808399
:104AD0007F7E807880717F6A80647F5F805B805991
:104AE0008059805A805E8063806980708078808081
:104AF0007F88808F7F958099809D809E809F809DFC
:104B00007F9B809780927F8C80877F81807B7F775F
:104B100080738070806F806F807180747F78807DFB
:104B20007F828087808C7F8F80927F93809280911C
:104B3000808F7F8D808C7F8B808B808A7F88808523
:104B40007F81807C80767F707F6980637F5E805B01
:104B500080597F59805A7F5E8063806A80717F7937
:104B600080817F8980907F96809A7F9D809E7F9EA6
:104B7000809C80997F94808F7F8980837F7E8079DD
:104B80007F7480717F70806F80707F7280757F7A94
:104B9000807F7F85808B7F9080937F9680977F96A4
:104BA00080948091808F808D7F8C808A80888085A2
:104BB00080817F7C80757F6F80687F62805D7F5998
:104BC00080577F578059805D7F6280697F71807ACE
:104BD0007F82808A7F9180977F9B809D7F9E809E31
:104BE0007F9B809780937F8D80877F81807B7F767E
:104BF00080727F70806F806F7F7180747F77807C20
:104C00007F828088808D7F9280967F99809980981E
:104C10007F96809380907F8E808C7F8A8087808330
:104C2000807D8077807080697F63805D7F5880564B
:104C300080557F56805A805F7F66806F80777F8047
:104C4000808980907F96809B809E7F9F809E7F9CA6
:104C500080987F93808C7F86807F7F7A80757F713C
:104C6000806F7F6E806F7F7180747F79807D7F839E
:104C700080887F8E80937F97809A809A809A809791
:104C800080947F91808E808B80878084807F7F79E5
:104C900080737F6D80677F61805D7F5A80597F5A06
:104CA000805D80618067806E8075807D8084808B70
:104CB0007F9180958098809A80997F9880957F9148
:104CC000808D7F888082807E7F7980767F748072FD
:104CD00080727F7480767F78807C80807F838088FC
:104CE0007F8C808F80927F9480957F948091808F3D
:104CF0007F8C80897F86808380807F7D80787F74B1
:104D000080707F6C80687F6680647F648065806867
:104D10007F6B80707F75807A7F8080857F89808DB2
:104D20007F9080927F92809280917F8E808B7F880F
:104D3000808480817F7D807A7F7880777F7680779E
:104D40007F7880797F7B807E80807F8380867F896B
:104D50007F8B808D808E808E808D808B7F898087F9
:104D600080857F838081807F7F7D807A7F7780745C
:104D70007F7280707F6E806E806E806F7F718073B7
:104D80007F7680797F7D80807F83808680887F8A20
:104D9000808B7F8B808B7F8A80897F8780848082D5
:104DA0007F80807E7F7C807B807A807A7F7A807B28
:104DB0007F7C807D7F7F80807F8280847F858087ED
:104DC0007F8880887F8880887F8680857F848082B6
:104DD0007F818080807E7F7D807B7F7A80797F77F6
:104DE00080767F76807580767F7680777F79807B0E
:104DF0007F7D807F7F8080827F8480857F868086A4
:104E00007F86808680858084808380828081808088
:104E1000807F807E807D7F7D807D7F7D807E7F7EA8
:104E20007F7F80807F8080817F8280838084808478
:104E3000808480847F8380837F8280817F80807F65
:104E40007F7E807E7F7D807D7F7C807B807B807B82
:104E50007F7B807B7F7B807C7F7D7F7D807E7F7F73
:104E600080807F8180817F8280827F828082808239
:104E70007F8280827F8180817F807F80807F7F7F33
:104E8000807F807F7F7F807F807F7F7F80807F802B
:104E900080807F8180817F8180817F8280827F810D
:104EA00080818081808080807F7F807F7F7E807E08
:104EB000807E7F7E807E7F7E7F7E807E7F7E807E06
:104EC0007F7E807F7F7F807F7F80808080808080EA
:104ED0007F8180817F8180817F8180807F808080D1
:104EE000808080807F7F807F7F7F807F807F7F7FCB
:104EF000807F7F7F807F807F7F8080807F808080B9
:104F00007F8080807F8080807F8080807F808080A5
:104F10007F8080807F7F807F807F7F7F807F807F9A
:104F20007F7F807F7F7F807F7F7F807F7F7F807F8D
:104F30007F7F80807F80808080807F808080808075
:104F40007F80808080807F8080807F808080808064
:104F50007F8080807F8080807F8080807F80808055
:104F60007F8080807F8080807F8080807F80808045
:104F70007F80807F7F7F807F7F7F807F807F7F7F3C
:104F8000807F7F7F807F807F807F807F807F808029
:104F90008080808080807F8080807F8080807F8014
:104FA00080807F80808080807F80807F807F7F7F07
:104FB000807F7F7F807F7F7F807F7F7F807F7F7FFD
:104FC00080807F8080807F80808080807F808080E4
:104FD00080807F8080807F80808080807F808080D4
:104FE0007F81808080807F8080807F80807F807FC5
:104FF0007F7E807E7F7E807D7F7D807D7F7D807DCA
:105000007F7E807E7F7E807F7F7F808080807F80AC
:10501000808180817F81808180817F81808180818A
:105020007F8080807F80807F807F7F7F807E807E8A
:105030007F7E807E807E7F7E807F807F807F807F7E
:105040007F8080807F8080817F818081808180815E
:105050007F8180817F81808180817F81808180814B
:1050600080807F80807F7F7F807E807E7F7E807D4E
:105070007F7D807D7F7D807D7F7D807E7F7E807E49
:105080007F7F807F80807F80808180817F81808220
:105090007F8280827F81808180817F8080807F800D
:1050A000807F807F807E7F7E807E7F7E807E7F7E11
:1050B000807E7F7E807F7F7F807F7F8080808080FA
:1050C000808180817F81808180817F8180817F81DB
:1050D000808180817F8180817F8080807F80807FD0
:1050E000807F7F7E807E7F7D807D807D7F7D807DD7
:1050F000807D7F7D807D807E7F7E807F7F7F8080C2
:1051000080807F8180817F8280827F8280827F8297
:10511000808180817F8180807F80807F807F7F7E93
:10512000807E7F7E807E7F7D807E7F7E807E807E93
:105130007F7F807F807F80808080808180817F8171
:1051400080817F81808180827F8280828082808155
:105150008081808180808080807F7F7F807E7F7E55
:10516000807D7F7D807D7F7C807C7F7D807D7F7D5D
:105170007F7E807E7F7F807F7F80808080817F8137
:1051800080827F827F8280827F8280827F81808115
:105190007F8180807F7F807F807E807E807E7F7E1B
:1051A000807D7F7D807D807E7F7E807E7F7F807F13
:1051B000808080807F80808180817F8180817F81ED
:1051C00080827F8280827F828082808180818080D5
:1051D00080807F7F807F7F7E807E807D7F7D807DE1
:1051E0007F7C807C807C7F7D807D7F7D807E7F7FDB
:1051F000807F7F807F8080817F8180827F828082AC
:105200007F8280827F8280827F8180817F80808098
:105210007F7F807F807E7F7E807E7F7D807D7F7DA3
:10522000807D807E7F7E807E7F7F807F7F8080808C
:105230007F808081808180817F8180827F82808267
:1052400080827F8280817F81808180807F80807F5B
:105250007F7E807E7F7D807D7F7D807C7F7C807C6B
:10526000807D7F7D807D7F7E807E7F7F80807F8050
:10527000808180817F8180827F8280827F82808224
:105280007F8280817F8180817F8080807F7F807F1F
:105290007F7E807E7F7E807E7F7D807E807E7F7E23
:1052A000807E7F7F807F807F80807F8080807F8105
:1052B000808180817F8180827F8280827F828082E4
:1052C0007F8180817F8080807F7F807F807E7F7DE7
:1052D000807D7F7D807C7F7C807C7F7C807D7F7DEE
:1052E000807E807E7F7F807F7F8080817F818081C4
:1052F0007F8280827F8280827F8280827F818081A4
:105300007F8180807F80807F807F7F7E807E7F7EA8
:10531000807E7F7E807E807E7F7E807E7F7E807F9F
:10532000807F807F7F8080807F80808180817F817F
:1053300080817F82808280827F8280817F81808164
:1053400080807F7F807F807E7F7E807D7F7D807C70
:105350007F7C807C807C807D7F7D807D7F7E807F68
:105360007F7F80808080808180817F8280827F8239
:1053700080827F8280827F81808180817F80808027
:1053800080807F7F807F7F7E807E7F7E807E807E2C
:10539000807E807E807E7F7E807F807F7F7F80801A
:1053A0007F8080807F8080817F81808180817F82FB
:1053B00080827F8280817F81808180807F80807FEA
:1053C000807F7F7E807D7F7D807D807C7F7C807CF8
:1053D0007F7D807D7F7D807E807E7F7F80807F80DF
:1053E0008081808180827F8280827F8280827F82B2
:1053F00080817F8180817F8080807F80807F7F7FB0
:10540000807F7F7E807E7F7E807E7F7E807E807EAE
:10541000807E7F7F807F7F7F807F80807F80808095
:105420007F8080817F8180817F81808280827F8177
:1054300080817F8180808080807F7F7F807E7F7E73
:10544000807D7F7D7F7D807D7F7D807D7F7D807D78
:105450007F7E807E807F80807F8080817F81808151
:105460007F8280827F8280827F8280817F81808133
:105470007F8080807F80807F7F7F807F807F7F7E36
:10548000807E7F7E807E7F7E807E7F7E807F807F2D
:105490007F7F807F7F808080808080807F80808110
:1054A00080817F8180817F8180817F8180817F80F9
:1054B0008080807F807F7F7E807E7F7D807D807DFD
:1054C0007F7D807D7F7D807D807D7F7E807E7F7FF4
:1054D000807F80807F8080817F8180827F828082C8
:1054E00080827F8280817F8180817F8080808080B8
:1054F000807F7F7F807F7F7F807F807E7F7E807EBA
:10550000807F807F7F7F80807F84808C7F96809C5F
:105510007F9D80977F8B807B806A7F5C80538051EA
:105520007F55805F7F6A80757F7E80837F848082E5
:10553000807F807B807A807C7F82808C7F9780A137
:105540007FA780A780A07F938083807280647F5C28
:10555000805A7F60806E7F8280967FA780B27FB501
:1055600080B17FA680967F84807280637F5880514F
:105570007F4F7F5180567F5C80637F6B80747F7D1F
:1055800080877F92809D7FAB80BC7FCD80D880D686
:1055900080C67FA580797F4B80257F0C8006801494
:1055A0007F3480607F8C80B080C77FCE80C77FB320
:1055B00080967F77805E804F804B805080598062DC
:1055C0008069806C806B80698067806A807280806F
:1055D00080917FA480B57FC080C580C07FB3809E4E
:1055E0007F857F6A80537F4580417F4A805D8075DB
:1055F000808E7FA380B17FB87FB680AD7F9D808A8B
:105600007F777F66805B7F5B806680767F84808A21
:105610008086807A806A7F5C805480578065807A3B
:10562000809480AB80BB80BF7FB880A47F8680657C
:105630007F4B7F3D803E7F4D80657F81809B7FAE2D
:1056400080B980BA80B280A17F8C80757F608050E5
:105650007F4780457F4A80547F6280717F80808E43
:1056600080997FA180A67FA780A780A47FA0809A31
:1056700080937F8A80817F77806D7F658061806382
:10568000806A80767F8880A17FBA80CD7FD380C9F1
:1056900080AF7F88805B80327F1580077F09801B09
:1056A00080387F5C807E7F9980AB80B380B480AF90
:1056B00080A67F9B808F7F85807F807B807A8079AA
:1056C00080797F7780737F70806F7F718076807E36
:1056D0007F8980947F9E80A680AA7FA880A08092E8
:1056E000807F806A80557F45803C7F3C80457F5726
:1056F000806E7F87809F7FB080BB7FBE80BA7FAF88
:10570000809F7F8F80867F858089808C8088807C49
:10571000806C7F5A804C7F477F4B805A7F71808B93
:1057200080A47FB580BD7FB980AC7F9480768055A2
:105730007F378023801C7F24803A805B7F7F80A11D
:105740007FBA80C87FCC80C47FB3809C7F83806D0C
:10575000805F7F59805C7F6580717F7F808C7F97C1
:10576000809D80A07F9F809C80977F9380907F8D7D
:10577000808A7F85807D7F7380667F59804D8047DA
:105780007F4780537F6C808D80AD80C47FCC80C686
:105790007FB2809480727F558041803B7F418052F0
:1057A0007F687F7F80947FA480AC80AA7FA0809058
:1057B0007F8080727F6C806D7F758080808A808F13
:1057C000808C80818070805D804C80428041804BE5
:1057D0008060807C80997FB280C37FCB80C87FBA95
:1057E00080A47F88806D7F58804C7F4A8052806281
:1057F0007F78808F7FA380B080B580B380A9809BA5
:10580000808E7F88808A80907F93808E7F7F806764
:10581000804B7F3280217F1D8027804080637F8B7B
:1058200080AF7FCB80D87FD680C47FA4807C7F561A
:10583000803A802D7F3180457F6380867FA580BB45
:105840007FC680C580B87FA280897F7380637F5DBB
:10585000805F80688073807D7F848084807F807695
:10586000806B80637F6180657F7180827F9580A57A
:1058700080B080B47FB080A47F92807D7F6B805E9B
:105880007F5C806A7F8480A07FB580BD7FB780A366
:10589000808680667F4B803C7F3A80467F5D807A41
:1058A0007F9380A280A47F9880827F66804E7F3E17
:1058B000803D804A7F6380827FA080B680C280C1A5
:1058C00080B4809D7F80806480508047804C7F5C66
:1058D00080757F9080A880B77FBD80B880A97F94B5
:1058E000807D7F69805C7F58805D7F6880767F8463
:1058F000808D80917F8F80887F7E80757F6F8070A4
:105900007F7C80927FAA80BB7FC080B67F9D807B9A
:105910007F5680397F2980297F3C805E808680A9E0
:1059200080C07FC780BE7FA780867F6480487F3924
:1059300080397F4780607F7C80957FA580AB80A683
:1059400080988084806F80607F5A805F7F6C807FCA
:105950007F9380A37FAD80AF7FA780997F86807380
:105960007F64805D7F60806A807A7F8C809B7FA56A
:1059700080A87FA380977F8780777F6A8062806618
:105980008076808E7FA480B07FAF809F7F8480648C
:105990007F4680348030803E7F5A807D7F9C80B2FD
:1059A0007FB980B37F9F80837F65804C7F4080413B
:1059B0008051806A7F8680A07FB180B87FB480A547
:1059C0007F8F807780637F5680557F5C806C807F7F
:1059D0007F91809E80A57FA3809A7F8C807D807040
:1059E0007F6880677F6C807880857F92809B7F9EB8
:1059F000809C7F9480887F7C80717F6B806D7F79B5
:105A0000808F7FA680B67FB980AE809480727F50F1
:105A100080367F2B803280487F67808880A17FAF6F
:105A200080AF7FA3808C8072805B804C80488051E7
:105A30007F64807C7F9380A57FAE80AE80A48093BE
:105A4000807F806D7F60805C7F61806E7F7F8090D3
:105A50007F9D80A57FA5809D7F91808180737F69D8
:105A600080657F677F70807C7F8980937F99809A33
:105A70008096808D80827F77806F806D80737F8538
:105A8000809B7FAE80B780B27F9F8081805F7F42A6
:105A9000803280327F42805D7F7C80977FA980AE9C
:105AA0007FA680957F7D80657F53804B804E7F5C95
:105AB00080717F88809B80A87FAC80A77F9A808838
:105AC0008076806780607F61806A7F7880887F963B
:105AD000809F7FA3809F80957F88807A7F6F806979
