:020000040800F2
:100000001856012061050008BD050008BD0500085F
:10001000BD050008BD050008BD0500080000000082
:10002000000000000000000000000000BD05000806
:10003000BD05000800000000BD050008BD05000862
:10004000BD050008BD050008BD050008BD05000888
:10005000BD050008BD050008BD050008BD05000878
:10006000BD050008BD050008BD050008BD05000868
:10007000BD050008BD050008BD050008BD05000858
:10008000BD050008BD050008BD050008BD05000848
:10009000BD050008BD050008BD050008BD05000838
:1000A000BD050008BD050008BD050008BD05000828
:1000B000BD050008C10800085D090008BD0500086D
:1000C000BD050008BD050008BD050008BD05000808
:1000D000BD050008BD050008BD05000809070008AA
:1000E000BD050008BD050008BD050008BD050008E8
:1000F000BD050008BD050008BD050008BD050008D8
:10010000BD050008BD050008BD050008BD050008C7
:10011000BD050008BD050008BD050008BD050008B7
:10012000BD050008BD050008BD050008BD050008A7
:10013000BD050008BD050008BD050008BD05000897
:10014000BD050008BD050008BD050008BD05000887
:10015000BD050008BD050008BD050008BD05000877
:10016000BD050008BD050008BD050008BD05000867
:10017000BD050008BD050008BD050008BD05000857
:10018000BD050008BD05000880B58AB000AF7860E5
:10019000396000237B6200233B620023FB61002364
:1001A000BB617B681B8A9BB27B627B6A23F44053F2
:1001B0007B623B68DB881A467B6A13437B627B6AFF
:1001C0009AB27B681A827B689B899BB27B627B6A4E
:1001D00023F4B05323F00C037B623B689A883B689E
:1001E0001B8913439AB23B685B8913439BB21A463F
:1001F0007B6A13437B627B6A9AB27B689A817B68D5
:100200009B8A9BB27B627B6A23F440737B623B6870
:100210009B891A467B6A13437B627B6A9AB27B682E
:100220009A8207F10803184600F08EFC7B68304A7A
:10023000934203D07B682F4A934202D17B693B6291
:1002400001E03B693B627B689B899BB21BB2002B40
:100250000CDA3A6A13469B0013449A001A443B682E
:100260001B685B00B2FBF3F3FB610BE03A6A1346D9
:100270009B0013449A001A443B681B689B00B2FB26
:10028000F3F3FB61FB691C4AA2FB03235B091B011F
:100290007B627B6A1B09642202FB03F3FA69D31AAF
:1002A000BB617B689B899BB21BB2002B0CDABB69DC
:1002B000DB003233104AA2FB03235B0903F0070380
:1002C0007A6A13437B620BE0BB691B0132330A4A33
:1002D000A2FB03235B0903F00F037A6A13437B62DB
:1002E0007B6A9AB27B681A8100BF2837BD4680BD01
:1002F00000100140001401401F85EB5180B483B011
:1003000000AF78600B46FB70FB78002B08D07B6851
:100310009B899BB243F400539AB27B689A8107E0B1
:100320007B689B899BB223F400539AB27B689A81C5
:1003300000BF0C37BD4680BC704700BF80B487B09B
:1003400000AF78600B467B8013467B7000233B61D7
:100350000023FB600023BB6000237B617B687B6123
:100360007B88DBB25B09DBB23B617B8803F01F0358
:10037000FB600122FB6802FA03F3BB603B69012BBF
:1003800003D17B690C337B6109E03B69022B03D10C
:100390007B6910337B6102E07B6914337B617B787E
:1003A000002B06D07B697A691168BA680A431A6023
:1003B00006E07B697A691168BA68D2430A401A601C
:1003C00000BF1C37BD4680BC704700BF80B487B0FB
:1003D00000AF78600B467B800023FB6000237B61CD
:1003E0000023BB600023FB747B88DBB25B09DBB2BC
:1003F000BB607B8803F01F037B6101227B6902FAEB
:1004000003F37B61BB68012B07D17B689B899BB29F
:100410001A467B6913407B6111E0BB68022B07D150
:100420007B681B8A9BB21A467B6913407B6106E09E
:100430007B689B8A9BB21A467B6913407B617B88F1
:100440001B0A9BB2FB600122FB6802FA03F3FB600C
:100450007B681B889BB21A46FB681340FB607B6974
:10046000002B05D0FB68002B02D00123FB7401E0B8
:100470000023FB74FB7C18461C37BD4680BC7047CC
:1004800080B485B000AF786039600023FB60002342
:10049000BB60134B1B68FB6040F6FE727B6802FA80
:1004A00003F3DB43FA681340FB603B681A683B6860
:1004B0005B681A433B689B681A433B68DB681343DD
:1004C000BB60BA687B6802FA03F3FA681343FB6007
:1004D000034AFB68136000BF1437BD4680BC7047F9
:1004E0000074004080B483B000AF78600B46FB70AE
:1004F000FB78002B09D00C490B4B1A6801207B6854
:1005000000FA03F313430B6009E00749064B1A682E
:1005100001207B6800FA03F3DB4313400B6000BF4C
:100520000C37BD4680BC70470074004080B485B075
:1005300000AF78600B467B800023FB60074BFB60BD
:10054000FA687B6813440833FB60FB681A467B88B3
:10055000136000BF1437BD4680BC70470074004074
:1005600080B582B000AF104B7B60104B3B6007E062
:100570003B681A1D3A607A68111D796012681A602A
:100580003B680B4A9342F3D30A480B494FF00002F1
:100590008842B8BF40F8042BFADB00F0B7FA00BF7E
:1005A0000837BD4680BD00BF48200008000000207D
:1005B0001000002010000020184E012080B400AF71
:1005C000FEE700BF80B483B000AF0346FB7108496B
:1005D00097F907305B09FA7902F01F02012000FA4F
:1005E00002F241F8232000BF0C37BD4680BC7047A3
:1005F00000E100E080B500AF0121012000F04EFBDA
:100600000121022000F04AFB0121042000F046FBFA
:100610000121082000F042FB0121102000F03EFBE8
:1006200001214FF4802000F057FB0121022000F04F
:1006300053FB0121042000F04FFB01214FF4807097
:1006400000F068FB01214FF0005000F045FB00BFB7
:1006500080BD00BF80B586B000AF4FF440633B6102
:1006600002233B750023BB750123FB7502237B75B9
:1006700007F110031946134800F0CCFC07220A21A9
:10068000104800F071FD07220B210E4800F06CFDB0
:100690004FF416533B600023BB800023FB800023F4
:1006A0003B810023BB810C237B813B4619460648D6
:1006B000FFF76AFD01210448FFF720FE00BF18374D
:1006C000BD4680BD000802400048004080B582B0B1
:1006D00000AF012240F225510A48FFF72FFE2723E1
:1006E0003B7100237B710023BB710123FB713B1D18
:1006F000184600F03BFE2720FFF764FF00BF0837D5
:10070000BD4680BD0048004080B500AF40F2255195
:100710003848FFF75BFE0346002B69D0354B9B88BA
:100720009BB2772B1DD14FF40051334800F000FDF0
:100730004FF48051304800F0FBFC4FF400612E482C
:1007400000F004FD2D4B13225A6320212A4800F0AB
:10075000EFFC1021284800F0F9FC284B15229A6381
:1007600046E0244B9B889BB2732B0BD14FF4005176
:10077000214800F0DDFC214B00225A631F4B002270
:100780009A6335E01B4B9B889BB2612B15D14FF4CC
:100790000051194800F0CCFC4FF48051164800F08D
:1007A000C7FC4FF40061144800F0D0FC134B132237
:1007B0005A63124B00229A631AE00E4B9B889BB23D
:1007C000642B13D14FF400510B4800F0B1FC0B4BDC
:1007D00000225A632021084800F0AAFC1021064894
:1007E00000F0B4FC054B13229A6301E0014B9B8897
:1007F00000BF80BD004800400004024000080040E7
:1008000080B586B000AF786039607B683B613B683B
:100810009BB2BB810023BB821023FB8107F10C0339
:100820001946054800F002FE0121034800F068FE69
:1008300000BF1837BD4680BD0004004080B586B0BB
:1008400000AF786039607B683B613B689BB2BB81DD
:100850000023BB821023FB8107F10C0319460548D6
:1008600000F0E4FD0121034800F04AFE00BF183704
:10087000BD4680BD0008004080B582B000AF4FF497
:10088000C06000F061FD1D233B7100237B710023DC
:10089000BB710123FB713B1D184600F067FD012170
:1008A000054800F0D7FF01220121034800F084FF32
:1008B00000BF0837BD4680BD0004004000000000B6
:1008C00098B500AF0121204800F09AFF0346002BA5
:1008D00033D01E4B1B681E4AD356184601F01CF934
:1008E0001C4BD3E900341A46234601F07BF903463A
:1008F0000C461846214612A3D3E9002301F09CFAC6
:1009000003460C461846214601F07EFB03469BB287
:1009100019460020FFF70AFE0C4B1B680E4A934253
:1009200002D10A4B00221A60084B1B680133074AA8
:1009300013600121044800F08DFF00BF98BD00BF87
:100940000000000000FEAF40000400401000002046
:1009500018000020104E0120F24D010080B500AFBC
:100960000121064800F04CFF0346002B03D0012173
:10097000024800F06FFF00BF80BD00BF00080040CC
:1009800080B58CB000AF0223BB62032387F82C3004
:10099000002387F82F3007F128031946184800F084
:1009A00039FB0023BB610023FB6100233B62002372
:1009B0007B6207F11803184600F01EFA00233B6023
:1009C00000233B7101237B710023FB600023BB608C
:1009D00000233B6101233B753B461946094800F063
:1009E000B7F9042301220121064800F049FA012148
:1009F000044800F029FA00BF3037BD4680BD00BF73
:100A0000000002400020014080B586B000AF1023F6
:100A10003B6103233B7503237B750023FB7507F1C3
:100A2000100319460B4800F0F5FA00233B60002341
:100A30007B600023BB600023FB603B46194600201F
:100A4000FFF71EFD01210020FFF74CFD00BF183706
:100A5000BD4680BD0000024080B588B000AF4FF4B5
:100A60004053BB610023BB7703237B770023FB77D5
:100A700002220C21164800F077FB02220D211448B7
:100A800000F072FB02233B7707F118031946104868
:100A900000F0C0FA6023BB800123FB800023FB60D1
:100AA00000233B823B1D19460A4800F049FD0821FE
:100AB000084800F047FE3B1D1946064800F0BAFD05
:100AC0000821044800F05AFE00BF2037BD4680BD13
:100AD000000C02400008004080B582B000AF43F631
:100AE00030033B6001233B710023BB7103237B7107
:100AF0000023FB713B461946034800F08BFA00BF08
:100B00000837BD4680BD00BF0004024080B500AF7D
:100B100000F072FBFFF76EFDFFF79CFDFFF7D6FDBF
:100B2000FFF7DAFF15215420FFF76AFEFFF7A4FE56
:100B300022212720FFF782FEFFF722FFFFF764FF45
:100B4000FFF78AFFFEE700BF80B489B000AF78608E
:100B50000023BB6100237B610023FB6102233B6117
:100B60000023FB600223BB60484B9B6803F00C032F
:100B7000BB61BB69042B07D0082B09D0002B3FD1E8
:100B80007B68434A1A603FE07B68424A1A603BE058
:100B90003E4B5B6803F480039B0DFB603B4B5B6843
:100BA00003F03F03BB60FB68002B0DD0394ABB68E4
:100BB000B2FBF3F2354B596847F6C0730B409B0903
:100BC00003FB02F3FB610CE0314ABB68B2FBF3F2BA
:100BD0002E4B596847F6C0730B409B0903FB02F389
:100BE000FB612A4B5B6803F440331B0C01335B0051
:100BF0003B61FA693B69B2FBF3F27B681A6003E080
:100C00007B68234A1A6000BF204B9B6803F0F00307
:100C1000BB61BB691B09BB611F4ABB6913441B78DD
:100C2000DBB27B617B681A687B69DA407B685A605B
:100C3000164B9B6803F4E053BB61BB699B0ABB6125
:100C4000154ABB6913441B78DBB27B617B685A6829
:100C50007B69DA407B689A600C4B9B6803F46043C5
:100C6000BB61BB695B0BBB610B4ABB6913441B785F
:100C7000DBB27B617B685A687B69DA407B68DA604B
:100C800000BF2437BD4680BC704700BF003802401B
:100C90000024F40000127A000000002080B483B029
:100CA00000AF78600B46FB70FB78002B06D009493B
:100CB000084B1A6B7B6813430B6306E00549054B31
:100CC0001A6B7B68DB4313400B6300BF0C37BD46D8
:100CD00080BC70470038024080B483B000AF7860B9
:100CE0000B46FB70FB78002B06D00949084B1A6CA9
:100CF0007B6813430B6406E00549054B1A6C7B685F
:100D0000DB4313400B6400BF0C37BD4680BC70470B
:100D10000038024080B483B000AF78600B46FB70AF
:100D2000FB78002B06D00949084B5A6C7B681343AB
:100D30004B6406E00549054B5A6C7B68DB43134066
:100D40004B6400BF0C37BD4680BC70470038024082
:100D500080B485B000AF786039600023FB60002369
:100D6000FB727B685B68FB60FB6823F0407323F4D5
:100D70008073FB603B681B791A023B681B68134356
:100D8000FA681343FB607B68FA685A607B689B686B
:100D9000FB60FA68174B1340FB603B681A693B68BD
:100DA000DB681A433B689B681A433B685B795B00CE
:100DB0001343FA681343FB607B68FA689A607B68A8
:100DC000DB6AFB60FB6823F47003FB603B681B7D00
:100DD000013BDAB2FB7A1343FB72FB7A1B05FA681C
:100DE0001343FB607B68FA68DA6200BF1437BD46C4
:100DF00080BC7047FDF7FFC080B485B000AF78605D
:100E00000023FB600E4B5B68FB60FA680D4B1340E0
:100E1000FB607B681A687B685B681A437B689B6829
:100E20001A437B68DB681343FA681343FB60044A88
:100E3000FB68536000BF1437BD4680BC704700BFDD
:100E400000230140E030FCFF80B483B000AF786045
:100E50000B46FB70FB78002B06D07B689B6843F049
:100E600001027B689A6005E07B689B6823F00102C1
:100E70007B689A6000BF0C37BD4680BC704700BFDE
:100E800080B485B000AF7860084611461A46034624
:100E9000FB700B46BB7013467B700023FB60002386
:100EA000BB60FB78092B23D97B68DB68FB60FB7890
:100EB000A3F10A0213465B001344072202FA03F36C
:100EC000BB60BB68DB43FA681340FB607978FB7852
:100ED000A3F10A0213465B00134401FA03F3BB605B
:100EE000FA68BB681343FB607B68FA68DA601EE04F
:100EF0007B681B69FB60FA7813465B00134407228A
:100F000002FA03F3BB60BB68DB43FA681340FB6083
:100F10007978FA7813465B00134401FA03F3BB6057
:100F2000FA68BB681343FB607B68FA681A61BB7898
:100F3000062B21D87B685B6BFB60BB785A1E13467F
:100F40009B0013441F2202FA03F3BB60BB68DB4320
:100F5000FA681340FB60F978BB785A1E13469B0071
:100F6000134401FA03F3BB60FA68BB681343FB60E8
:100F70007B68FA685A6347E0BB780C2B21D87B6802
:100F80001B6BFB60BB78DA1F13469B0013441F22C8
:100F900002FA03F3BB60BB68DB43FA681340FB60F3
:100FA000F978BB78DA1F13469B00134401FA03F368
:100FB000BB60FA68BB681343FB607B68FA681A631E
:100FC00022E07B68DB6AFB60BB78A3F10D0213466D
:100FD0009B0013441F2202FA03F3BB60BB68DB4390
:100FE000FA681340FB60F978BB78A3F10D02134651
:100FF0009B00134401FA03F3BB60FA68BB68134318
:10100000FB607B68FA68DA6200BF1437BD4680BCBB
:10101000704700BF80B487B000AF786039600023AC
:101020007B6100233B610023FB6000237B6176E052
:1010300001227B6902FA03F33B613B681A683B6952
:101040001340FB60FA683B699A4265D17B681A6875
:101050007B695B00032101FA03F3DB431A407B68E1
:101060001A607B681A683B681B7919467B695B00CC
:1010700001FA03F31A437B681A603B681B79012B62
:1010800003D03B681B79022B2ED17B689A687B6961
:101090005B00032101FA03F3DB431A407B689A608B
:1010A0007B689A683B685B7919467B695B0001FA4B
:1010B00003F31A437B689A607B685A687B699BB22A
:1010C000194601238B40DB431A407B685A607B68DA
:1010D0005B683A68927911467A6992B201FA02F233
:1010E00092B21A437B685A607B68DA687B699BB26C
:1010F0005B00032101FA03F3DB431A407B68DA60EB
:101100007B68DA683B68DB7919467B695B0001FA2A
:1011100003F31A437B68DA607B6901337B617B6987
:101120000F2B85D900BF1C37BD4680BC704700BF60
:1011300080B483B000AF78600B467B807B687A8890
:101140001A8300BF0C37BD4680BC704780B483B0A3
:1011500000AF78600B467B807B687A885A8300BF3B
:101160000C37BD4680BC704780B485B000AF786056
:101170000B467B8013467B700023FB600023BB6023
:101180007A787B8803F007039B0002FA03F3FB6085
:101190007B88DB089BB218467B88DB089BB21A462B
:1011A0007B68083253F822207B8803F007039B00FA
:1011B0000F2101FA03F3DB4302EA03017B6800F12C
:1011C000080243F822107B88DB089BB21A467B6832
:1011D000083253F82220FB681343BB607B88DB088E
:1011E0009BB21A467B680832B96843F8221000BFE8
:1011F0001437BD4680BC704780B500AF124A124B11
:101200001B6843F0010313600F4B00229A600E4AE3
:101210000D4B1B6823F0847323F4803313600A4B57
:101220000A4A5A60084A084B1B6823F4802313605B
:10123000054B0022DA6000F00DF8054B4FF000621C
:101240009A6000BF80BD00BF00380240103000240B
:1012500000ED00E080B483B000AF00237B6000238A
:101260003B60354A344B1B6843F480331360324B88
:101270001B6803F400333B607B6801337B603B6891
:10128000002B03D17B68B3F5A06FF0D12A4B1B680C
:1012900003F40033002B02D001233B6001E0002364
:1012A0003B603B68012B42D1234A234B1B6C43F02C
:1012B00080531364214A214B1B6843F4804313601D
:1012C0001D4A1D4B9B6893601B4A1B4B9B6843F454
:1012D00000439360184A184B9B6843F4A0539360F3
:1012E000154B174A5A60144A134B1B6843F080731E
:1012F000136000BF104B1B6803F00073002BF9D084
:10130000104B40F205621A600B4A0B4B9B6823F0AE
:1013100003039360084A084B9B6843F00203936001
:1013200000BF054B9B6803F00C03082BF9D100BFED
:101330000C37BD4680BC704700380240007000404A
:1013400008544007003C024080B483B000AF78608E
:10135000054A7B6843F0BF6343F40033D36000BFAA
:101360000C37BD4680BC704700ED00E080B485B00E
:1013700000AF78600023FB730023BB730F237B73E4
:101380007B68DB78002B38D0264BDB68DB4303F42B
:10139000E0631B0AFB73FB7BC3F10403BB737A7B23
:1013A000FB7B42FA03F37B737B685B781A46BB7B5B
:1013B00002FA03F3FB737B689A787B7B1340DAB203
:1013C000FB7B1343FB73FB7B1B01FB73164A7B68A0
:1013D0001B781344FA7B83F80023134A7B681B783D
:1013E0005B09DBB218467B681B7803F01F03012101
:1013F00001FA03F342F820300FE00B497B681B78B9
:101400005B09DBB218467B681B7803F01F030122DF
:101410009A4000F1200341F8232000BF1437BD4655
:1014200080BC704700ED00E000E100E080B485B0D2
:1014300000AF786039600023FB817B681B88FB81EB
:101440007B68284A934213D07B68274A93420FD087
:101450007B68B3F1804F0BD07B68244A934207D05E
:101460007B68234A934203D07B68224A934208D187
:10147000FB8923F07003FB813B685A88FB89134387
:10148000FB817B681C4A93420CD07B681B4A9342C9
:1014900008D0FB8923F44073FB813B681A89FB89E0
:1014A0001343FB817B68FA891A803B685A687B6822
:1014B000DA623B681A887B681A857B68094A93421E
:1014C00003D07B68084A934204D13B689B7A9AB266
:1014D0007B681A867B6801229A8200BF1437BD465A
:1014E00080BC70470000014000040140000400403F
:1014F00000080040000C00400010004000140040B4
:1015000080B483B000AF78600B46FB70FB78002B93
:1015100008D07B681B889BB243F001039AB27B68BA
:101520001A8007E07B681B889BB223F001039AB204
:101530007B681A8000BF0C37BD4680BC704700BF77
:1015400080B485B000AF7860396000237B810023D0
:10155000FB810023BB817B681B8C9BB223F00103C2
:101560009AB27B681A847B681B8CFB817B689B88A2
:10157000BB817B681B8B7B817B8923F070037B8124
:101580007B8923F003037B813B681A887B891343A3
:101590007B81FB8923F00203FB813B689A89FB89ED
:1015A0001343FB813B685A88FB891343FB817B68AB
:1015B0001E4A934203D07B681D4A934223D1FB8984
:1015C00023F00803FB813B68DA89FB891343FB8125
:1015D000FB8923F00403FB813B689A88FB89134352
:1015E000FB81BB8923F48073BB81BB8923F4007327
:1015F000BB813B681A8ABB891343BB813B685A8A0B
:10160000BB891343BB817B68BA899A807B687A89DE
:101610001A833B689A687B685A637B68FA891A84E4
:1016200000BF1437BD4680BC704700BF00000140BA
:101630000004014080B485B000AF786039600023B9
:101640007B810023FB810023BB817B681B8C9BB2C9
:1016500023F010039AB27B681A847B681B8CFB8191
:101660007B689B88BB817B681B8B7B817B8923F498
:10167000E0437B817B8923F440737B813B681B883B
:101680001B029AB27B8913437B81FB8923F02003E1
:10169000FB813B689B891B019AB2FB891343FB8149
:1016A0003B685B881B019AB2FB891343FB817B6813
:1016B000224A934203D07B68214A93422BD1FB8973
:1016C00023F08003FB813B68DB891B019AB2FB8915
:1016D0001343FB81FB8923F04003FB813B689B881C
:1016E0001B019AB2FB891343FB81BB8923F48063FE
:1016F000BB81BB8923F40063BB813B681B8A9B00D1
:101700009AB2BB891343BB813B685B8A9B009AB248
:10171000BB891343BB817B68BA899A807B687A89CD
:101720001A833B689A687B689A637B68FA891A8493
:1017300000BF1437BD4680BC704700BF00000140A9
:101740000004014080B485B000AF78600B467B8018
:101750000023FB817B681B8BFB81FB8923F0080343
:10176000FB81FA897B881343FB817B68FA891A83A2
:1017700000BF1437BD4680BC704700BF80B485B041
:1017800000AF78600B467B800023FB817B681B8B5E
:10179000FB81FB8923F40063FB817B881B029AB2E7
:1017A000FB891343FB817B68FA891A8300BF1437D6
:1017B000BD4680BC704700BF80B483B000AF786086
:1017C0000B467B8013467B707B78002B08D07B68B0
:1017D0009B899AB27B8813439AB27B689A8109E00D
:1017E0007B689B899AB27B88DB439BB213409AB299
:1017F0007B689A8100BF0C37BD4680BC704700BF34
:1018000080B485B000AF78600B467B800023FB730B
:101810000023BB8100237B817B681B8A9AB27B8873
:101820001340BB817B689B899AB27B8813407B8184
:10183000BB89002B05D07B89002B02D00123FB73D1
:1018400001E00023FB73FB7B18461437BD4680BCC8
:10185000704700BF80B483B000AF78600B467B80D8
:101860007B88DB439AB27B681A8200BF0C37BD4687
:1018700080BC704781F0004102E000BF83F000436C
:1018800030B54FEA41044FEA430594EA050F08BF1B
:1018900090EA020F1FBF54EA000C55EA020C7FEADF
:1018A000645C7FEA655C00F0E2804FEA5454D4EB5C
:1018B0005555B8BF6D420CDD2C4480EA020281EA26
:1018C000030382EA000083EA010180EA020281EA5E
:1018D0000303362D88BF30BD11F0004F4FEA0131B0
:1018E0004FF4801C4CEA113102D0404261EB4101BF
:1018F00013F0004F4FEA03334CEA133302D0524245
:1019000063EB430394EA050F00F0A780A4F1010400
:10191000D5F1200E0DDB02FA0EFC22FA05F280183A
:1019200041F1000103FA0EF2801843FA05F3594120
:101930000EE0A5F120050EF1200E012A03FA0EFC9F
:1019400028BF4CF0020C43FA05F3C01851EBE371C9
:1019500001F0004507D54FF0000EDCF1000C7EEBE6
:1019600000006EEB0101B1F5801F1BD3B1F5001F24
:101970000CD349085FEA30004FEA3C0C04F1010443
:101980004FEA445212F5800F80F09A80BCF1004F6C
:1019900008BF5FEA500C50F1000041EB045141EAEE
:1019A000050130BD5FEA4C0C404141EB010111F4EF
:1019B000801FA4F10104E9D191F0000F04BF01469A
:1019C0000020B1FA81F308BF2033A3F10B03B3F178
:1019D00020020CDA0C3208DD02F1140CC2F10C0208
:1019E00001FA0CF021FA02F10CE002F11402D8BF66
:1019F000C2F1200C01FA02F120FA0CFCDCBF41EA32
:101A00000C019040E41AA2BF01EB0451294330BD00
:101A10006FEA04041F3C1CDA0C340EDC04F11404DD
:101A2000C4F1200220FA04F001FA02F340EA0300B4
:101A300021FA04F345EA030130BDC4F10C04C4F1FA
:101A4000200220FA02F001FA04F340EA03002946DA
:101A500030BD21FA04F0294630BD94F0000F83F424
:101A6000801306BF81F480110134013D4EE77FEA07
:101A7000645C18BF7FEA655C29D094EA050F08BF53
:101A800090EA020F05D054EA000C04BF1946104634
:101A900030BD91EA030F1EBF0021002030BD5FEA78
:101AA000545C05D14000494128BF41F0004130BDA0
:101AB00014F580043CBF01F5801130BD01F00045F4
:101AC00045F0FE4141F470014FF0000030BD7FEA67
:101AD000645C1ABF194610467FEA655C1CBF0B4662
:101AE000024650EA013406BF52EA033591EA030F79
:101AF00041F4002130BD00BF90F0000F04BF002171
:101B0000704730B54FF4806404F132044FF00005A3
:101B10004FF0000150E700BF90F0000F04BF00211C
:101B2000704730B54FF4806404F1320410F0004582
:101B300048BF40424FF000013EE700BF42004FEA7D
:101B4000E2014FEA31014FEA02701FBF12F07F43FA
:101B500093F07F4F81F06051704792F0000F14BFF7
:101B600093F07F4F704730B54FF4607401F000453B
:101B700021F0004120E700BF50EA010208BF704792
:101B800030B54FF000050AE050EA010208BF704787
:101B900030B511F0004502D5404261EB41014FF4F0
:101BA000806404F132045FEA915C3FF4DCAE4FF0F4
:101BB00003025FEADC0C18BF03325FEADC0C18BFDB
:101BC000033202EBDC02C2F1200300FA03FC20FA2C
:101BD00002F001FA03FE40EA0E0021FA02F1144479
:101BE000C1E600BF70B54FF0FF0C4CF4E06C1CEA8E
:101BF00011541DBF1CEA135594EA0C0F95EA0C0F03
:101C000000F0DEF82C4481EA030621EA4C5123EA75
:101C10004C5350EA013518BF52EA033541F48011A4
:101C200043F4801338D0A0FB02CE4FF00005E1FB57
:101C300002E506F00042E0FB03E54FF00006E1FBA1
:101C400003569CF0000F18BF4EF0010EA4F1FF04E4
:101C5000B6F5007F64F5407404D25FEA4E0E6D4124
:101C600046EB060642EAC62141EA55514FEAC52035
:101C700040EA5E504FEACE2EB4F1FD0C88BFBCF5B1
:101C8000E06F1ED8BEF1004F08BF5FEA500E50F162
:101C9000000041EB045170BD06F0004646EA010128
:101CA00040EA020081EA0301B4EB5C04C2BFD4EB5A
:101CB0000C0541EA045170BD41F480114FF0000E53
:101CC000013C00F3AB8014F1360FDEBF002001F0C1
:101CD000004170BDC4F10004203C35DA0C341BDC3B
:101CE00004F11404C4F1200500FA05F320FA04F00D
:101CF00001FA05F240EA020001F0004221F0004141
:101D000010EBD37021FA04F642EB06015EEA430EB3
:101D100008BF20EAD37070BDC4F10C04C4F12005E3
:101D200000FA04F320FA05F001FA04F240EA020096
:101D300001F0004110EBD37041F100015EEA430E67
:101D400008BF20EAD37070BDC4F1200500FA05F287
:101D50004EEA020E20FA04F301FA05F243EA020306
:101D600021FA04F001F0004121FA04F220EA020015
:101D700000EBD3705EEA430E08BF20EAD37070BD5B
:101D800094F0000F0FD101F00046400041EB01013B
:101D900011F4801F08BF013CF7D041EA060195F01D
:101DA000000F18BF704703F00046520043EB0303D7
:101DB00013F4801F08BF013DF7D043EA06037047C4
:101DC00094EA0C0F0CEA135518BF95EA0C0F0CD0CF
:101DD00050EA410618BF52EA4306D1D181EA030115
:101DE00001F000414FF0000070BD50EA410606BF0F
:101DF0001046194652EA430619D094EA0C0F02D154
:101E000050EA013613D195EA0C0F05D152EA033698
:101E10001CBF104619460AD181EA030101F00041B6
:101E200041F0FE4141F470014FF0000070BD41F0FF
:101E3000FE4141F4780170BD70B54FF0FF0C4CF4D9
:101E4000E06C1CEA11541DBF1CEA135594EA0C0FF8
:101E500095EA0C0F00F0A7F8A4EB050481EA030E45
:101E600052EA03354FEA013100F088804FEA03332C
:101E70004FF0805545EA131343EA12634FEA0222FA
:101E800045EA111545EA10654FEA00260EF00041BB
:101E90009D4208BF964244F1FD0404F5407402D20D
:101EA0005B084FEA3202B61A65EB03055B084FEA9E
:101EB00032024FF480104FF4002CB6EB020E75EB9B
:101EC000030E22BFB61A754640EA0C005B084FEAC3
:101ED0003202B6EB020E75EB030E22BFB61A754640
:101EE00040EA5C005B084FEA3202B6EB020E75EB8B
:101EF000030E22BFB61A754640EA9C005B084FEA03
:101F00003202B6EB020E75EB030E22BFB61A75460F
:101F100040EADC0055EA060E18D04FEA051545EAFE
:101F200016754FEA06164FEAC30343EA52734FEAA7
:101F3000C2025FEA1C1CC0D111F4801F0BD141EA20
:101F400000014FF000004FF0004CB6E711F4801F85
:101F500004BF01430020B4F1FD0C88BFBCF5E06F65
:101F60003FF6AFAEB5EB030C04BFB6EB020C5FEA75
:101F7000500C50F1000041EB045170BD0EF0004ECA
:101F80004EEA113114EB5C04C2BFD4EB0C0541EAFC
:101F9000045170BD41F480114FF0000E013C90E6F9
:101FA00045EA060E8DE60CEA135594EA0C0F08BFBD
:101FB00095EA0C0F3FF43BAF94EA0C0F0AD150EABC
:101FC00001347FF434AF95EA0C0F7FF425AF10464F
:101FD00019462CE795EA0C0F06D152EA03353FF477
:101FE000FDAE1046194622E750EA410618BF52EAF4
:101FF00043067FF4C5AE50EA41047FF40DAF52EAC8
:1020000043057FF4EBAE12E74A0011D212F500123D
:1020100011D20DD56FF47873B3EB62520ED44FEA40
:10202000C12343F0004343EA505323FA02F07047C0
:102030004FF00000704750EA013002D14FF0FF30FE
:0820400070474FF000007047EB
:102048000000000001020304010203040607080956
:0400000508000000EF
:00000001FF
