:020000040800F2
:10000000485B0120D50600083107000831070008C9
:100010003107000831070008310700080000000020
:100020000000000000000000000000003107000890
:100030003107000800000000310700089D17000884
:1000400031070008310700083107000831070008B0
:1000500031070008310700083107000831070008A0
:100060003107000831070008310700083107000890
:100070003107000831070008310700083107000880
:100080003107000831070008310700083107000870
:100090003107000831070008310700083107000860
:1000A0003107000831070008310700083107000850
:1000B00031070008890100083107000831070008EE
:1000C0003107000831070008310700083107000830
:1000D000310700083107000831070008F101000866
:1000E0003107000831070008310700083107000810
:1000F0003107000831070008310700083107000800
:1001000031070008310700083107000831070008EF
:1001100031070008310700083107000831070008DF
:1001200031070008310700083107000831070008CF
:1001300031070008310700083107000831070008BF
:1001400031070008310700083107000831070008AF
:10015000310700083107000831070008310700089F
:10016000310700083107000831070008310700088F
:10017000310700083107000831070008310700087F
:10018000310700083107000880B500AF012114488D
:1001900002F06CFF0346002B1FD0124B1B68124A63
:1001A000D35C9BB2DB009BB21946002000F078FACA
:1001B0000C4B1B680D4A934206D10A4B00221A6071
:1001C0000021074802F0D2FD064B1B680133054AA7
:1001D00013600121024802F073FF00BF80BD00BF21
:1001E0000004004074040020D0040020F24D0100FF
:1001F00080B500AF40F225513C4800F0A1F903461C
:10020000002B70D0394B9B889BB2772B1DD14FF4BC
:100210000051374802F060F84FF48051344802F042
:100220005BF84FF40061324802F064F81021304866
:1002300002F052F820212E4802F05CF82D4B1322D8
:100240005A632C4B13229A634DE0284B9B889BB238
:10025000732B0BD14FF40051254802F03DF8254B8C
:1002600000225A63234B00229A633CE01F4B9B8879
:100270009BB2612B15D14FF400511D4802F02CF8B0
:100280004FF480511A4802F027F84FF400611848E3
:1002900002F030F8174B13225A63164B00229A6370
:1002A00021E0124B9B889BB2642B13D14FF4005179
:1002B0000F4802F011F80F4B00225A6320210C481E
:1002C00002F00AF810210A4802F014F8094B132230
:1002D0009A6308E0054B9B889BB2652B03D10121F3
:1002E000054802F043FD00BF80BD00BF004800404C
:1002F00000040240000800400004004080B58AB0BD
:1003000000AF7860396000237B6200233B620023EA
:10031000FB610023BB617B681B8A9BB27B627B6AAB
:1003200023F440537B623B68DB881A467B6A1343A5
:100330007B627B6A9AB27B681A827B689B899BB2DC
:100340007B627B6A23F4B05323F00C037B623B682F
:100350009A883B681B8913439AB23B685B891343B5
:100360009BB21A467B6A13437B627B6A9AB27B68B4
:100370009A817B689B8A9BB27B627B6A23F4407381
:100380007B623B689B891A467B6A13437B627B6A6C
:100390009AB27B689A8207F10803184600F0B6FB10
:1003A0007B68304A934203D07B682F4A934202D144
:1003B0007B693B6201E03B693B627B689B899BB246
:1003C0001BB2002B0CDA3A6A13469B0013449A00C6
:1003D0001A443B681B685B00B2FBF3F3FB610BE064
:1003E0003A6A13469B0013449A001A443B681B6800
:1003F0009B00B2FBF3F3FB61FB691C4AA2FB0323E6
:100400005B091B017B627B6A1B09642202FB03F30D
:10041000FA69D31ABB617B689B899BB21BB2002B24
:100420000CDABB69DB003233104AA2FB03235B0901
:1004300003F007037A6A13437B620BE0BB691B017D
:1004400032330A4AA2FB03235B0903F00F037A6AE3
:1004500013437B627B6A9AB27B681A8100BF28379C
:10046000BD4680BD00100140001401401F85EB51C6
:1004700080B483B000AF78600B46FB70FB78002B34
:1004800008D07B689B899BB243F400539AB27B6887
:100490009A8107E07B689B899BB223F400539AB250
:1004A0007B689A8100BF0C37BD4680BC704700BF97
:1004B00080B487B000AF78600B467B8013467B70BA
:1004C00000233B610023FB600023BB6000237B61B2
:1004D0007B687B617B88DBB25B09DBB23B617B883D
:1004E00003F01F03FB600122FB6802FA03F3BB6009
:1004F0003B69012B03D17B690C337B6109E03B69CC
:10050000022B03D17B6910337B6102E07B691433DA
:100510007B617B78002B06D07B697A691168BA68A9
:100520000A431A6006E07B697A691168BA68D243A7
:100530000A401A6000BF1C37BD4680BC704700BF30
:1005400080B487B000AF78600B467B800023FB60EF
:1005500000237B610023BB600023FB747B88DBB23C
:100560005B09DBB2BB607B8803F01F037B61012268
:100570007B6902FA03F37B61BB68012B07D17B68BF
:100580009B899BB21A467B6913407B6111E0BB6873
:10059000022B07D17B681B8A9BB21A467B691340EA
:1005A0007B6106E07B689B8A9BB21A467B6913409D
:1005B0007B617B881B0A9BB2FB600122FB6802FA0D
:1005C00003F3FB607B681B889BB21A46FB681340F1
:1005D000FB607B69002B05D0FB68002B02D0012358
:1005E000FB7401E00023FB74FB7C18461C37BD46FE
:1005F00080BC704780B485B000AF7860396000235C
:10060000FB600023BB60134B1B68FB6040F6FE726F
:100610007B6802FA03F3DB43FA681340FB603B6834
:100620001A683B685B681A433B689B681A433B68DF
:10063000DB681343BB60BA687B6802FA03F3FA68AD
:100640001343FB60034AFB68136000BF1437BD46C9
:1006500080BC70470074004080B483B000AF786005
:100660000B46FB70FB78002B09D00C490B4B1A682A
:1006700001207B6800FA03F313430B6009E007498C
:10068000064B1A6801207B6800FA03F3DB43134032
:100690000B6000BF0C37BD4680BC70470074004043
:1006A00080B485B000AF78600B467B800023FB6090
:1006B000074BFB60FA687B6813440833FB60FB68F8
:1006C0001A467B88136000BF1437BD4680BC704754
:1006D0000074004080B582B000AF104B7B60104BBF
:1006E0003B6007E03B681A1D3A607A68111D79602B
:1006F00012681A603B680B4A9342F3D30A480B49CD
:100700004FF000028842B8BF40F8042BFADB00F03B
:10071000A1F800BF0837BD4680BD00BFD04C00081F
:1007200000000020740400207404002044530120C1
:1007300080B400AFFEE700BF90B583B000AF786033
:10074000384A7B681360384B1A68364B1B68194669
:10075000104603F09FFF03461A46344B1A60344B91
:100760001A68324B1B681946104603F095FF034682
:100770001A462F4B1A602D4B1A682E4B1B681946D0
:10078000104603F087FF03461A462B4B1A602B4B8B
:100790001A68264B1B681946104604F085F8034674
:1007A0001C46274B1A68224B1B681946104604F05A
:1007B0007BF803461946204603F06EFF03461C46AD
:1007C000204B1A681C4B1B681946104604F06CF845
:1007D00003461946204603F05FFF03461A461A4BAC
:1007E0001A60194B1B681949184604F019FA034698
:1007F000002B02D0144B154A1A60134B1B68144986
:10080000184604F0EFF90346002B02D00E4B104AB5
:100810001A60064B1B68074A136000BF0C37BD46C1
:1008200090BD00BFFC520120040000202C53012089
:100830008404002080040020880400200800002098
:100840000C00002010000020345301200000C6429C
:100850000000C6C2B0B588B004AF0023FB7301F03E
:100860009FFD01F013F8974B974A9849984800F07C
:1008700081FB01F0DFFF032300220021954801F0F6
:100880002DF80346002B01D10123FB73924B7B60B3
:100890000023BB60914B1B68092BFBD98F4B0022B7
:1008A0001A60BB680133BB60FB7B002B02D0894818
:1008B00001F0D2F8874BB3F91230184603F0A0FFCD
:1008C00003468749184603F0EFFF03464FF08E4179
:1008D000184604F09DF803461A46824B1A607D4B79
:1008E000B3F91430184603F08BFF03467C491846D1
:1008F00003F0DAFF03464FF08E41184604F088F803
:1009000003461A46784B1A60724BB3F916301846F4
:1009100003F076FF03467249184603F0C5FF03460D
:100920004FF08E41184604F073F803461A466F4B99
:100930001A60684BB3F90C30184603F061FF0346A8
:100940001946184603F0A8FE03464FF08E4118469C
:1009500004F05EF803461A46654B1A605D4BB3F926
:100960000E30184603F04CFF03461946184603F0B4
:1009700093FE03464FF08E41184604F049F80346B3
:100980001A465C4B1A60534BB3F91030184603F00B
:1009900037FF03461946184603F07EFE03464FF024
:1009A0008E41184604F034F803461A46524B1A603A
:1009B0004C4B1B685149184603F076FF03461C4612
:1009C000494B1B684D49184603F06EFF03461D4610
:1009D000464B1B684949184603F066FF0346184614
:1009E000434B1B68434A12684349096802910192CC
:1009F000009303462A462146354800F0E5FA344B79
:100A00005B681846FFF798FE3D4B1B684FF00001EE
:100A1000184604F0E7F80346002B2BD04FF40051A2
:100A2000384801F059FC4FF48051364801F054FC2D
:100A30004FF40061334801F05DFC1021314801F0B2
:100A40004BFC20212F4801F055FC2F4C2C4B1B68F0
:100A500083F00043184604F0EDF8034663632A4C24
:100A6000274B1B6883F00043184604F0E3F8034665
:100A7000A3630FE74FF40051224801F02DFC4FF41F
:100A80000061204801F028FC4FF480511D4801F01E
:100A900031FC20211B4801F01FFC1021194801F0F6
:100AA00029FC194C164B1B68184604F0C3F8034682
:100AB0006363154C124B1B68184604F0BBF80346E1
:100AC000A363E7E6000086420000C842CDCCCC3DDF
:100AD000C85201200453012048E17A3F90040020CD
:100AE0000000FA4438530120F05201202453012021
:100AF000F85201203C530120F452012035FA8E3C7B
:100B000034530120000402400008004080B489B042
:100B100000AF78600023BB6100237B610023FB6191
:100B200002233B610023FB600223BB60484B9B68B0
:100B300003F00C03BB61BB69042B07D0082B09D061
:100B4000002B3FD17B68434A1A603FE07B68424AF2
:100B50001A603BE03E4B5B6803F480039B0DFB6037
:100B60003B4B5B6803F03F03BB60FB68002B0DD081
:100B7000394ABB68B2FBF3F2354B596847F6C0738C
:100B80000B409B0903FB02F3FB610CE0314ABB689D
:100B9000B2FBF3F22E4B596847F6C0730B409B092A
:100BA00003FB02F3FB612A4B5B6803F440331B0C2D
:100BB00001335B003B61FA693B69B2FBF3F27B688E
:100BC0001A6003E07B68234A1A6000BF204B9B68D1
:100BD00003F0F003BB61BB691B09BB611F4ABB6922
:100BE00013441B78DBB27B617B681A687B69DA404F
:100BF0007B685A60164B9B6803F4E053BB61BB698A
:100C00009B0ABB61154ABB6913441B78DBB27B614D
:100C10007B685A687B69DA407B689A600C4B9B68FA
:100C200003F46043BB61BB695B0BBB610B4ABB69EF
:100C300013441B78DBB27B617B685A687B69DA40BE
:100C40007B68DA6000BF2437BD4680BC704700BFB8
:100C5000003802400024F40000127A001400002042
:100C600080B483B000AF78600B46FB70FB78002B3C
:100C700006D00949084B1A6B7B6813430B6306E0E7
:100C80000549054B1A6B7B68DB4313400B6300BFC0
:100C90000C37BD4680BC70470038024080B483B03A
:100CA00000AF78600B46FB70FB78002B06D009493B
:100CB000084B1A6C7B6813430B6406E00549054B2F
:100CC0001A6C7B68DB4313400B6400BF0C37BD46D6
:100CD00080BC70470038024090B583B000AF7860A8
:100CE000786803F07FF903460C461846214602F067
:100CF00051FA03460C461846214603F077FC03469A
:100D000019464FF07E5003F083FE034618460C3719
:100D1000BD4690BDF0B583B000AF78607B685A697E
:100D20007B689B691946104603F0BEFD03461C46CE
:100D30007B68DA697B681B6A1946104603F0B4FDCC
:100D400003461946204603F0A7FC0346184603F065
:100D500049F904460D467B689A697B689B69194688
:100D6000104603F0A1FD034619464FF07C5003F0F6
:100D700091FC03461E467B68DA697B68DB6919468D
:100D8000104603F091FD03461946304603F082FCFD
:100D90000346184603F026F902460B46204629462C
:100DA00002F0F6F903460C461846214603F01EFCF5
:100DB00002467B681A607B689A697B681B6A1946E1
:100DC000104603F071FD03461C467B685A697B6838
:100DD000DB691946104603F067FD034619462046B5
:100DE00003F058FC03464FF04041184603F05CFD09
:100DF0000346184603F0F6F803460C46184621460B
:100E000002F06EF903460C461846214603F0EEFB4D
:100E100002467B685A607B689A697B68DB69194681
:100E2000104603F041FD03461C467B685A697B6807
:100E30001B6A1946104603F037FD03461946204643
:100E400003F02AFC0346184603F0CCF804460D468E
:100E50007B68DA697B68DB691946104603F024FD7C
:100E6000034619464FF07C5003F014FC03461E461F
:100E70007B681A6A7B681B6A1946104603F014FDEA
:100E800003461946304603F005FC0346184603F0B6
:100E9000A9F802460B462046294602F079F9034696
:100EA0000C461846214603F0A1FB02467B689A6077
:100EB0007B681B682C49184603F0F6FC03461A466B
:100EC0007B681A607B685B682749184603F0ECFC76
:100ED00003461A467B685A607B689B68224918461D
:100EE00003F0E2FC03461A467B68DB6819461046AD
:100EF00003F0D0FB03461A467B689A607B689B68C8
:100F00001A49184603F06EFE0346002B0FD07B688B
:100F10009B681946154803F0BDFB03461946144863
:100F200003F0B8FB03461A467B689A6018E07B68BA
:100F30009B680F49184603F073FE0346002B00D14F
:100F40000EE07B689B681946094803F0A3FB034643
:100F50001946064803F09EFB03461A467B689A60D2
:100F600000BF0C37BD46F0BDE12E6542000034C322
:100F70000000344380B584B000AFF860B9607A6097
:100F80003B60FB68BA681A6179684FF07E5003F0E5
:100F90003FFD03461A46FB685A62FB683A68DA600E
:100FA000FB684FF07E525A61FB684FF000029A6175
:100FB000FB684FF00002DA61FB684FF000021A6232
:100FC00000BF1037BD4680BD90B59BB000AFF86044
:100FD000B9607A603B60FB689B6983F00043B96845
:100FE000184603F061FC03461C46FB68DB69796820
:100FF000184603F059FC03461946204603F04AFB05
:1010000003461C46FB681B6A3968184603F04CFC13
:1010100003461946204603F03DFB03464FF07C5142
:10102000184603F041FC03467B66FB685B69B968C0
:10103000184603F039FC03461C46FB68DB69396837
:10104000184603F031FC03461946204603F024FB02
:1010500003461C46FB681B6A7968184603F024FCAB
:1010600003461946204603F015FB03464FF07C511A
:10107000184603F019FC03463B66FB685B69796818
:10108000184603F011FC03461C46FB689B6939684F
:10109000184603F009FC03461946204603F0FAFA05
:1010A00003461C46FB681B6AB968184603F0FCFB44
:1010B00003461946204603F0EFFA03464FF07C51F1
:1010C000184603F0F1FB0346FB65FB685B69396872
:1010D000184603F0E9FB03461C46FB689B697968E8
:1010E000184603F0E1FB03461946204603F0D4FA04
:1010F00003461C46FB68DB69B968184603F0D4FB5D
:1011000003461946204603F0C5FA03464FF07C51CA
:10111000184603F0C9FB0346BB654FF00001B86FEA
:1011200003F056FD0346002B11D04FF00001F86F7D
:1011300003F04EFD0346002B09D04FF00001D7F815
:10114000800003F045FD0346002B40F02E82B96F6E
:10115000B86F03F0A9FB03461C46F96FF86F03F064
:10116000A3FB03461946204603F096FA03461C46A5
:10117000D7F88010D7F8800003F096FB0346194695
:10118000204603F089FA03461846FFF7A5FD786567
:10119000796DB86F03F088FB0346BB67796DF86F14
:1011A00003F082FB0346FB67796DD7F8800003F0FC
:1011B0007BFB0346C7F88030FB685B69194618461D
:1011C00003F06AFA03463B65FB689B6919461846BB
:1011D00003F062FA0346FB64FB68DB6919461846B4
:1011E00003F05AFA0346BB64FB681B6A19461846AB
:1011F00003F052FA03467B64FB685B694FF0814160
:10120000184603F051FB03463B64FB689B694FF0B3
:101210008141184603F048FB0346FB63FB68DB692A
:101220004FF08141184603F03FFB0346BB63FB6868
:101230009B694FF08241184603F036FB03467B63FF
:10124000FB68DB694FF08241184603F02DFB034633
:101250003B63FB685A69FB685B691946104603F0FB
:1012600023FB0346FB62FB689A69FB689B6919468E
:10127000104603F019FB0346BB62FB68DA69FB68A2
:10128000DB691946104603F00FFB03467B62FB68DF
:101290001A6AFB681B6A1946104603F005FB0346F1
:1012A0003B62796A386C03F0FFFA03461C46B96F5B
:1012B000B86C03F0F9FA03461946204603F0ECF93E
:1012C00003461C46B96A386C03F0EEFA0346194629
:1012D000204603F0E1F903461C46F96FF86C03F071
:1012E000E3FA03461946204603F0D4F90346FB61AE
:1012F000396AF86B03F0D8FA03461C46B96F786C6C
:1013000003F0D2FA03461946204603F0C3F9034618
:101310001C464FF08141F86A03F0C6FA03461A46AC
:10132000FB689B691946104603F0BEFA034619464E
:10133000204603F0B1F903461C46F96F386D03F0FF
:10134000B3FA03461946204603F0A4F90346F96BA5
:10135000184603F09FF903461C46B96A786B03F000
:10136000A3FA03461946204603F096F903461C46A5
:10137000796A786B03F098FA03461946204603F021
:101380008BF903461C46D7F88010F86B03F08CFAF3
:1013900003461946204603F07FF90346BB614FF030
:1013A0008141F86A03F080FA03461A46FB68DB695C
:1013B0001946104603F078FA03461C46B96F386D9B
:1013C00003F072FA03461946204603F065F9034616
:1013D0001C46396AB86B03F067FA03461946204683
:1013E00003F05AF903461C46F96F786C03F05CFA77
:1013F00003461946204603F04DF90346B96B1846DB
:1014000003F048F903461C46B96A386B03F04CFAFE
:1014100003461946204603F03FF903461C46796A05
:10142000386B03F041FA03461946204603F034F9BD
:1014300003461C46D7F88010B86B03F035FA034614
:101440001946204603F028F903467B614FF081419D
:10145000B86A03F029FA03461A46FB681B6A194664
:10146000104603F021FA03461C46B96FF86C03F0EE
:101470001BFA03461946204603F00CF903461C46A6
:101480004FF08141786A03F00FFA03461A46FB6871
:101490001B6A1946104603F007FA03461946204610
:1014A00003F0FAF803461C46F96FB86C03F0FCF938
:1014B00003461946204603F0EDF803463B61F969FF
:1014C000F86903F0F1F903461C46B969B86903F0FD
:1014D000EBF903461946204603F0DEF803461C46A6
:1014E0007969786903F0E0F903461946204603F06C
:1014F000D3F803461C463969386903F0D5F9034629
:101500001946204603F0C8F803461846FFF7E4FBE7
:101510007865796DF86903F0C7F90346FB61796D69
:10152000B86903F0C1F90346BB61796D786903F0CE
:10153000BBF903467B61796D386903F0B5F9034661
:101540003B61FB681B69F969184603F0ADF9034676
:101550001946786E03F09EF803467B66FB681B69AC
:10156000B969184603F0A0F903461946386E03F02E
:1015700091F803463B66FB681B697969184603F0DE
:1015800093F903461946F86D03F084F80346FB65AA
:10159000FB681B693969184603F086F9034619464A
:1015A000B86D03F077F80346BB65FB685C69FB68C0
:1015B0005B6A796E184603F077F9034619462046B0
:1015C00003F06AF803461A46FB685A61FB689C6997
:1015D000FB685B6A396E184603F066F903461946E4
:1015E000204603F059F803461A46FB689A61FB68E7
:1015F000DC69FB685B6AF96D184603F055F9034630
:101600001946204603F048F803461A46FB68DA619B
:10161000FB681C6AFB685B6AB96D184603F044F905
:1016200003461946204603F037F803461A46FB687E
:101630001A62FB685A69FB685B691946104603F039
:1016400033F903461C46FB689A69FB689B69194697
:10165000104603F029F903461946204603F01CF80A
:1016600003461C46FB68DA69FB68DB6919461046CD
:1016700003F01AF903461946204603F00DF8034615
:101680001C46FB681A6AFB681B6A1946104603F081
:101690000BF903461946204602F0FEFF03461846A2
:1016A000FFF71AFB7865FB685B69796D184603F0F4
:1016B000FBF803461A46FB685A61FB689B69796D23
:1016C000184603F0F1F803461A46FB689A61FB6876
:1016D000DB69796D184603F0E7F803461A46FB68A4
:1016E000DA61FB681B6A796D184603F0DDF8034682
:1016F0001A46FB681A62F868FFF70CFB00BF6C37EC
:10170000BD4690BD80B483B000AF03463960FB7125
:1017100097F90730002B0BDA0D49FB7903F00F0323
:10172000043B3A68D2B21201D2B20B441A7609E0F5
:10173000084997F907303A68D2B21201D2B20B4485
:1017400083F8002300BF0C37BD4680BC704700BF44
:1017500000ED00E000E100E080B582B000AF78600D
:101760007B68B3F1807F01D3012311E00A4A7B68D3
:1017700023F07F43013B53600F214FF0FF30FFF711
:10178000C1FF054B00229A60034B07221A60002319
:1017900018460837BD4680BD10E000E080B582B035
:1017A00000AF374B1B680133354A1360354B1B685C
:1017B000002B04D0334B1B68013B324A1360AFF35C
:1017C00000800023FB7152E0FB792F4A9B001344F9
:1017D0005B68002B48D0FB792B4A9B0013445B6865
:1017E0001B7B002B40D0FB79274A9B0013445B688E
:1017F0009B68002B38D0FB79234A9B0013445B681D
:101800009A68013A9A60FB791F4A9B0013445B680F
:101810009B68002B28D1FB791B4A9B0013445B6813
:101820001A69FB7918499B000B445B685B69184691
:101830009047FB79144A9B0013445A68FB7912497C
:101840009B000B445B681B689360FB790E4A9B000E
:1018500013445B685B68002B06D1FB790A4A9B0046
:1018600013445B6800221A73FB790133FB71064B4A
:101870001B78FA799A42A7D300BF0837BD4680BDCE
:1018800090040020940400209C04002080B500AF48
:101890000D4B1B680D4AA2FB03239B091846FFF75B
:1018A0005BFF0346002B00D0FEE7074B1B689B093C
:1018B000074AA2FB03239B0A064A1360064B012238
:1018C0001A7000BF80BD00BF30000020D34D6210F1
:1018D00017916502405301209804002080B584B020
:1018E00000AF7860084611461A460346FB700B4667
:1018F000BB7013467B70FB7863F02F03DAB27B6812
:101900001A704F4A00214F4800F010F97B681B788D
:1019100019464C4800F028FA0346002B01D1012358
:1019200089E07B681B7875221946464800F09AF9D1
:101930000346682B01D002237DE07B6819780023E1
:101940006B22404800F0ECF97B681B781C2219469A
:101950003C4800F087F90346FB7397F90F3023F0FA
:1019600018035AB2BB78DB005BB213435BB2FB7364
:101970007B681978FB7B1C22324800F0D1F97B6828
:101980001B781B2219462F4800F06CF90346FB73A5
:1019900097F90F3023F018035AB27B78DB005BB263
:1019A00013435BB2FB737B681978FB7B1B222548D2
:1019B00000F0B6F9BB78032B1DD801A252F823F032
:1019C000D1190008DB190008E5190008EF19000813
:1019D0007B684FF062529A600EE07B684FF0645271
:1019E0009A6009E07B684FF066529A6004E07B6879
:1019F0004FF068529A6000BF7B78032B19D801A280
:101A000052F823F0151A00081D1A0008251A0008BC
:101A10002D1A00087B680C4A5A600BE07B680B4A61
:101A20005A6007E07B680A4A5A6003E07B68094A0B
:101A30005A6000BF002318461037BD4680BD00BF66
:101A4000801A0600005C00402D23FA3B2D237A3CCF
:101A500090C1F93C90C1793D80B588B002AF786003
:101A60007B68197807F108020E23009313463B2286
:101A70002B4800F01DF93B7A1B021AB27B7A1BB28D
:101A800013431AB27B689A81BB7A1B021AB2FB7AA3
:101A90001BB213431AB27B68DA813B7B1B021AB27A
:101AA0007B7B1BB213431AB27B681A82BB7B1B027F
:101AB0001AB2FB7B1BB21343FB82B7F916301846F0
:101AC00002F09EFE03461749184602F0A1FF0346A6
:101AD0001549184602F0E0FD03461A467B689A61F4
:101AE0003B7C1B021AB27B7C1BB213431AB27B688D
:101AF0005A82BB7C1B021AB2FB7C1BB213431AB284
:101B00007B689A823B7D1B021AB27B7D1BB213431A
:101B10001AB27B68DA82002318461837BD4680BDAA
:101B2000005C00400000AA43B81E124280B588B095
:101B300000AFF8600B467A60FB72FB68444A934240
:101B400021D1444A434B1B6C43F400131364FB7ACA
:101B5000184600F075FA404B1A687B689A4202D921
:101B60003D4A7B6813603C4B1B683B614FF48043EC
:101B7000BB830023BB8200233B8300237B834BF684
:101B8000FF73FB824AE0FB68344A934221D1314A19
:101B9000304B1B6C43F480031364FB7A184600F04F
:101BA0008DFA2D4B5A687B689A4202D92A4A7B6883
:101BB0005360294B5B683B614FF48043BB83002338
:101BC000BB8200233B8300237B834BF6FF73FB82A6
:101BD00024E0FB68224A934220D11E4A1D4B1B6C15
:101BE00043F400031364FB7A184600F0A7FA1A4B7B
:101BF0009A687B689A4202D9174A7B689360164BB1
:101C00009B683B614FF48043BB830023BB8200236E
:101C10003B8300237B834BF6FF73FB82FB681B88AF
:101C20009BB223F001039AB2FB681A8007F11003FC
:101C30001946F86800F05CFCFB681B889BB243F017
:101C400001039AB2FB681A8000BF2037BD4680BDF1
:101C5000005400400038024024000020005800409A
:101C6000005C004080B584B000AF78600B46FB702C
:101C70001346BB70F97800230022786800F09CF8C6
:101C8000BB781946786800F01BF9786800F0A6F96F
:101C9000F97800230122786800F08EF8786800F067
:101CA00065F90346FB73FB7B18461037BD4680BDC4
:101CB00090B585B000AFF8607B600B46FB721346B1
:101CC000BB72F97A01230022F86800F075F8BB7A3C
:101CD0001946F86800F0F4F8F97A01230122F8684F
:101CE00000F06AF813E03B8C002B08D17C68631C81
:101CF0007B60F86800F03AF90346237007E07C68DF
:101D0000631C7B60F86800F001F9034623703B8C8C
:101D10005A1E3A84002BE6D100BF1437BD4690BD51
:101D200080B582B000AF7860084611461A46034677
:101D3000FB700B46BB7013467B70F97800230022C2
:101D4000786800F039F8BB781946786800F0B8F880
:101D50007B781946786800F0B3F8786800F03EF9AF
:101D600000BF0837BD4680BD80B584B000AF786045
:101D70000B46FB700023FB73F9780123002278687F
:101D800000F01AF80346002B01D10123FB73786899
:101D900000F024F9FB7B18461037BD4680BD00BF1C
:101DA00080B483B000AF78600B467B8000BF0C37F7
:101DB000BD4680BC704700BF80B582B000AF786080
:101DC000084611461A460346FB700B46BB70134685
:101DD0007B707B681B889BB243F480739AB27B68EC
:101DE0001A80354B44F620621A600AE0324B1B68B9
:101DF000013B314A1360304B1B68002B01D101239A
:101E000056E07B689B8A9BB203F00103002BEDD068
:101E10007B78002B07D07B681B889BB243F48063E0
:101E20009AB27B681A80BB78002B1DD1FB789BB2DD
:101E300023F001039AB27B681A821F4B44F620629A
:101E40001A600AE01C4B1B68013B1B4A13601A4BCB
:101E50001B68002B01D101232AE07B689B8A9BB27F
:101E600003F00203002BEDD0BB78012B1DD1FB78D2
:101E700043F00103DBB29AB27B681A820E4B44F640
:101E800020621A600AE00C4B1B68013B0A4A13608F
:101E9000094B1B68002B01D1012309E00749786831
:101EA00000F0E8FB0346002BEDD07B681B8B002382
:101EB00018460837BD4680BDB40400200200030068
:101EC00080B483B000AF78600B46FB700E4B44F6D5
:101ED00020621A6004E00C4B1B68013B0A4A136045
:101EE0007B689B8A9BB203F08003002B03D1064BD7
:101EF0001B68002BEFD1FB789AB27B681A8200BF77
:101F00000C37BD4680BC7047B404002080B584B057
:101F100000AF78607B681B889BB243F480639AB201
:101F20007B681A800F4B44F620621A600AE00D4B62
:101F30001B68013B0B4A13600A4B1B68002B01D145
:101F400001230BE00849786800F094FB0346002B5E
:101F5000EDD07B681B8A9BB2FB73FB7B1846103766
:101F6000BD4680BDB40400204000030080B584B0AD
:101F700000AF78607B681B889BB223F480639AB2C1
:101F80007B681A807B681B889BB243F400739AB20B
:101F90007B681A800F4B44F620621A600AE00D4BF2
:101FA0001B68013B0B4A13600A4B1B68002B01D1D5
:101FB00001230BE00849786800F05CFB0346002B26
:101FC000EDD07B681B8A9BB2FB73FB7B18461037F6
:101FD000BD4680BDB40400204000030080B483B03F
:101FE00000AF7860154B44F620621A600AE0134B8C
:101FF0001B68013B114A1360104B1B68002B01D179
:10200000012316E07B689B8A9BB203F08003002BC0
:10201000EDD07B689B8A9BB203F00403002BE6D0D3
:102020007B681B889BB243F400739AB27B681A806A
:10203000002318460C37BD4680BC7047B40400200E
:1020400080B584B002AF0346FB71FB79002B09D148
:10205000042301930123009301230122C021154889
:1020600000F018FDFB79012B0AD104230193012311
:102070000093012301224FF440710E4800F00AFD45
:10208000FB79022B0AD1042301930123009301233E
:1020900001224FF41071074800F0FCFCFB79032B80
:1020A00003D104210448FFF77BFE00BF0837BD467B
:1020B00080BD00BF000402400054004080B584B0E1
:1020C00002AF0346FB71FB79002B0AD10423019375
:1020D00001230093012301224FF44061134800F0D3
:1020E000D9FCFB79012B09D104230193012300932F
:1020F0000123012203210E4800F0CCFCFB79022BC6
:1021000009D10423019301230093012301223021EB
:10211000084800F0BFFCFB79032B03D104210648DB
:10212000FFF73EFE00BF0837BD4680BD00040240F9
:1021300000140240001C02400058004080B584B0EA
:1021400002AF0346FB71FB79002B15D104230193E9
:1021500001230093012301224FF48071134800F002
:1021600099FC0423019301230093012301224FF4DE
:1021700000710F4800F08EFCFB79012B0AD104237B
:10218000019301230093012301224FF4C0710948F8
:1021900000F080FCFB79032B03D104210648FFF7F4
:1021A000FFFD00BF0837BD4680BD00BF00000240F4
:1021B00000080240001C0240005C004080B487B070
:1021C00000AF7860396000237B6100233B6100230E
:1021D000FB6000237B6176E001227B6902FA03F356
:1021E0003B613B681A683B691340FB60FA683B69D6
:1021F0009A4265D17B681A687B695B00032101FA0A
:1022000003F3DB431A407B681A607B681A683B68FB
:102210001B7919467B695B0001FA03F31A437B685B
:102220001A603B681B79012B03D03B681B79022B9A
:102230002ED17B689A687B695B00032101FA03F366
:10224000DB431A407B689A607B689A683B685B79DD
:1022500019467B695B0001FA03F31A437B689A60B5
:102260007B685A687B699BB2194601238B40DB432C
:102270001A407B685A607B685B683A6892791146BD
:102280007A6992B201FA02F292B21A437B685A60FA
:102290007B68DA687B699BB25B00032101FA03F378
:1022A000DB431A407B68DA607B68DA683B68DB797D
:1022B00019467B695B0001FA03F31A437B68DA6015
:1022C0007B6901337B617B690F2B85D900BF1C378C
:1022D000BD4680BC704700BF80B483B000AF78605B
:1022E0000B467B807B687A881A8300BF0C37BD461B
:1022F00080BC704780B483B000AF78600B467B80B1
:102300007B687A885A8300BF0C37BD4680BC704713
:1023100080B485B000AF78600B467B8013467B703D
:102320000023FB600023BB607A787B8803F00703FF
:102330009B0002FA03F3FB607B88DB089BB2184624
:102340007B88DB089BB21A467B68083253F8222050
:102350007B8803F007039B000F2101FA03F3DB43A3
:1023600002EA03017B6800F1080243F822107B882F
:10237000DB089BB21A467B68083253F82220FB68C0
:102380001343BB607B88DB089BB21A467B6808322C
:10239000B96843F8221000BF1437BD4680BC7047AF
:1023A00080B500AF124A124B1B6843F00103136063
:1023B0000F4B00229A600E4A0D4B1B6823F084736A
:1023C00023F4803313600A4B0A4A5A60084A084BC8
:1023D0001B6823F480231360054B0022DA6000F0B1
:1023E0000DF8054B4FF000629A6000BF80BD00BF42
:1023F000003802401030002400ED00E080B483B0CB
:1024000000AF00237B6000233B60354A344B1B68E0
:1024100043F480331360324B1B6803F400333B609A
:102420007B6801337B603B68002B03D17B68B3F58D
:10243000A06FF0D12A4B1B6803F40033002B02D0AD
:1024400001233B6001E000233B603B68012B42D14C
:10245000234A234B1B6C43F080531364214A214BC6
:102460001B6843F4804313601D4A1D4B9B689360B7
:102470001B4A1B4B9B6843F400439360184A184B5C
:102480009B6843F4A0539360154B174A5A60144A53
:10249000134B1B6843F08073136000BF104B1B6825
:1024A00003F00073002BF9D0104B40F205621A6064
:1024B0000B4A0B4B9B6823F003039360084A084BBD
:1024C0009B6843F00203936000BF054B9B6803F0D9
:1024D0000C03082BF9D100BF0C37BD4680BC7047F8
:1024E000003802400070004008544007003C0240A1
:1024F00080B58AB000AF786039600023FB84002388
:102500007B840423BB84574BFB617B689B88FB84E3
:10251000FB8C23F03F03FB8407F10C031846FEF706
:10252000F5FA7B69FB61FB694F4AA2FB03239B0C15
:102530007B84FA8C7B8C1343FB847B68FA8C9A80B7
:102540007B681B889BB223F001039AB27B681A80D8
:102550000023FB843B681B68444A934215D83B68C0
:102560001B685B00FA69B2FBF3F3BB84BB8C032BE3
:1025700001D80423BB84FA8CBB8C1343FB847B8C73
:1025800001339AB27B681A8440E03B68DB884BF6E3
:10259000FF72934209D13B681A6813465B001344EB
:1025A000FA69B2FBF3F3BB840EE03B681A6813468A
:1025B0009B0013449A001344FA69B2FBF3F3BB8403
:1025C000BB8C43F48043BB84BB8CC3F30B03002B55
:1025D00003D1BB8C43F00103BB84BA8CFB8C134347
:1025E0009BB26FEA43436FEA5343FB847B8C4FF407
:1025F000967202FB03F31E4A82FB03129211DB1751
:10260000D31A9BB201339AB27B681A847B68FA8C26
:102610009A837B681B889BB243F001039AB27B6864
:102620001A807B681B88FB84FB8C23F4816323F076
:102630000203FB843B689A883B685B8913439AB228
:10264000FB8C1343FB847B68FA8C1A803B689A8965
:102650003B681B8913439AB27B681A8100BF2837F5
:10266000BD4680BD00127A0083DE1B43A0860100B8
:10267000D34D621080B487B000AF7860396000231A
:102680003B610023FB600023BB600023FB757B687C
:102690009B8A9BB2FB607B681B8B9BB2BB60BB6859
:1026A0001B04BB60FA68BB68134323F07F433B61A4
:1026B0003A693B681A403B689A4202D10123FB7594
:1026C00001E00023FB75FB7D18461C37BD4680BC2E
:1026D000704700BF80B483B000AF7860054A7B6864
:1026E00043F0BF6343F40033D36000BF0C37BD46F3
:1026F00080BC704700ED00E080B485B000AF78602A
:102700000023FB730023BB730F237B737B68DB7891
:10271000002B38D0264BDB68DB4303F4E0631B0A55
:10272000FB73FB7BC3F10403BB737A7BFB7B42FA35
:1027300003F37B737B685B781A46BB7B02FA03F377
:10274000FB737B689A787B7B1340DAB2FB7B134385
:10275000FB73FB7B1B01FB73164A7B681B781344DE
:10276000FA7B83F80023134A7B681B785B09DBB292
:1027700018467B681B7803F01F03012101FA03F35D
:1027800042F820300FE00B497B681B785B09DBB215
:1027900018467B681B7803F01F0301229A4000F162
:1027A000200341F8232000BF1437BD4680BC70478A
:1027B00000ED00E000E100E080B483B000AF03462C
:1027C000FB71084997F907305B09FA7902F01F029B
:1027D000012000FA02F241F8232000BF0C37BD4669
:1027E00080BC704700E100E080B500AF012101200E
:1027F000FEF736FA01214FF00050FEF74FFA0121A3
:102800000220FEF74BFA01210220FEF729FA0121EE
:102810000820FEF725FA01210420FEF73FFA0121E6
:102820000420FEF71DFA01214FF48020FEF736FA4E
:1028300000BF80BD80B500AFFFF7D6FF0F213C2061
:1028400000F00AF800F03CF800F080F800F060F8C2
:1028500000F0CEF800BF80BD80B586B000AF7860D4
:1028600039607B683B613B689BB2BB810023BB82C4
:102870001023FB8107F10C031946104800F00CFAF5
:102880004FF4C060FFF726FF1D233B7200237B72CD
:102890000023BB720123FB7207F108031846FFF700
:1028A0002BFF0121054800F00BFC01220121034808
:1028B00000F0B8FB00BF1837BD4680BD00040040E3
:1028C00080B586B000AF10233B6103233B75032323
:1028D0007B750023FB7507F1100319460B48FFF7C2
:1028E0006DFC00233B6000237B600023BB60002362
:1028F000FB603B4619460020FDF77CFE01210020CD
:10290000FDF7AAFE00BF1837BD4680BD000002409B
:1029100080B582B000AFFFF767FF00F017F843F60D
:1029200030033B6001233B710023BB7103237B71A8
:102930000023FB713B4619460348FFF73FFC00BFED
:102940000837BD4680BD00BF0004024080B58AB094
:1029500000AF63233B621423BB830023BB8410239B
:10296000FB8307F11C0319461F4800F095F901216C
:102970001D4800F0FBF94FF440537B610023BB7608
:1029800003237B760023FB7602220C211748FFF7F6
:10299000BFFC02220D211548FFF7BAFC02233B764B
:1029A00007F1140319461148FFF708FC60233B8028
:1029B00001237B800023BB600023BB813B4619467B
:1029C000094800F0F3F90821074800F0F1FA3B4606
:1029D0001946054800F064FA0821034800F004FB9A
:1029E00000BF2837BD4680BD00080040000C0240F3
:1029F00080B588B000AF4FF44063BB6102233B77E2
:102A00000023BB770123FB7702237B7707F11803B1
:102A100019461E48FFF7D2FB07220A211B48FFF781
:102A200077FC07220B211948FFF772FC4FF416536D
:102A3000BB600023BB810023FB8100233B8200237A
:102A4000BB820C237B8207F1080319461048FDF76F
:102A500055FC01210E48FDF70BFD012240F22551E6
:102A60000B48FDF725FD27233B7100237B710023D5
:102A7000BB710123FB713B1D1846FFF73DFE27206C
:102A8000FFF79AFE00BF2037BD4680BD0008024018
:102A90000048004080B586B002AF78600846114615
:102AA0001A4603467B800B467B7013463B707B883F
:102AB000002B3ED0786800F051F80023FB6029E03D
:102AC0007A88FB6842FA03F303F00103002B1DD060
:102AD000FB68DA08FB68D9087B68083153F82130B5
:102AE000F96801F0070189000F2000FA01F1C943DC
:102AF0000B40387FF96801F00701890000FA01F105
:102B000019437B68083243F8221000E000BFFB68DD
:102B10000133FB60FB680F2BD2D97A7879883B7E32
:102B200001933B78009313460222786800F02EF858
:102B300000E000BF1037BD4680BD00BF80B483B049
:102B400000AF78607B6803F13F4303F57E039B0A87
:102B50009BB218460C37BD4680BC704780B582B02A
:102B600000AF78607868FFF7E9FF03461A46012353
:102B700003FA02F1044A044B1B6B0B43136300BFBF
:102B80000837BD4680BD00BF0038024080B584B024
:102B900000AF7860084611461A4603467B800B4614
:102BA0007B7013463B707868FFF7C8FF0346BB7322
:102BB0000023FB7367E07A88FB7B42FA03F303F0A0
:102BC0000103002B5BD0BB7BBA7B324931F812206A
:102BD00011B2FA7B012000FA02F212B20A4312B2D9
:102BE00091B22C4A22F813107B68DB68FA7B520002
:102BF000032101FA02F2D2431340397EFA7B5200DC
:102C000001FA02F21A437B68DA607B681A68FB7B80
:102C10005B00032101FA03F3DB4313407978FA7B6D
:102C2000520001FA02F21A437B681A607B78012B8A
:102C300002D07B78022B23D17B685B68FA7B012171
:102C400001FA02F292B2D24313403978FA7B01FAC8
:102C500002F292B21A437B685A607B689A68FB7BE7
:102C60005B00032101FA03F3DB431340397FFA7B56
:102C7000520001FA02F21A437B689A6000E000BF3A
:102C8000FB7B0133FB73FB7B0F2B94D900BF103709
:102C9000BD4680BDB804002080B485B000AF786028
:102CA00039600023FB817B681B88FB817B68284A95
:102CB000934213D07B68274A93420FD07B68B3F1CD
:102CC000804F0BD07B68244A934207D07B68234A0D
:102CD000934203D07B68224A934208D1FB8923F0B8
:102CE0007003FB813B685A88FB891343FB817B6837
:102CF0001C4A93420CD07B681B4A934208D0FB8944
:102D000023F44073FB813B681A89FB891343FB81E1
:102D10007B68FA891A803B685A687B68DA623B688C
:102D20001A887B681A857B68094A934203D07B68BE
:102D3000084A934204D13B689B7A9AB27B681A8610
:102D40007B6801229A8200BF1437BD4680BC704761
:102D50000000014000040140000400400008004061
:102D6000000C0040001000400014004080B483B00C
:102D700000AF78600B46FB70FB78002B08D07B68B7
:102D80001B889BB243F001039AB27B681A8007E06C
:102D90007B681B889BB223F001039AB27B681A8080
:102DA00000BF0C37BD4680BC704700BF80B485B003
:102DB00000AF7860396000237B810023FB81002312
:102DC000BB817B681B8C9BB223F001039AB27B68AA
:102DD0001A847B681B8CFB817B689B88BB817B682A
:102DE0001B8B7B817B8923F070037B817B8923F0A4
:102DF00003037B813B681A887B8913437B81FB89B2
:102E000023F00203FB813B689A89FB891343FB8112
:102E10003B685A88FB891343FB817B681E4A9342B7
:102E200003D07B681D4A934223D1FB8923F008031A
:102E3000FB813B68DA89FB891343FB81FB8923F023
:102E40000403FB813B689A88FB891343FB81BB89A0
:102E500023F48073BB81BB8923F40073BB813B687F
:102E60001A8ABB891343BB813B685A8ABB891343C7
:102E7000BB817B68BA899A807B687A891A833B68B0
:102E80009A687B685A637B68FA891A8400BF143792
:102E9000BD4680BC704700BF0000014000040140F7
:102EA00080B485B000AF7860396000237B81002357
:102EB000FB810023BB817B681B8C9BB223F010033A
:102EC0009AB27B681A847B681B8CFB817B689B8829
:102ED000BB817B681B8B7B817B8923F4E0437B81F7
:102EE0007B8923F440737B813B681B881B029AB269
:102EF0007B8913437B81FB8923F02003FB813B68A3
:102F00009B891B019AB2FB891343FB813B685B8859
:102F10001B019AB2FB891343FB817B68224A9342CF
:102F200003D07B68214A93422BD1FB8923F0800395
:102F3000FB813B68DB891B019AB2FB891343FB8150
:102F4000FB8923F04003FB813B689B881B019AB2FD
:102F5000FB891343FB81BB8923F48063BB81BB895D
:102F600023F40063BB813B681B8A9B009AB2BB8938
:102F70001343BB813B685B8A9B009AB2BB891343B6
:102F8000BB817B68BA899A807B687A891A833B689F
:102F90009A687B689A637B68FA891A8400BF143741
:102FA000BD4680BC704700BF0000014000040140E6
:102FB00080B485B000AF78600B467B800023FB8136
:102FC0007B681B8BFB81FB8923F00803FB81FA895B
:102FD0007B881343FB817B68FA891A8300BF14370F
:102FE000BD4680BC704700BF80B485B000AF78603C
:102FF0000B467B800023FB817B681B8BFB81FB895D
:1030000023F40063FB817B881B029AB2FB89134384
:10301000FB817B68FA891A8300BF1437BD4680BCE8
:10302000704700BF80B483B000AF78600B467B80F0
:1030300013467B707B78002B08D07B689B899AB203
:103040007B8813439AB27B689A8109E07B689B89ED
:103050009AB27B88DB439BB213409AB27B689A8119
:1030600000BF0C37BD4680BC704700BF80B485B040
:1030700000AF78600B467B800023FB730023BB818D
:1030800000237B817B681B8A9AB27B881340BB81BB
:103090007B689B899AB27B8813407B81BB89002B1C
:1030A00005D07B89002B02D00123FB7301E00023B4
:1030B000FB73FB7B18461437BD4680BC704700BFCE
:1030C00080B483B000AF78600B467B807B88DB43A5
:1030D0009AB27B681A8200BF0C37BD4680BC70472D
:1030E0002DE9F043DFF8A4808BB004460D4600F0D4
:1030F000AFF898F90030013306460F462ED022462D
:103100002B462046294601F05BFA814630BB20461B
:10311000294600F0F7FD0022194B01F047FAE8B10B
:10312000184B1948CDF8209001228DE80C00CDE90C
:103130000445CDE9024500F0EBFD98F90030022B83
:10314000CDE906010FD0684600F0E0FD58B1089BBC
:1031500083B9DDE906010BB0BDE8F083304639469E
:103160000BB0BDE8F08301F085FD21230360089BCF
:10317000002BEED001F07EFD089B0360E9E700BF65
:103180000000F03F804C0008844C00084400002000
:1031900000F08EBA2DE9F04F8BB004460D4600F0DA
:1031A00051FB284B93F900A0BAF1FF3F06460F46AA
:1031B00012D022462B462046294601F001FA8346CA
:1031C00050B94FF000084FF0000942464B462046E8
:1031D000294601F0CDF920B9304639460BB0BDE89B
:1031E000F08F194BCDF820B00122CDE90445CDE98F
:1031F00002458DE80C00BAF1000F15D042464B464F
:103200004046494601F06CF8BAF1020FCDE90601DB
:103210000CD101F02FFD21230360089B63B9DDE988
:1032200006010BB0BDE8F08FCDE90689684600F0D5
:103230006DFD0028F1D1ECE701F01CFD089B036057
:10324000EDE700BF44000020884C000800000000AB
:103250002DE9F047C04B21F00048984584B00D4659
:10326000044614DD08F1404808F58018034658EA82
:10327000030323D002460B4600F054FD02460B46E2
:1032800001F02EF80446204604B0BDE8F087B34BA9
:1032900098458A462BDCB8F1795F80F2678192A36A
:1032A000D3E9002300F040FD0022AD4B01F07EF990
:1032B000E8B12946204604B0BDE8F0878CA3D3E9E5
:1032C000002300F0E3FE8CA3D3E9002306460F465B
:1032D0002046294600F0DAFE02460B4630463946C3
:1032E00000F022FD0446204604B0BDE8F0872046E9
:1032F000294600F007FD02460B460020984900F0E1
:1033000011FD0022974B00F0C1FE7DA3D3E90023FD
:1033100004460D4600F0BAFE7BA3D3E9002300F07B
:1033200003FD22462B4600F0B1FE79A3D3E900232A
:1033300000F0F8FC22462B4600F0A8FE76A3D3E965
:10334000002300F0F1FC22462B4600F09FFE74A300
:10335000D3E9002300F0E6FC22462B4600F096FE5F
:1033600071A3D3E9002300F0DFFC22462B4600F0D6
:103370008DFE6FA3D3E90023CDE900012046294645
:1033800000F084FE6CA3D3E9002300F0CBFC2246BE
:103390002B4600F07BFE6AA3D3E9002300F0C4FCB7
:1033A00022462B4600F072FE67A3D3E9002300F00B
:1033B000B9FC22462B4600F069FE694B002200F062
:1033C000B3FCCDE902012046294600F03BFA664BEA
:1033D000984506460F4666DCDDE90223DDE900017B
:1033E00000F07EFF3246CDE900013B4630463946CB
:1033F00000F09AFC02460B46DDE9000100F046FEB3
:103400004FF00008CDE9000142463B4640463946B0
:1034100000F03CFE02460B462046294600F082FCA6
:10342000424604460D463B463046394600F07CFC99
:1034300002460B462046294600F052FF02460B4644
:1034400000F072FC02460B462BA1D1E9000100F00E
:1034500069FC02460B46DDE9000100F063FC4246D0
:1034600004460D463B464046394600F05DFC0246A8
:103470000B4637A1D1E9000100F054FC02460B468F
:103480002046294600F04EFC02460B4630A1D1E909
:10349000000100F047FC0446BAF1000F3FF7F3AE1D
:1034A00001F10041EFE6DDE90223DDE9000100F072
:1034B00017FF32463B4600F0E9FD32463B4600F03E
:1034C00033FC02460B4600F02FFC0BA3D3E900238C
:1034D00000F028FC02460B4605A1D1E9000100F0EE
:1034E00021FC0446D8E700BF9C7500883CE4377E89
:1034F000182D4454FB21F93F075C143326A6913C58
:1035000009F7FD0DE13D023F88B20175E0EF493F4B
:103510003B8F68B52882A43F5544880E55C1C93FEA
:103520007D6FEB0312D6D43F555555555555C53FC4
:1035300082922EB1C5B8B33F59018D1B6C06E63F90
:10354000C88A599CE52A00404B2D8A1C273A034023
:10355000182D4454FB21E93FFFFFEF3FFFFFDF3F02
:103560000000F03F0000E03F3233EF3F02460B46E1
:1035700000F08CFD38A3D3E9002306460F4600F087
:1035800085FD37A3D3E9002300F0CEFB32463B464E
:1035900000F07CFD34A3D3E9002300F0C3FB3246E6
:1035A0003B4600F073FD32A3D3E9002300F0BCFBDF
:1035B00032463B4600F06AFD2FA3D3E9002300F01A
:1035C000B1FB32463B4600F061FD2DA3D3E9002359
:1035D00000F0AAFB32463B4600F058FD2AA3D3E98F
:1035E0000023804689463046394600F04FFD28A327
:1035F000D3E9002300F096FB32463B4600F046FD3F
:1036000025A3D3E9002300F08FFB32463B4600F0B0
:103610003DFD23A3D3E9002300F084FB32463B4663
:1036200000F034FD0022204B00F07EFB02460B46EA
:103630004046494600F054FE22462B4600F026FD47
:1036400022462B4600F070FB0446204604B0BDE83D
:10365000F08700BFAFF3008009F7FD0DE13D023FA9
:1036600088B20175E0EF493F3B8F68B52882A43FDF
:103670005544880E55C1C93F7D6FEB0312D6D43F28
:10368000555555555555C53F82922EB1C5B8B33FD6
:1036900059018D1B6C06E63FC88A599CE52A0040FB
:1036A0004B2D8A1C273A03400000F03F0000000029
:1036B0002DE9F84F5442144323F00049DFF880E12C
:1036C00049EAD474744506460D463ED84442044344
:1036D00021F0004B4BEAD47474458A4635D803F187
:1036E000404404F58014144344D09C1704F00204B1
:1036F00044EAD17450EA0B012FD052EA090133D0C9
:10370000F14546D0F3452FD0C9EB0B094FEA2959B3
:10371000B9F13C0F34DC002B57DB3046294600F072
:10372000DFFD00F0EFFA00F04FF9012C4AD0022C37
:103730003BD084B132A3D3E9002300F0F3FA32A3E3
:10374000D3E9002300F0EEFA05E0104619463246B0
:103750002B4600F0E9FABDE8F88F022C14D0032CB8
:103760000CD12D482D49F6E7BAF1000F2A480EDB9F
:103770002B49F0E7BDE8F84F00F026B92946EAE703
:1037800023A1D1E90001D0E723482649E3E72649F0
:10379000E1E7CB451FD0022CF6D0032CE1D0012C61
:1037A0004FF0000020D00146D5E715A3D3E9002350
:1037B00000F0B8FA02460B4613A1D1E9000100F06F
:1037C000B1FAC8E701F10041C5E719F13C0FA4DAED
:1037D00000200021A9E7022C0ED0032C09D0012CD7
:1037E0000D4804D01149B6E74FF00041B3E7104946
:1037F000B1E710481049AEE70E481049ABE700BFEB
:10380000075C143326A6A13C182D4454FB21094023
:10381000182D4454FB21F93F182D4454FB2109C0B5
:10382000FB21F93FFB210940FB21F9BFFB21E93FC7
:10383000FB21E9BFD221337F7CD902C07CD9024071
:103840000000F07F2DE9F8435D4EB6460E40764508
:103850000C46054600F0958000290B46024673DDB4
:103860000F157ED0A7F2FF37C3F31303F80743F415
:10387000801364D403EBD27100260B447F105200F6
:10388000B64616204FF400110EEB01049C424FEA9D
:10389000D2754FEA420203DC1B1B04EB010E0E44FF
:1038A000013805EB43034FEA5101EDD18446202452
:1038B0004FF0004109E020D003EBD275013C4FEA04
:1038C00051012B444FEA420220D09E4501EB0C05EA
:1038D000F1DA002D05EB010C09DBF0469542CEEB49
:1038E000030300D9013B521B0844C646E4E7BCF180
:1038F000000FF2DB0EF10108F0E7954217D8002D1A
:1039000005EB010C47DB98460023ECE7134310D18D
:103910004008731003F17F5303F50013F20703EB24
:10392000075948BF40F000404946BDE8F883734658
:10393000C2E7411C33D000F001031844E8E75B0004
:1039400003EBD273520095E721F000460643ECD01A
:1039500069BB0F46D30A153F5205002BFAD0DD0292
:1039600020D4002100E001465B00DC0201F10100EF
:10397000F9D5C0F1200422FA04F423437F1A8240CF
:1039800070E702460B4600F081FB2A46234600F012
:10399000CBF9BDE8F883BCF1000FABDAB3E7013631
:1039A0002046B6E720244FF0FF310020E3E702462F
:1039B0000B4600F0B7F902460B4600F091FCB4E765
:1039C0000000F07F000000002DE9F84FC04B21F00F
:1039D00000469E420D468A4604460FDDBD4B9E4280
:1039E00000F3B28000F0AD80BB4BBC49BC4CBAF1D7
:1039F000000FC8BF19462046BDE8F88FB94B9E425C
:103A000000F3BC80A3F1DE739E4240F3A7804FF029
:103A1000FF3B22462B462046294600F037FB024654
:103A20000B468046894600F031FB91A3D3E9002381
:103A300006460F4600F02AFB8FA3D3E9002300F0CF
:103A400073F932463B4600F021FB8DA3D3E90023F6
:103A500000F06AF932463B4600F018FB8AA3D3E92E
:103A6000002300F061F932463B4600F00FFB88A3CB
:103A7000D3E9002300F058F932463B4600F006FB3C
:103A800085A3D3E9002300F04FF942464B4600F0EE
:103A9000FDFA83A3D3E900238046894630463946A0
:103AA00000F0F4FA80A3D3E9002300F03BF932469A
:103AB0003B4600F0EBFA7EA3D3E9002300F032F995
:103AC00032463B4600F0E2FA7BA3D3E9002300F044
:103AD00029F932463B4600F0D9FA79A3D3E900230D
:103AE00000F020F932463B4600F0D0FABBF1FF3F30
:103AF00002460B4669D04046494600F015F9224679
:103B00002B4600F0C3FA784E784B4FEACB0B5E445D
:103B10009B44DBE9002300F005F922462B4600F028
:103B200001F902460B46D6E9000100F0FBF8BAF1B4
:103B3000000F0446BFF65FAF01F100412046BDE82B
:103B4000F88F00283FF450AF224620462B462946E6
:103B500000F0EAF804462046BDE8F88F5AA3D3E9FE
:103B6000002300F0E1F80022614B00F01FFD002867
:103B70003FF44DAF29462046BDE8F88F00F0C2F86B
:103B80005C4B9E4204460D462FDCA3F550239E421B
:103B900054DC02460B4600F0C7F80022544B00F0FC
:103BA000C1F8002206460F464FF0804320462946C2
:103BB00000F0BAF802460B463046394600F090FB5A
:103BC0004FF0000B04460D4623E74046494600F0FF
:103BD000ABF822462B4600F059FA02460B46204627
:103BE000294600F09FF8044605E7434B9E421ADC45
:103BF0000022424B00F096F8002206460F463F4B4B
:103C00002046294600F042FA0022394B00F08CF899
:103C100002460B463046394600F062FB4FF0020B7D
:103C200004460D46F5E602460B460020344900F0F6
:103C300057FB4FF0030B04460D46EAE600222C4BDF
:103C400000F070F8002206460F46294B2046294610
:103C500000F06AF802460B463046394600F040FB59
:103C60004FF0010B04460D46D3E600BFAFF30080D2
:103C700011DA22E33AAD903FEB0D76244B7BA93F5E
:103C8000513DD0A0660DB13F6E204CC5CD45B73F2C
:103C9000FF8300922449C23F0D5555555555D53FD8
:103CA0002F6C6A2C44B4A2BF9AFDDE522DDEAD3FCC
:103CB0006D9A74AFF2B0B33F711623FEC671BC3F6C
:103CC000C4EB98999999C93F9C7500883CE4377E6C
:103CD000FFFF0F440000F07FFB21F93FFB21F9BFFC
:103CE000182D4454FFFFDB3FB04C0008904C0008F7
:103CF0000000F03FFFFFF23FFF7F03400000F83F6E
:103D00000000F0BF21F00041704700BF0020704765
:103D100000200149704700BF0000F87F81F000419A
:103D200002E000BF83F0004330B54FEA41044FEAA0
:103D3000430594EA050F08BF90EA020F1FBF54EA3B
:103D4000000C55EA020C7FEA645C7FEA655C00F0D7
:103D5000E2804FEA5454D4EB5555B8BF6D420CDDA8
:103D60002C4480EA020281EA030382EA000083EA2B
:103D7000010180EA020281EA0303362D88BF30BDCB
:103D800011F0004F4FEA01314FF4801C4CEA113121
:103D900002D0404261EB410113F0004F4FEA033380
:103DA0004CEA133302D0524263EB430394EA050F0B
:103DB00000F0A780A4F10104D5F1200E0DDB02FA7A
:103DC0000EFC22FA05F2801841F1000103FA0EF20E
:103DD000801843FA05F359410EE0A5F120050EF1D4
:103DE000200E012A03FA0EFC28BF4CF0020C43FA05
:103DF00005F3C01851EBE37101F0004507D54FF012
:103E0000000EDCF1000C7EEB00006EEB0101B1F561
:103E1000801F1BD3B1F5001F0CD349085FEA3000A7
:103E20004FEA3C0C04F101044FEA445212F5800FB2
:103E300080F09A80BCF1004F08BF5FEA500C50F14F
:103E4000000041EB045141EA050130BD5FEA4C0C32
:103E5000404141EB010111F4801FA4F10104E9D1BB
:103E600091F0000F04BF01460020B1FA81F308BFB2
:103E70002033A3F10B03B3F120020CDA0C3208DD7E
:103E800002F1140CC2F10C0201FA0CF021FA02F159
:103E90000CE002F11402D8BFC2F1200C01FA02F1C9
:103EA00020FA0CFCDCBF41EA0C019040E41AA2BFEE
:103EB00001EB0451294330BD6FEA04041F3C1CDAB6
:103EC0000C340EDC04F11404C4F1200220FA04F0D6
:103ED00001FA02F340EA030021FA04F345EA030180
:103EE00030BDC4F10C04C4F1200220FA02F001FA42
:103EF00004F340EA0300294630BD21FA04F02946C4
:103F000030BD94F0000F83F4801306BF81F480115C
:103F10000134013D4EE77FEA645C18BF7FEA655CCF
:103F200029D094EA050F08BF90EA020F05D054EAA1
:103F3000000C04BF1946104630BD91EA030F1EBFA6
:103F40000021002030BD5FEA545C05D140004941AA
:103F500028BF41F0004130BD14F580043CBF01F59D
:103F6000801130BD01F0004545F0FE4141F4700183
:103F70004FF0000030BD7FEA645C1ABF194610465E
:103F80007FEA655C1CBF0B46024650EA013406BF5F
:103F900052EA033591EA030F41F4002130BD00BF1E
:103FA00090F0000F04BF0021704730B54FF48064DB
:103FB00004F132044FF000054FF0000150E700BF5C
:103FC00090F0000F04BF0021704730B54FF48064BB
:103FD00004F1320410F0004548BF40424FF00001A8
:103FE0003EE700BF42004FEAE2014FEA31014FEAEB
:103FF00002701FBF12F07F4393F07F4F81F060513A
:10400000704792F0000F14BF93F07F4F704730B5A8
:104010004FF4607401F0004521F0004120E700BF3B
:1040200050EA010208BF704730B54FF000050AE0C2
:1040300050EA010208BF704730B511F0004502D5C3
:10404000404261EB41014FF4806404F132045FEAC5
:10405000915C3FF4DCAE4FF003025FEADC0C18BF6A
:1040600003325FEADC0C18BF033202EBDC02C2F160
:10407000200300FA03FC20FA02F001FA03FE40EAF2
:104080000E0021FA02F11444C1E600BF70B54FF0F2
:10409000FF0C4CF4E06C1CEA11541DBF1CEA1355D4
:1040A00094EA0C0F95EA0C0F00F0DEF82C4481EA3C
:1040B000030621EA4C5123EA4C5350EA013518BF5C
:1040C00052EA033541F4801143F4801338D0A0FB49
:1040D00002CE4FF00005E1FB02E506F00042E0FBF6
:1040E00003E54FF00006E1FB03569CF0000F18BFFC
:1040F0004EF0010EA4F1FF04B6F5007F64F54074A4
:1041000004D25FEA4E0E6D4146EB060642EAC62136
:1041100041EA55514FEAC52040EA5E504FEACE2EA3
:10412000B4F1FD0C88BFBCF5E06F1ED8BEF1004FA6
:1041300008BF5FEA500E50F1000041EB045170BD22
:1041400006F0004646EA010140EA020081EA030166
:10415000B4EB5C04C2BFD4EB0C0541EA045170BD62
:1041600041F480114FF0000E013C00F3AB8014F1DC
:10417000360FDEBF002001F0004170BDC4F1000425
:10418000203C35DA0C341BDC04F11404C4F12005A6
:1041900000FA05F320FA04F001FA05F240EA020001
:1041A00001F0004221F0004110EBD37021FA04F637
:1041B00042EB06015EEA430E08BF20EAD37070BDF1
:1041C000C4F10C04C4F1200500FA04F320FA05F050
:1041D00001FA04F240EA020001F0004110EBD37052
:1041E00041F100015EEA430E08BF20EAD37070BDC2
:1041F000C4F1200500FA05F24EEA020E20FA04F39B
:1042000001FA05F243EA020321FA04F001F0004149
:1042100021FA04F220EA020000EBD3705EEA430EBA
:1042200008BF20EAD37070BD94F0000F0FD101F0E9
:104230000046400041EB010111F4801F08BF013C22
:10424000F7D041EA060195F0000F18BF704703F060
:104250000046520043EB030313F4801F08BF013DE7
:10426000F7D043EA0603704794EA0C0F0CEA1355A3
:1042700018BF95EA0C0F0CD050EA410618BF52EA5D
:104280004306D1D181EA030101F000414FF0000063
:1042900070BD50EA410606BF1046194652EA430671
:1042A00019D094EA0C0F02D150EA013613D195EAE5
:1042B0000C0F05D152EA03361CBF104619460AD12D
:1042C00081EA030101F0004141F0FE4141F4700137
:1042D0004FF0000070BD41F0FE4141F4780170BD27
:1042E00070B54FF0FF0C4CF4E06C1CEA11541DBF8C
:1042F0001CEA135594EA0C0F95EA0C0F00F0A7F88E
:10430000A4EB050481EA030E52EA03354FEA0131BA
:1043100000F088804FEA03334FF0805545EA1313CD
:1043200043EA12634FEA022245EA111545EA106595
:104330004FEA00260EF000419D4208BF964244F12C
:10434000FD0404F5407402D25B084FEA3202B61A4B
:1043500065EB03055B084FEA32024FF480104FF41F
:10436000002CB6EB020E75EB030E22BFB61A754693
:1043700040EA0C005B084FEA3202B6EB020E75EB26
:10438000030E22BFB61A754640EA5C005B084FEA8E
:104390003202B6EB020E75EB030E22BFB61A75465B
:1043A00040EA9C005B084FEA3202B6EB020E75EB66
:1043B000030E22BFB61A754640EADC0055EA060E27
:1043C00018D04FEA051545EA16754FEA06164FEA6A
:1043D000C30343EA52734FEAC2025FEA1C1CC0D116
:1043E00011F4801F0BD141EA00014FF000004FF0A3
:1043F000004CB6E711F4801F04BF01430020B4F164
:10440000FD0C88BFBCF5E06F3FF6AFAEB5EB030C1B
:1044100004BFB6EB020C5FEA500C50F1000041EB18
:10442000045170BD0EF0004E4EEA113114EB5C04E5
:10443000C2BFD4EB0C0541EA045170BD41F48011B8
:104440004FF0000E013C90E645EA060E8DE60CEAC0
:10445000135594EA0C0F08BF95EA0C0F3FF43BAFDD
:1044600094EA0C0F0AD150EA01347FF434AF95EA94
:104470000C0F7FF425AF104619462CE795EA0C0F78
:1044800006D152EA03353FF4FDAE1046194622E745
:1044900050EA410618BF52EA43067FF4C5AE50EA1F
:1044A00041047FF40DAF52EA43057FF4EBAE12E70F
:1044B0004FF0FF3C06E000BF4FF0010C02E000BFF0
:1044C0004FF0010C4DF804CD4FEA410C7FEA6C5CD3
:1044D0004FEA430C18BF7FEA6C5C1BD001B050EA76
:1044E000410C0CBF52EA430C91EA030F02BF90EA61
:1044F000020F0020704710F1000F91EA030F58BF20
:10450000994208BF90422CBFD8176FEAE37040F081
:10451000010070474FEA410C7FEA6C5C02D150EA1F
:10452000013C07D14FEA430C7FEA6C5CD6D152EADA
:10453000033CD3D05DF8040B704700BF844610469F
:1045400062468C461946634600E000BF01B5FFF79E
:10455000B7FF002848BF10F1000F01BD4DF808ED6E
:10456000FFF7F4FF0CBF012000205DF808FB00BF3F
:104570004DF808EDFFF7EAFF34BF012000205DF899
:1045800008FB00BF4DF808EDFFF7E0FF94BF0120E6
:1045900000205DF808FB00BF4DF808EDFFF7CEFFE7
:1045A00094BF012000205DF808FB00BF4DF808ED26
:1045B000FFF7C4FF34BF012000205DF808FB00BFF7
:1045C0004FEA410C7FEA6C5C02D150EA013C0AD10F
:1045D0004FEA430C7FEA6C5C02D152EA033C02D101
:1045E0004FF0000070474FF0010070474FEA410262
:1045F000B2F1E04324BFB3F5001CDCF1FE5C0DD941
:1046000001F0004C4FEAC0024CEA5070B2F1004F8A
:1046100040EB830008BF20F00100704711F0804F8D
:1046200021D113F13872BCBF01F00040704741F452
:1046300080114FEA5252C2F11802C2F1200C10FA56
:104640000CF320FA02F018BF40F001004FEAC1233A
:104650004FEAD32303FA0CFC40EA0C0023FA02F3DE
:104660004FEA4303CCE77FEA625307D150EA0133B4
:104670001EBF4FF0FE4040F44000704701F0004084
:1046800040F0FE4040F40000704700BF80F0004062
:1046900002E000BF81F0004142001FBF5FEA41031A
:1046A00092EA030F7FEA226C7FEA236C6AD04FEA1A
:1046B0001262D2EB1363C1BFD2184140484041405F
:1046C000B8BF5B42192B88BF704710F0004F40F411
:1046D000000020F07F4018BF404211F0004F41F42D
:1046E000000121F07F4118BF494292EA030F3FD0F9
:1046F000A2F1010241FA03FC10EB0C00C3F120030C
:1047000001FA03F100F0004302D5494260EB40009A
:10471000B0F5000F13D3B0F1807F06D340084FEA05
:10472000310102F10102FE2A51D2B1F1004F40EBFA
:10473000C25008BF20F0010040EA03007047490062
:1047400040EB000010F4000FA2F10102EDD1B0FA2D
:1047500080FCACF1080CB2EB0C0200FA0CF0AABF22
:1047600000EBC25052421843BCBFD04018437047C0
:1047700092F0000F81F4000106BF80F400000132C6
:10478000013BB5E74FEA41037FEA226C18BF7FEA9D
:10479000236C21D092EA030F04D092F0000F08BFDF
:1047A0000846704790EA010F1CBF0020704712F0C6
:1047B0007F4F04D1400028BF40F00040704712F105
:1047C00000723CBF00F50000704700F0004343F06A
:1047D000FE4040F4000070477FEA226216BF0846A0
:1047E0007FEA23630146420206BF5FEA412390EA63
:1047F000010F40F4800070474FF0000304E000BF59
:1048000010F0004348BF40425FEA000C08BF704709
:1048100043F0964301464FF000001CE050EA0102CD
:1048200008BF70474FF000030AE000BF50EA0102E2
:1048300008BF704711F0004302D5404261EB4101CF
:104840005FEA010C02BF84460146002043F0B643F4
:1048500008BFA3F18053A3F50003BCFA8CF2083A19
:10486000A3EBC25310DB01FA02FC634400FA02FC22
:10487000C2F12002BCF1004F20FA02F243EB020029
:1048800008BF20F00100704702F1200201FA02FC8B
:10489000C2F1200250EA4C0021FA02F243EB02007E
:1048A00008BF20EADC7070474FF0FF0C1CEAD052C2
:1048B0001EBF1CEAD15392EA0C0F93EA0C0F6FD083
:1048C0001A4480EA010C400218BF5FEA41211ED061
:1048D0004FF0006343EA501043EA5111A0FB01314D
:1048E0000CF00040B1F5000F3EBF490041EAD37122
:1048F0005B0040EA010062F17F02FD2A1DD8B3F19E
:10490000004F40EBC25008BF20F00100704790F00C
:10491000000F0CF0004C08BF49024CEA502040EA5E
:1049200051207F3AC2BFD2F1FF0340EAC250704724
:1049300040F400004FF00003013A5DDC12F1190F62
:10494000DCBF00F000407047C2F10002410021FAD4
:1049500002F1C2F1200200FA02FC5FEA310040F1EC
:10496000000053EA4C0308BF20EADC70704792F065
:10497000000F00F0004C02BF400010F4000F013A9D
:10498000F9D040EA0C0093F0000F01F0004C02BF98
:10499000490011F4000F013BF9D041EA0C018FE707
:1049A0000CEAD15392EA0C0F18BF93EA0C0F0AD00D
:1049B00030F0004C18BF31F0004CD8D180EA010033
:1049C00000F00040704790F0000F17BF90F0004FCC
:1049D000084691F0000F91F0004F14D092EA0C0FAE
:1049E00001D142020FD193EA0C0F03D14B0218BF41
:1049F000084608D180EA010000F0004040F0FE4087
:104A000040F40000704740F0FE4040F44000704722
:104A10004FF0FF0C1CEAD0521EBF1CEAD15392EAA1
:104A20000C0F93EA0C0F69D0A2EB030280EA010C91
:104A300049024FEA402037D04FF0805343EA11112A
:104A400043EA10130CF000408B4238BF5B0042F188
:104A50007D024FF4000C8B4224BF5B1A40EA0C002D
:104A6000B3EB510F24BFA3EB510340EA5C00B3EB5F
:104A7000910F24BFA3EB910340EA9C00B3EBD10F4D
:104A800024BFA3EBD10340EADC001B0118BF5FEA9F
:104A90001C1CE0D1FD2A3FF650AF8B4240EBC250C8
:104AA00008BF20F0010070470CF0004C4CEA502089
:104AB0007F32C2BFD2F1FF0340EAC250704740F4D8
:104AC00000004FF00003013A37E792F0000F00F0CA
:104AD000004C02BF400010F4000F013AF9D040EA48
:104AE0000C0093F0000F01F0004C02BF490011F4DC
:104AF000000F013BF9D041EA0C0195E70CEAD153D4
:104B000092EA0C0F08D142027FF47DAF93EA0C0FBA
:104B10007FF470AF084676E793EA0C0F04D14B029E
:104B20003FF44CAF08466EE730F0004C18BF31F050
:104B3000004CCAD130F000427FF45CAF31F000434A
:104B40007FF43CAF5FE700BF4FF0FF3C06E000BFE3
:104B50004FF0010C02E000BF4FF0010C4DF804CD06
:104B60004FEA40024FEA41037FEA226C18BF7FEA16
:104B7000236C11D001B052EA530C18BF90EA010F18
:104B800058BFB2EB030088BFC81738BF6FEAE170A7
:104B900018BF40F0010070477FEA226C02D15FEA43
:104BA000402C05D17FEA236CE4D15FEA412CE1D0AF
:104BB0005DF8040B704700BF844608466146FFE776
:104BC0000FB5FFF7C9FF002848BF10F1000F0FBD58
:104BD0004DF808EDFFF7F4FF0CBF012000205DF851
:104BE00008FB00BF4DF808EDFFF7EAFF34BF0120D6
:104BF00000205DF808FB00BF4DF808EDFFF7E0FF6F
:104C000094BF012000205DF808FB00BF4DF808EDBF
:104C1000FFF7D2FF94BF012000205DF808FB00BF22
:104C20004DF808EDFFF7C8FF34BF012000205DF804
:104C300008FB00BF42000ED2B2F1FE4F0BD34FF083
:104C40009E03B3EB126209D44FEA002343F0004302
:104C500023FA02F070474FF00000704712F1610F25
:104C600001D1420202D14FF0FF3070474FF00000F7
:104C7000704700BF014B1868704700BF70040020E8
:104C80006173696E000000007371727400000000AF
:104C9000E2652F227F2B7A3C075C143326A6813CE9
:104CA000BDCBF07A8807703C075C143326A6913C94
:104CB0004FBB610567ACDD3F182D4454FB21E93F34
:104CC0009BF681D20B73EF3F182D4454FB21F93F23
:104CD00000803B44000000C0000090413333333F6C
:104CE0000000803F000000000102030401020304F1
:104CF00006070809FFFFFFFFFFFFFFFFFFFFFFFFA2
:104D0000007A030A00000000000000000102030412
:104D1000060708090100000000000000340300201D
:104D20009C0300200404002000000000000000009C
:104D30000000000000000000000000000000000073
:104D40000000000000000000000000000000000063
:104D50000000000000000000000000000000000053
:104D60000000000000000000000000000000000043
:104D70000000000000000000000000000000000033
:104D80000000000000000000000000000000000023
:104D90000000000000000000000000000000000013
:104DA0000000000000000000000000000000000003
:104DB00000000000000000000000000000000000F3
:104DC00001000000000000000E33CDAB34126DE690
:104DD000ECDE05000B0000000000000000000000F9
:104DE00000000000000000000000000000000000C3
:104DF00000000000000000000000000000000000B3
:104E000000000000000000000000000000000000A2
:104E10000000000000000000000000000000000092
:045140004800002003
:0400000508000000EF
:00000001FF
