:020000040800F2
:10000000585B012091080008ED080008ED08000881
:10001000ED080008ED080008ED08000800000000E9
:10002000000000000000000000000000ED080008D3
:10003000ED08000800000000ED080008391A00086B
:10004000ED080008ED080008ED080008ED080008BC
:10005000ED080008ED080008ED080008ED080008AC
:10006000ED080008ED080008ED080008ED0800089C
:10007000ED080008ED080008ED080008ED0800088C
:10008000ED080008ED080008ED080008ED0800087C
:10009000ED080008ED080008ED080008ED0800086C
:1000A000ED080008ED080008ED080008ED0800085C
:1000B000ED08000889010008ED080008ED080008B7
:1000C000ED080008ED080008ED080008ED0800083C
:1000D000ED080008ED080008ED08000869040008B4
:1000E000ED080008ED080008ED080008ED0800081C
:1000F000ED080008ED080008ED080008ED0800080C
:10010000ED080008ED080008ED080008ED080008FB
:10011000ED080008ED080008ED080008ED080008EB
:10012000ED080008ED080008ED080008ED080008DB
:10013000ED080008ED080008ED080008ED080008CB
:10014000ED080008ED080008ED080008ED080008BB
:10015000ED080008ED080008ED080008ED080008AB
:10016000ED080008ED080008ED080008ED0800089B
:10017000ED080008ED080008ED080008ED0800088B
:10018000ED080008ED08000880B500AF0121144813
:1001900003F0BAF80346002B1FD0124B1B68124A1B
:1001A000D35C9BB2DB009BB21946002000F056FBEB
:1001B0000C4B1B680D4A934206D10A4B00221A6071
:1001C0000021074802F020FF064B1B680133054A57
:1001D00013600121024803F0C1F800BF80BD00BFD9
:1001E000000400406C040020E4040020F24D0100F3
:1001F000B0B500AF934B5B782F2B40F21D81914B34
:100200005B78392B00F218818E4B5B78303B8E4A3D
:1002100013608C4B9B782F2B40F21081894B9B787D
:10022000392B00F20B81874B9B78303B874A136058
:10023000844B1B792F2B40F20381824B1B79392B86
:1002400000F2FE807F4B1B79303B814A13607D4B6F
:10025000DB786D2B04D17E4B1B685B427C4A1360BC
:10026000784B1B78772B29D1774B1A6813469B0064
:1002700013445B001A46754B1B681344184604F080
:10028000D7FF04460D46724B1B68184604F0D0FF9A
:1002900002460B464FF000006E4903F0C9F80246D3
:1002A0000B462046294605F029F803460C46184619
:1002B000214605F0D3FA0246674B1A60614B1B7862
:1002C000732B2CD1604B1A6813469B0013445B00C0
:1002D0001A465E4B1B681344184604F0A9FF0446F7
:1002E0000D465B4B1B68184604F0A2FF02460B4606
:1002F0004FF00000574903F09BF802460B4620469A
:10030000294604F0FBFF03460C461846214605F03B
:10031000A5FA034683F000434F4A136091E0494B2E
:100320001B78702B2AD1484B1A6813469B00134444
:100330005B001A46454B1B681344184604F078FFCF
:1003400004460D46424B1B68184604F071FF0246F6
:100350000B464FF000003F4903F06AF802460B4697
:100360002046294604F0CAFF03460C46184621469B
:1003700005F074FA0246394B1A6062E0314B1B7883
:10038000692B2AD1304B1A6813469B0013445B003B
:100390001A462E4B1B681344184604F049FF0446C6
:1003A0000D462B4B1B68184604F042FF02460B46D5
:1003B0004FF00000274903F03BF802460B46204669
:1003C000294604F09BFF03460C461846214605F0DB
:1003D00045FA0246224B1A6033E01A4B1B78642B15
:1003E0002FD1194B1A6813469B0013445B001A4621
:1003F000164B1B681344184604F01AFF04460D46BA
:10040000134B1B68184604F013FF02460B464FF0CF
:100410000000104903F00CF802460B46204629461E
:1004200004F06CFF03460C461846214605F016FA08
:1004300002460C4B1A6004E000BF02E000BF00E07F
:1004400000BFB0BDD0040020E0040020D80400208C
:10045000DC04002000002440700400200000002084
:10046000040000200800002080B500AF40F22551B4
:100470000E4800F043F90346002B15D00C4B1B68C7
:100480000A4A928892B2D1B20A4AD154084B1B68E8
:100490000133074A1360064B1B68052B04D1FFF795
:1004A000A7FE034B00221A6000BF80BD0048004039
:1004B00074040020D004002080B58AB000AF7860BA
:1004C000396000237B6200233B620023FB61002331
:1004D000BB617B681B8A9BB27B627B6A23F44053BF
:1004E0007B623B68DB881A467B6A13437B627B6ACC
:1004F0009AB27B681A827B689B899BB27B627B6A1B
:1005000023F4B05323F00C037B623B689A883B686A
:100510001B8913439AB23B685B8913439BB21A460B
:100520007B6A13437B627B6A9AB27B689A817B68A1
:100530009B8A9BB27B627B6A23F440737B623B683D
:100540009B891A467B6A13437B627B6A9AB27B68FB
:100550009A8207F10803184600F026FC7B68304AAF
:10056000934203D07B682F4A934202D17B693B625E
:1005700001E03B693B627B689B899BB21BB2002B0D
:100580000CDA3A6A13469B0013449A001A443B68FB
:100590001B685B00B2FBF3F3FB610BE03A6A1346A6
:1005A0009B0013449A001A443B681B689B00B2FBF3
:1005B000F3F3FB61FB691C4AA2FB03235B091B01EC
:1005C0007B627B6A1B09642202FB03F3FA69D31A7C
:1005D000BB617B689B899BB21BB2002B0CDABB69A9
:1005E000DB003233104AA2FB03235B0903F007034D
:1005F0007A6A13437B620BE0BB691B0132330A4A00
:10060000A2FB03235B0903F00F037A6A13437B62A7
:100610007B6A9AB27B681A8100BF2837BD4680BDCD
:1006200000100140001401401F85EB5180B483B0DD
:1006300000AF78600B46FB70FB78002B08D07B681E
:100640009B899BB243F400539AB27B689A8107E07E
:100650007B689B899BB223F400539AB27B689A8192
:1006600000BF0C37BD4680BC704700BF80B487B068
:1006700000AF78600B467B8013467B7000233B61A4
:100680000023FB600023BB6000237B617B687B61F0
:100690007B88DBB25B09DBB23B617B8803F01F0325
:1006A000FB600122FB6802FA03F3BB603B69012B8C
:1006B00003D17B690C337B6109E03B69022B03D1D9
:1006C0007B6910337B6102E07B6914337B617B784B
:1006D000002B06D07B697A691168BA680A431A60F0
:1006E00006E07B697A691168BA68D2430A401A60E9
:1006F00000BF1C37BD4680BC704700BF80B487B0C8
:1007000000AF78600B467B800023FB6000237B6199
:100710000023BB600023FB747B88DBB25B09DBB288
:10072000BB607B8803F01F037B6101227B6902FAB7
:1007300003F37B61BB68012B07D17B689B899BB26C
:100740001A467B6913407B6111E0BB68022B07D11D
:100750007B681B8A9BB21A467B6913407B6106E06B
:100760007B689B8A9BB21A467B6913407B617B88BE
:100770001B0A9BB2FB600122FB6802FA03F3FB60D9
:100780007B681B889BB21A46FB681340FB607B6941
:10079000002B05D0FB68002B02D00123FB7401E085
:1007A0000023FB74FB7C18461C37BD4680BC704799
:1007B00080B485B000AF786039600023FB6000230F
:1007C000BB60134B1B68FB6040F6FE727B6802FA4D
:1007D00003F3DB43FA681340FB603B681A683B682D
:1007E0005B681A433B689B681A433B68DB681343AA
:1007F000BB60BA687B6802FA03F3FA681343FB60D4
:10080000034AFB68136000BF1437BD4680BC7047C5
:100810000074004080B483B000AF78600B46FB707A
:10082000FB78002B09D00C490B4B1A6801207B6820
:1008300000FA03F313430B6009E00749064B1A68FB
:1008400001207B6800FA03F3DB4313400B6000BF19
:100850000C37BD4680BC70470074004080B485B042
:1008600000AF78600B467B800023FB60074BFB608A
:10087000FA687B6813440833FB60FB681A467B8880
:10088000136000BF1437BD4680BC70470074004041
:1008900080B582B000AF104B7B60104B3B6007E02F
:1008A0003B681A1D3A607A68111D796012681A60F7
:1008B0003B680B4A9342F3D30A480B494FF00002BE
:1008C0008842B8BF40F8042BFADB00F0BDF800BF47
:1008D0000837BD4680BD00BF585F000800000020FB
:1008E0006C0400206C0400205853012080B400AF39
:1008F000FEE700BF90B583B000AF7860444A7B68E4
:100900001360444B1A68424B1B681946104604F0AA
:10091000F9FF03461A46404B1A60404B1B6840499A
:10092000184605F0B5FA0346002B02D03B4B3C4A73
:100930001A603A4B1B683B49184605F08BFA034690
:10094000002B02D0354B374A1A60344B1A68324BB1
:100950001B681946104604F0D7FF03461A462F4B72
:100960001A602D4B1A68304B1B681946104604F06C
:10097000C9FF03461A462D4B1A602D4B1A68264BA9
:100980001B681946104605F0C7F803461C46294B5C
:100990001A68224B1B681946104605F0BDF803463D
:1009A0001946204604F0B0FF03461C46224B1A6845
:1009B0001E4B1B681946104605F0AEF80346194653
:1009C000204604F0A1FF03461A461C4B1A601B4B3D
:1009D0001B681B49184605F05BFA0346002B02D042
:1009E000164B174A1A60154B1B681649184605F036
:1009F00031FA0346002B02D0104B124A1A60064B04
:100A00001B68094A136000BF0C37BD4690BD00BF8C
:100A10001053012070040020405301208404002062
:100A20000000C8420000C8C28004002088040020E2
:100A3000000000200400002008000020485301208E
:100A40000000C6420000C6C2B0B588B004AF0023A3
:100A5000FB7301F0F3FD01F067F8A94BA94AAA491D
:100A6000AA4800F0D5FB02F033F80323002200214E
:100A7000A74801F081F80346002B01D10123FB7345
:100A8000A44B7B600023BB60A34B1B68092BFBD9E5
:100A9000A14B00221A60BB680133BB60FB7B002BBB
:100AA00002D09B4801F026F9994BB3F91230184651
:100AB00004F0DEFF03469949184605F02DF8034679
:100AC0004FF08E41184605F0DBF803461A46944B6A
:100AD0001A608F4BB3F91430184604F0C9FF03466F
:100AE0008E49184605F018F803464FF08E41184617
:100AF00005F0C6F803461A468A4B1A60844BB3F9D0
:100B00001630184604F0B4FF03468449184605F031
:100B100003F803464FF08E41184605F0B1F803463E
:100B20001A46814B1A607A4BB3F90C30184604F020
:100B30009FFF03461946184604F0E6FE03464FF0B1
:100B40008E41184605F09CF803461A46774B1A600A
:100B50006F4BB3F90E30184604F08AFF034619466E
:100B6000184604F0D1FE03464FF08E41184605F0BA
:100B700087F803461A466E4B1A60654BB3F910307E
:100B8000184604F075FF03461946184604F0BCFEEB
:100B900003464FF08E41184605F072F803461A4698
:100BA000644B1A605E4B1B686349184604F0B4FF3F
:100BB00003461C465B4B1B685F49184604F0ACFFBC
:100BC00003461D46584B1B685B49184604F0A4FFBA
:100BD00003461846554B1B68554A12685549096823
:100BE00002910192009303462A462146474800F0AD
:100BF00039FB464B5B68184604F02CFB04460D4657
:100C0000474B1B68184604F025FB37A3D3E90023A4
:100C100004F074FB02460B462046294604F0BCF95A
:100C200003460C4625461C46404B1B68184604F0FC
:100C300011FB2FA3D3E9002304F060FB02460B460F
:100C40002046294604F0A8F903460C4618462146DA
:100C500029A3D3E9002304F051FB03460C461846B0
:100C6000214604F0FBFD0246344B1A60334B1B68EF
:100C70001846FFF73FFE324B1B684FF00001184645
:100C800005F0E8F80346002B60D04FF400512D48E2
:100C900001F070FC4FF480512A4801F06BFC4FF4D6
:100CA0000061284801F074FC1021264801F062FC24
:100CB0002021244801F06CFC234C214B1B6883F05D
:100CC0000043184605F0EEF8034663631E4C1C4BC8
:100CD0001B6883F00043184605F0E4F80346A3635D
:100CE000D2E600BFAFF300807B14AE47E17A843FC9
:100CF0007B14AE47E17A943F5C8FC2F5285CEF3FEE
:100D0000000086420000C842CDCCCC3DDC52012020
:100D10001853012048E17A3F900400200000FA4473
:100D20004C53012004530120385301200C5301205F
:100D3000505301200853012035FA8E3C7C040020DA
:100D40004853012000040240000800404FF40051C5
:100D5000124801F00FFC4FF40061104801F00AFC4A
:100D60004FF480510D4801F013FC20210B4801F095
:100D700001FC1021094801F00BFC094C094B1B68D0
:100D8000184605F08FF803466363054C054B1B6856
:100D9000184605F087F80346A36375E60004024091
:100DA000000800404853012080B489B000AF78604B
:100DB0000023BB6100237B610023FB6102233B61B5
:100DC0000023FB600223BB60484B9B6803F00C03CD
:100DD000BB61BB69042B07D0082B09D0002B3FD186
:100DE0007B68434A1A603FE07B68424A1A603BE0F6
:100DF0003E4B5B6803F480039B0DFB603B4B5B68E1
:100E000003F03F03BB60FB68002B0DD0394ABB6881
:100E1000B2FBF3F2354B596847F6C0730B409B09A0
:100E200003FB02F3FB610CE0314ABB68B2FBF3F257
:100E30002E4B596847F6C0730B409B0903FB02F326
:100E4000FB612A4B5B6803F440331B0C01335B00EE
:100E50003B61FA693B69B2FBF3F27B681A6003E01D
:100E60007B68234A1A6000BF204B9B6803F0F003A5
:100E7000BB61BB691B09BB611F4ABB6913441B787B
:100E8000DBB27B617B681A687B69DA407B685A60F9
:100E9000164B9B6803F4E053BB61BB699B0ABB61C3
:100EA000154ABB6913441B78DBB27B617B685A68C7
:100EB0007B69DA407B689A600C4B9B6803F4604363
:100EC000BB61BB695B0BBB610B4ABB6913441B78FD
:100ED000DBB27B617B685A687B69DA407B68DA60E9
:100EE00000BF2437BD4680BC704700BF00380240B9
:100EF0000024F40000127A000C00002080B483B0BB
:100F000000AF78600B46FB70FB78002B06D00949D8
:100F1000084B1A6B7B6813430B6306E00549054BCE
:100F20001A6B7B68DB4313400B6300BF0C37BD4675
:100F300080BC70470038024080B483B000AF786056
:100F40000B46FB70FB78002B06D00949084B1A6C46
:100F50007B6813430B6406E00549054B1A6C7B68FC
:100F6000DB4313400B6400BF0C37BD4680BC7047A9
:100F70000038024090B583B000AF7860786804F024
:100F800069F903460C461846214602F0C9FB0346A0
:100F90000C461846214604F061FC034619464FF002
:100FA0007E5004F06DFE034618460C37BD4690BDDA
:100FB000F0B583B000AF78607B685A697B689B6945
:100FC0001946104604F0A8FD03461C467B68DA6902
:100FD0007B681B6A1946104604F09EFD03461946BD
:100FE000204604F091FC0346184604F033F9044609
:100FF0000D467B689A697B689B691946104604F028
:101000008BFD034619464FF07C5004F07BFC0346F1
:101010001E467B68DA697B68DB691946104604F076
:101020007BFD03461946304604F06CFC0346184627
:1010300004F010F902460B462046294602F0F6F964
:1010400003460C461846214604F008FC02467B681D
:101050001A607B689A697B681B6A1946104604F01F
:101060005BFD03461C467B685A697B68DB69194651
:10107000104604F051FD03461946204604F042FC98
:1010800003464FF04041184604F046FD034618461B
:1010900004F0E0F803460C461846214602F06EF9CB
:1010A00003460C461846214604F0D8FB02467B68EE
:1010B0005A607B689A697B68DB691946104604F0C0
:1010C0002BFD03461C467B685A697B681B6A1946E0
:1010D000104604F021FD03461946204604F014FC96
:1010E0000346184604F0B6F804460D467B68DA69F4
:1010F0007B68DB691946104604F00EFD034619466D
:101100004FF07C5004F0FEFB03461E467B681A6AD3
:101110007B681B6A1946104604F0FEFC034619461C
:10112000304604F0EFFB0346184604F093F80246FD
:101130000B462046294602F079F903460C4618462C
:10114000214604F08BFB02467B689A607B681B6833
:101150002C49184604F0E0FC03461A467B681A60E6
:101160007B685B682749184604F0D6FC03461A469C
:101170007B685A607B689B682249184604F0CCFC67
:1011800003461A467B68DB681946104604F0BAFB32
:1011900003461A467B689A607B689B681A49184622
:1011A00004F058FE0346002B0FD07B689B6819465D
:1011B000154804F0A7FB03461946144804F0A2FBA7
:1011C00003461A467B689A6018E07B689B680F4963
:1011D000184604F05DFE0346002B00D10EE07B684C
:1011E0009B681946094804F08DFB034619460648DA
:1011F00004F088FB03461A467B689A6000BF0C37F0
:10120000BD46F0BDE12E6542000034C3000034430A
:1012100080B584B000AFF860B9607A603B60FB686D
:10122000BA681A6179684FF07E5004F029FD0346D0
:101230001A46FB685A62FB683A68DA60FB684FF04E
:101240007E525A61FB684FF000029A61FB684FF0D2
:101250000002DA61FB684FF000021A6200BF10372B
:10126000BD4680BD90B59BB000AFF860B9607A60B4
:101270003B60FB689B6983F00043B968184604F043
:101280004BFC03461C46FB68DB697968184604F092
:1012900043FC03461946204604F034FB03461C4633
:1012A000FB681B6A3968184604F036FC0346194689
:1012B000204604F027FB03464FF07C51184604F00B
:1012C0002BFC03467B66FB685B69B968184604F033
:1012D00023FC03461C46FB68DB693968184604F0AA
:1012E0001BFC03461946204604F00EFB03461C4631
:1012F000FB681B6A7968184604F00EFC0346194621
:10130000204604F0FFFA03464FF07C51184604F0E3
:1013100003FC03463B66FB685B697968184604F08A
:10132000FBFB03461C46FB689B693968184604F0C2
:10133000F3FB03461946204604F0E4FA03461C4634
:10134000FB681B6AB968184604F0E6FB03461946B9
:10135000204604F0D9FA03464FF07C51184604F0B9
:10136000DBFB0346FB65FB685B693968184604F0E4
:10137000D3FB03461C46FB689B697968184604F05A
:10138000CBFB03461946204604F0BEFA03461C4632
:10139000FB68DB69B968184604F0BEFB03461946D2
:1013A000204604F0AFFA03464FF07C51184604F093
:1013B000B3FB0346BB654FF00001B86F04F040FD7E
:1013C0000346002B11D04FF00001F86F04F038FDF8
:1013D0000346002B09D04FF00001D7F8800004F03D
:1013E0002FFD0346002B40F02E82B96FB86F04F03A
:1013F00093FB03461C46F96FF86F04F08DFB034620
:101400001946204604F080FA03461C46D7F880109F
:10141000D7F8800004F080FB03461946204604F00C
:1014200073FA03461846FFF7A5FD7865796DB86F26
:1014300004F072FB0346BB67796DF86F04F06CFB38
:101440000346FB67796DD7F8800004F065FB03461F
:10145000C7F88030FB685B691946184604F054FAF7
:1014600003463B65FB689B691946184604F04CFA35
:101470000346FB64FB68DB691946184604F044FA2E
:101480000346BB64FB681B6A1946184604F03CFA25
:1014900003467B64FB685B694FF08141184604F0AA
:1014A0003BFB03463B64FB689B694FF08141184658
:1014B00004F032FB0346FB63FB68DB694FF08141BC
:1014C000184604F029FB0346BB63FB689B694FF099
:1014D0008241184604F020FB03467B63FB68DB690E
:1014E0004FF08241184604F017FB03463B63FB684C
:1014F0005A69FB685B691946104604F00DFB034608
:10150000FB62FB689A69FB689B691946104604F008
:1015100003FB0346BB62FB68DA69FB68DB691946BB
:10152000104604F0F9FA03467B62FB681A6AFB680E
:101530001B6A1946104604F0EFFA03463B62796ACB
:10154000386C04F0E9FA03461C46B96FB86C04F035
:10155000E3FA03461946204604F0D6F903461C4632
:10156000B96A386C04F0D8FA03461946204604F0EC
:10157000CBF903461C46F96FF86C04F0CDFA03462C
:101580001946204604F0BEF90346FB61396AF86B40
:1015900004F0C2FA03461C46B96F786C04F0BCFA3A
:1015A00003461946204604F0ADF903461C464FF0A9
:1015B0008141F86A04F0B0FA03461A46FB689B6959
:1015C0001946104604F0A8FA03461946204604F0CE
:1015D0009BF903461C46F96F386D04F09DFA0346EB
:1015E0001946204604F08EF90346F96B184604F0BC
:1015F00089F903461C46B96A786B04F08DFA0346F4
:101600001946204604F080F903461C46796A786B37
:1016100004F082FA03461946204604F075F90346A1
:101620001C46D7F88010F86B04F076FA034619468A
:10163000204604F069F90346BB614FF08141F86A26
:1016400004F06AFA03461A46FB68DB69194610463D
:1016500004F062FA03461C46B96F386D04F05CFA78
:1016600003461946204604F04FF903461C46396AE2
:10167000B86B04F051FA03461946204604F044F9C9
:1016800003461C46F96F786C04F046FA0346194687
:10169000204604F037F90346B96B184604F032F9D6
:1016A00003461C46B96A386B04F036FA03461946FD
:1016B000204604F029F903461C46796A386B04F089
:1016C0002BFA03461946204604F01EF903461C4631
:1016D000D7F88010B86B04F01FFA0346194620466D
:1016E00004F012F903467B614FF08141B86A04F0BF
:1016F00013FA03461A46FB681B6A1946104604F0A3
:101700000BFA03461C46B96FF86C04F005FA034661
:101710001946204604F0F6F803461C464FF0814176
:10172000786A04F0F9F903461A46FB681B6A194601
:10173000104604F0F1F903461946204604F0E4F897
:1017400003461C46F96FB86C04F0E6F903461946E7
:10175000204604F0D7F803463B61F969F86904F0C4
:10176000DBF903461C46B969B86904F0D5F90346AC
:101770001946204604F0C8F803461C467969786982
:1017800004F0CAF903461946204604F0BDF80346A2
:101790001C463969386904F0BFF9034619462046EA
:1017A00004F0B2F803461846FFF7E4FB7865796D5C
:1017B000F86904F0B1F90346FB61796DB86904F08A
:1017C000ABF90346BB61796D786904F0A5F903466E
:1017D0007B61796D386904F09FF903463B61FB68D2
:1017E0001B69F969184604F097F903461946786EA3
:1017F00004F088F803467B66FB681B69B9691846E4
:1018000004F08AF903461946386E04F07BF8034663
:101810003B66FB681B697969184604F07DF903464D
:101820001946F86D04F06EF80346FB65FB681B690A
:101830003969184604F070F903461946B86D04F08A
:1018400061F80346BB65FB685C69FB685B6A796E9F
:10185000184604F061F903461946204604F054F88E
:1018600003461A46FB685A61FB689C69FB685B6A21
:10187000396E184604F050F903461946204604F024
:1018800043F803461A46FB689A61FB68DC69FB680B
:101890005B6AF96D184604F03FF903461946204685
:1018A00004F032F803461A46FB68DA61FB681C6AEA
:1018B000FB685B6AB96D184604F02EF903461946B9
:1018C000204604F021F803461A46FB681A62FB68BA
:1018D0005A69FB685B691946104604F01DF9034616
:1018E0001C46FB689A69FB689B691946104604F020
:1018F00013F903461946204604F006F803461C4631
:10190000FB68DA69FB68DB691946104604F004F9E4
:1019100003461946204603F0F7FF03461C46FB68C2
:101920001A6AFB681B6A1946104604F0F5F803466C
:101930001946204603F0E8FF03461846FFF71AFB56
:101940007865FB685B69796D184604F0E5F8034635
:101950001A46FB685A61FB689B69796D184604F06A
:10196000DBF803461A46FB689A61FB68DB69796D10
:10197000184604F0D1F803461A46FB68DA61FB68A2
:101980001B6A796D184604F0C7F803461A46FB68CF
:101990001A62F868FFF70CFB00BF6C37BD4690BDBC
:1019A00080B483B000AF03463960FB7197F907300C
:1019B000002B0BDA0D49FB7903F00F03043B3A6867
:1019C000D2B21201D2B20B441A7609E0084997F953
:1019D00007303A68D2B21201D2B20B4483F8002326
:1019E00000BF0C37BD4680BC704700BF00ED00E073
:1019F00000E100E080B582B000AF78607B68B3F1B1
:101A0000807F01D3012311E00A4A7B6823F07F43E2
:101A1000013B53600F214FF0FF30FFF7C1FF054B33
:101A200000229A60034B07221A60002318460837E9
:101A3000BD4680BD10E000E080B582B000AF374BFE
:101A40001B680133354A1360354B1B68002B04D0EB
:101A5000334B1B68013B324A1360AFF30080002315
:101A6000FB7152E0FB792F4A9B0013445B68002B0B
:101A700048D0FB792B4A9B0013445B681B7B002BEF
:101A800040D0FB79274A9B0013445B689B68002B7E
:101A900038D0FB79234A9B0013445B689A68013A6B
:101AA0009A60FB791F4A9B0013445B689B68002B7C
:101AB00028D1FB791B4A9B0013445B681A69FB79A8
:101AC00018499B000B445B685B6918469047FB799B
:101AD000144A9B0013445A68FB7912499B000B443B
:101AE0005B681B689360FB790E4A9B0013445B683C
:101AF0005B68002B06D1FB790A4A9B0013445B68A4
:101B000000221A73FB790133FB71064B1B78FA79BB
:101B10009A42A7D300BF0837BD4680BD900400207D
:101B2000940400209C04002080B500AF0D4B1B687E
:101B30000D4AA2FB03239B091846FFF75BFF0346F0
:101B4000002B00D0FEE7074B1B689B09074AA2FB4E
:101B500003239B0A064A1360064B01221A7000BF3A
:101B600080BD00BF28000020D34D62101791650290
:101B7000545301209804002080B584B000AF7860F1
:101B8000084611461A460346FB700B46BB701346C7
:101B90007B70FB7863F02F03DAB27B681A704F4AD0
:101BA00000214F4800F010F97B681B7819464C481B
:101BB00000F028FA0346002B01D1012389E07B685D
:101BC0001B7875221946464800F09AF90346682B9F
:101BD00001D002237DE07B68197800236B22404806
:101BE00000F0ECF97B681B781C2219463C4800F099
:101BF00087F90346FB7397F90F3023F018035AB2A5
:101C0000BB78DB005BB213435BB2FB737B68197874
:101C1000FB7B1C22324800F0D1F97B681B781B2229
:101C200019462F4800F06CF90346FB7397F90F3003
:101C300023F018035AB27B78DB005BB213435BB22C
:101C4000FB737B681978FB7B1B22254800F0B6F9F3
:101C5000BB78032B1DD801A252F823F06D1C00089D
:101C6000771C0008811C00088B1C00087B684FF063
:101C700062529A600EE07B684FF064529A6009E00D
:101C80007B684FF066529A6004E07B684FF06852C0
:101C90009A6000BF7B78032B19D801A252F823F079
:101CA000B11C0008B91C0008C11C0008C91C0008B0
:101CB0007B680C4A5A600BE07B680B4A5A6007E06D
:101CC0007B680A4A5A6003E07B68094A5A6000BF91
:101CD000002318461037BD4680BD00BF801A06009D
:101CE000005C00402D23FA3B2D237A3C90C1F93C47
:101CF00090C1793D80B588B002AF78607B68197873
:101D000007F108020E23009313463B222B4800F0F4
:101D10001DF93B7A1B021AB27B7A1BB213431AB22B
:101D20007B689A81BB7A1B021AB2FB7A1BB21343FF
:101D30001AB27B68DA813B7B1B021AB27B7B1BB237
:101D400013431AB27B681A82BB7B1B021AB2FB7B5D
:101D50001BB21343FB82B7F91630184603F088FE16
:101D600003461749184603F08BFF034615491846EA
:101D700003F0CAFD03461A467B689A613B7C1B024E
:101D80001AB27B7C1BB213431AB27B685A82BB7CAB
:101D90001B021AB2FB7C1BB213431AB27B689A82F5
:101DA0003B7D1B021AB27B7D1BB213431AB27B68C8
:101DB000DA82002318461837BD4680BD005C00401B
:101DC0000000AA43B81E124280B588B000AFF86088
:101DD0000B467A60FB72FB68444A934221D1444A25
:101DE000434B1B6C43F400131364FB7A184600F05A
:101DF00075FA404B1A687B689A4202D93D4A7B6863
:101E000013603C4B1B683B614FF48043BB83002352
:101E1000BB8200233B8300237B834BF6FF73FB8253
:101E20004AE0FB68344A934221D1314A304B1B6C63
:101E300043F480031364FB7A184600F08DFA2D4BAF
:101E40005A687B689A4202D92A4A7B685360294BB8
:101E50005B683B614FF48043BB830023BB8200235C
:101E60003B8300237B834BF6FF73FB8224E0FB68FC
:101E7000224A934220D11E4A1D4B1B6C43F400039F
:101E80001364FB7A184600F0A7FA1A4B9A687B682D
:101E90009A4202D9174A7B689360164B9B683B6154
:101EA0004FF48043BB830023BB8200233B8300238A
:101EB0007B834BF6FF73FB82FB681B889BB223F08E
:101EC00001039AB2FB681A8007F110031946F868FB
:101ED00000F05CFCFB681B889BB243F001039AB2E4
:101EE000FB681A8000BF2037BD4680BD005400400B
:101EF000003802401C00002000580040005C0040F8
:101F000080B584B000AF78600B46FB701346BB70A1
:101F1000F97800230022786800F09CF8BB78194615
:101F2000786800F01BF9786800F0A6F9F9780023CA
:101F30000122786800F08EF8786800F065F90346B1
:101F4000FB73FB7B18461037BD4680BD90B585B04E
:101F500000AFF8607B600B46FB721346BB72F97AE8
:101F600001230022F86800F075F8BB7A1946F8687A
:101F700000F0F4F8F97A01230122F86800F06AF819
:101F800013E03B8C002B08D17C68631C7B60F868F5
:101F900000F03AF90346237007E07C68631C7B601D
:101FA000F86800F001F9034623703B8C5A1E3A840E
:101FB000002BE6D100BF1437BD4690BD80B582B07E
:101FC00000AF7860084611461A460346FB700B4680
:101FD000BB7013467B70F97800230022786800F00C
:101FE00039F8BB781946786800F0B8F87B7819465C
:101FF000786800F0B3F8786800F03EF900BF083761
:10200000BD4680BD80B584B000AF78600B46FB70E4
:102010000023FB73F97801230022786800F01AF896
:102020000346002B01D10123FB73786800F024F9EB
:10203000FB7B18461037BD4680BD00BF80B483B01F
:1020400000AF78600B467B8000BF0C37BD4680BC7C
:10205000704700BF80B582B000AF78600846114677
:102060001A460346FB700B46BB7013467B707B68B9
:102070001B889BB243F480739AB27B681A80354BFD
:1020800044F620621A600AE0324B1B68013B314A79
:102090001360304B1B68002B01D1012356E07B6895
:1020A0009B8A9BB203F00103002BEDD07B78002BC1
:1020B00007D07B681B889BB243F480639AB27B682D
:1020C0001A80BB78002B1DD1FB789BB223F0010353
:1020D0009AB27B681A821F4B44F620621A600AE0AB
:1020E0001C4B1B68013B1B4A13601A4B1B68002BDF
:1020F00001D101232AE07B689B8A9BB203F0020393
:10210000002BEDD0BB78012B1DD1FB7843F00103F0
:10211000DBB29AB27B681A820E4B44F620621A60D8
:102120000AE00C4B1B68013B0A4A1360094B1B6811
:10213000002B01D1012309E00749786800F0E8FB92
:102140000346002BEDD07B681B8B00231846083715
:10215000BD4680BDB40400200200030080B483B0FB
:1021600000AF78600B46FB700E4B44F620621A609D
:1021700004E00C4B1B68013B0A4A13607B689B8A96
:102180009BB203F08003002B03D1064B1B68002B8E
:10219000EFD1FB789AB27B681A8200BF0C37BD463C
:1021A00080BC7047B404002080B584B000AF786074
:1021B0007B681B889BB243F480639AB27B681A8069
:1021C0000F4B44F620621A600AE00D4B1B68013B7E
:1021D0000B4A13600A4B1B68002B01D101230BE053
:1021E0000849786800F094FB0346002BEDD07B682B
:1021F0001B8A9BB2FB73FB7B18461037BD4680BD24
:10220000B40400204000030080B584B000AF7860C3
:102210007B681B889BB223F480639AB27B681A8028
:102220007B681B889BB243F400739AB27B681A8068
:102230000F4B44F620621A600AE00D4B1B68013B0D
:102240000B4A13600A4B1B68002B01D101230BE0E2
:102250000849786800F05CFB0346002BEDD07B68F2
:102260001B8A9BB2FB73FB7B18461037BD4680BDB3
:10227000B40400204000030080B483B000AF786055
:10228000154B44F620621A600AE0134B1B68013BB1
:10229000114A1360104B1B68002B01D1012316E07B
:1022A0007B689B8A9BB203F08003002BEDD07B6898
:1022B0009B8A9BB203F00403002BE6D07B681B884B
:1022C0009BB243F400739AB27B681A8000231846CD
:1022D0000C37BD4680BC7047B404002080B584B084
:1022E00002AF0346FB71FB79002B09D10423019354
:1022F0000123009301230122C021154800F018FD9D
:10230000FB79012B0AD104230193012300930123BC
:1023100001224FF440710E4800F00AFDFB79022BB8
:102320000AD10423019301230093012301224FF4D6
:102330001071074800F0FCFCFB79032B03D104214A
:102340000448FFF77BFE00BF0837BD4680BD00BFD5
:10235000000402400054004080B584B002AF034640
:10236000FB71FB79002B0AD1042301930123009315
:10237000012301224FF44061134800F0D9FCFB799E
:10238000012B09D10423019301230093012301228E
:1023900003210E4800F0CCFCFB79022B09D1042369
:1023A000019301230093012301223021084800F00A
:1023B000BFFCFB79032B03D104210648FFF73EFE47
:1023C00000BF0837BD4680BD000402400014024033
:1023D000001C02400058004080B584B002AF0346A4
:1023E000FB71FB79002B15D104230193012300938A
:1023F000012301224FF48071134800F099FC04235B
:10240000019301230093012301224FF400710F482F
:1024100000F08EFCFB79012B0AD1042301930123E8
:102420000093012301224FF4C071094800F080FCA1
:10243000FB79032B03D104210648FFF7FFFD00BF02
:102440000837BD4680BD00BF0000024000080240C2
:10245000001C0240005C004080B487B000AF786090
:10246000396000237B6100233B610023FB60002374
:102470007B6176E001227B6902FA03F33B613B68F2
:102480001A683B691340FB60FA683B699A4265D160
:102490007B681A687B695B00032101FA03F3DB4365
:1024A0001A407B681A607B681A683B681B7919467A
:1024B0007B695B0001FA03F31A437B681A603B688F
:1024C0001B79012B03D03B681B79022B2ED17B6833
:1024D0009A687B695B00032101FA03F3DB431A402E
:1024E0007B689A607B689A683B685B7919467B6970
:1024F0005B0001FA03F31A437B689A607B685A68B1
:102500007B699BB2194601238B40DB431A407B68F1
:102510005A607B685B683A68927911467A6992B230
:1025200001FA02F292B21A437B685A607B68DA6859
:102530007B699BB25B00032101FA03F3DB431A4082
:102540007B68DA607B68DA683B68DB7919467B690F
:102550005B0001FA03F31A437B68DA607B6901339D
:102560007B617B690F2B85D900BF1C37BD4680BCC2
:10257000704700BF80B483B000AF78600B467B80AB
:102580007B687A881A8300BF0C37BD4680BC7047D1
:1025900080B483B000AF78600B467B807B687A881C
:1025A0005A8300BF0C37BD4680BC704780B485B0ED
:1025B00000AF78600B467B8013467B700023FB6086
:1025C0000023BB607A787B8803F007039B0002FA44
:1025D00003F3FB607B88DB089BB218467B88DB0833
:1025E0009BB21A467B68083253F822207B8803F09E
:1025F00007039B000F2101FA03F3DB4302EA030107
:102600007B6800F1080243F822107B88DB089BB24C
:102610001A467B68083253F82220FB681343BB60DC
:102620007B88DB089BB21A467B680832B96843F89E
:10263000221000BF1437BD4680BC704780B500AF84
:10264000124A124B1B6843F0010313600F4B002228
:102650009A600E4A0D4B1B6823F0847323F4803379
:1026600013600A4B0A4A5A60084A084B1B6823F455
:1026700080231360054B0022DA6000F00DF8054B53
:102680004FF000629A6000BF80BD00BF003802407A
:102690001030002400ED00E080B483B000AF0023D0
:1026A0007B6000233B60354A344B1B6843F4803326
:1026B0001360324B1B6803F400333B607B680133CB
:1026C0007B603B68002B03D17B68B3F5A06FF0D132
:1026D0002A4B1B6803F40033002B02D001233B601C
:1026E00001E000233B603B68012B42D1234A234B8E
:1026F0001B6C43F080531364214A214B1B6843F445
:10270000804313601D4A1D4B9B6893601B4A1B4B03
:102710009B6843F400439360184A184B9B6843F44A
:10272000A0539360154B174A5A60144A134B1B6809
:1027300043F08073136000BF104B1B6803F00073FD
:10274000002BF9D0104B40F205621A600B4A0B4B7C
:102750009B6823F003039360084A084B9B6843F08F
:102760000203936000BF054B9B6803F00C03082B2A
:10277000F9D100BF0C37BD4680BC7047003802401D
:102780000070004008544007003C024080B58AB009
:1027900000AF786039600023FB8400237B8404232E
:1027A000BB84574BFB617B689B88FB84FB8C23F0CD
:1027B0003F03FB8407F10C031846FEF7F5FA7B692B
:1027C000FB61FB694F4AA2FB03239B0C7B84FA8CC1
:1027D0007B8C1343FB847B68FA8C9A807B681B8814
:1027E0009BB223F001039AB27B681A800023FB841A
:1027F0003B681B68444A934215D83B681B685B00E2
:10280000FA69B2FBF3F3BB84BB8C032B01D804231E
:10281000BB84FA8CBB8C1343FB847B8C01339AB250
:102820007B681A8440E03B68DB884BF6FF7293427A
:1028300009D13B681A6813465B001344FA69B2FB7E
:10284000F3F3BB840EE03B681A6813469B00134405
:102850009A001344FA69B2FBF3F3BB84BB8C43F4D4
:102860008043BB84BB8CC3F30B03002B03D1BB8C15
:1028700043F00103BB84BA8CFB8C13439BB26FEA19
:1028800043436FEA5343FB847B8C4FF4967202FB05
:1028900003F31E4A82FB03129211DB17D31A9BB279
:1028A00001339AB27B681A847B68FA8C9A837B68BE
:1028B0001B889BB243F001039AB27B681A807B6845
:1028C0001B88FB84FB8C23F4816323F00203FB84CD
:1028D0003B689A883B685B8913439AB2FB8C13432D
:1028E000FB847B68FA8C1A803B689A893B681B8959
:1028F00013439AB27B681A8100BF2837BD4680BD5A
:1029000000127A0083DE1B43A0860100D34D6210C3
:1029100080B487B000AF7860396000233B6100234A
:10292000FB600023BB600023FB757B689B8A9BB226
:10293000FB607B681B8B9BB2BB60BB681B04BB60EE
:10294000FA68BB68134323F07F433B613A693B68F5
:102950001A403B689A4202D10123FB7501E0002333
:10296000FB75FB7D18461C37BD4680BC704700BF19
:1029700080B483B000AF7860054A7B6843F0BF63E2
:1029800043F40033D36000BF0C37BD4680BC7047B2
:1029900000ED00E080B485B000AF78600023FB73E9
:1029A0000023BB730F237B737B68DB78002B38D04D
:1029B000264BDB68DB4303F4E0631B0AFB73FB7B02
:1029C000C3F10403BB737A7BFB7B42FA03F37B7393
:1029D0007B685B781A46BB7B02FA03F3FB737B6868
:1029E0009A787B7B1340DAB2FB7B1343FB73FB7B50
:1029F0001B01FB73164A7B681B781344FA7B83F830
:102A00000023134A7B681B785B09DBB218467B689E
:102A10001B7803F01F03012101FA03F342F8203071
:102A20000FE00B497B681B785B09DBB218467B68BB
:102A30001B7803F01F0301229A4000F1200341F8A4
:102A4000232000BF1437BD4680BC704700ED00E076
:102A500000E100E080B483B000AF0346FB71084999
:102A600097F907305B09FA7902F01F02012000FA9A
:102A700002F241F8232000BF0C37BD4680BC7047EE
:102A800000E100E080B500AF01210120FEF736FA39
:102A900001214FF00050FEF74FFA01210220FEF70E
:102AA0004BFA01210220FEF729FA01210820FEF746
:102AB00025FA01210420FEF73FFA01210420FEF748
:102AC0001DFA01214FF48020FEF736FA00BF80BDC9
:102AD00080B500AFFFF7D6FF0F213C2000F00AF8C9
:102AE00000F03CF800F080F800F060F800F0CEF85C
:102AF00000BF80BD80B586B000AF786039607B686C
:102B00003B613B689BB2BB810023BB821023FB81EE
:102B100007F10C031946104800F00CFA4FF4C0609E
:102B2000FFF726FF1D233B7200237B720023BB723D
:102B30000123FB7207F108031846FFF72BFF012161
:102B4000054800F00BFC01220121034800F0B8FB0E
:102B500000BF1837BD4680BD0004004080B586B078
:102B600000AF10233B6103233B7503237B750023D8
:102B7000FB7507F1100319460B48FFF76DFC0023A6
:102B80003B6000237B600023BB600023FB603B466F
:102B900019460020FDF70CFE01210020FDF73AFE4A
:102BA00000BF1837BD4680BD0000024080B582B02E
:102BB00000AFFFF767FF00F017F843F630033B6004
:102BC00001233B710023BB7103237B710023FB7145
:102BD0003B4619460348FFF73FFC00BF0837BD4698
:102BE00080BD00BF0004024080B58AB000AF6323FF
:102BF0003B621423BB830023BB841023FB8307F1B8
:102C00001C0319461F4800F095F901211D4800F0EA
:102C1000FBF94FF440537B610023BB7603237B76A3
:102C20000023FB7602220C211748FFF7BFFC02228B
:102C30000D211548FFF7BAFC02233B7607F1140378
:102C400019461148FFF708FC60233B8001237B8075
:102C50000023BB600023BB813B461946094800F0B6
:102C6000F3F90821074800F0F1FA3B4619460548F8
:102C700000F064FA0821034800F004FB00BF283785
:102C8000BD4680BD00080040000C024080B588B001
:102C900000AF4FF44063BB6102233B770023BB7757
:102CA0000123FB7702237B7707F1180319461E489F
:102CB000FFF7D2FB07220A211B48FFF777FC072208
:102CC0000B211948FFF772FC4FF41653BB60002329
:102CD000BB810023FB8100233B820023BB820C23AA
:102CE0007B8207F1080319461048FDF7E5FB012137
:102CF0000E48FDF79BFC012240F225510B48FDF7E1
:102D0000B5FC27233B7100237B710023BB7101239A
:102D1000FB713B1D1846FFF73DFE2720FFF79AFE8B
:102D200000BF2037BD4680BD00080240004800407B
:102D300080B586B002AF7860084611461A46034651
:102D40007B800B467B7013463B707B88002B3ED00C
:102D5000786800F051F80023FB6029E07A88FB686E
:102D600042FA03F303F00103002B1DD0FB68DA08DD
:102D7000FB68D9087B68083153F82130F96801F005
:102D8000070189000F2000FA01F1C9430B40387F89
:102D9000F96801F00701890000FA01F119437B6825
:102DA000083243F8221000E000BFFB680133FB60EB
:102DB000FB680F2BD2D97A7879883B7E01933B78D8
:102DC000009313460222786800F02EF800E000BF5E
:102DD0001037BD4680BD00BF80B483B000AF7860BF
:102DE0007B6803F13F4303F57E039B0A9BB21846C1
:102DF0000C37BD4680BC704780B582B000AF7860AC
:102E00007868FFF7E9FF03461A46012303FA02F147
:102E1000044A044B1B6B0B43136300BF0837BD46CA
:102E200080BD00BF0038024080B584B000AF78603C
:102E3000084611461A4603467B800B467B701346B4
:102E40003B707868FFF7C8FF0346BB730023FB7332
:102E500067E07A88FB7B42FA03F303F00103002B5F
:102E60005BD0BB7BBA7B324931F8122011B2FA7BBE
:102E7000012000FA02F212B20A4312B291B22C4AB5
:102E800022F813107B68DB68FA7B5200032101FAF9
:102E900002F2D2431340397EFA7B520001FA02F269
:102EA0001A437B68DA607B681A68FB7B5B0003214E
:102EB00001FA03F3DB4313407978FA7B520001FAFD
:102EC00002F21A437B681A607B78012B02D07B7870
:102ED000022B23D17B685B68FA7B012101FA02F2A5
:102EE00092B2D24313403978FA7B01FA02F292B2DD
:102EF0001A437B685A607B689A68FB7B5B000321FE
:102F000001FA03F3DB431340397FFA7B520001FAE5
:102F100002F21A437B689A6000E000BFFB7B01333A
:102F2000FB73FB7B0F2B94D900BF1037BD4680BDD0
:102F3000B804002080B485B000AF78603960002309
:102F4000FB817B681B88FB817B68284A934213D0F6
:102F50007B68274A93420FD07B68B3F1804F0BD038
:102F60007B68244A934207D07B68234A934203D06C
:102F70007B68224A934208D1FB8923F07003FB81CE
:102F80003B685A88FB891343FB817B681C4A934248
:102F90000CD07B681B4A934208D0FB8923F4407312
:102FA000FB813B681A89FB891343FB817B68FA89A3
:102FB0001A803B685A687B68DA623B681A887B68CB
:102FC0001A857B68094A934203D07B68084A93427A
:102FD00004D13B689B7A9AB27B681A867B6801228F
:102FE0009A8200BF1437BD4680BC70470000014084
:102FF000000401400004004000080040000C0040B4
:10300000001000400014004080B483B000AF78602E
:103010000B46FB70FB78002B08D07B681B889BB2AB
:1030200043F001039AB27B681A8007E07B681B8833
:103030009BB223F001039AB27B681A8000BF0C3761
:10304000BD4680BC704700BF80B485B000AF7860DB
:10305000396000237B810023FB810023BB817B68D7
:103060001B8C9BB223F001039AB27B681A847B68A5
:103070001B8CFB817B689B88BB817B681B8B7B8166
:103080007B8923F070037B817B8923F003037B81A1
:103090003B681A887B8913437B81FB8923F00203F9
:1030A000FB813B689A89FB891343FB813B685A8803
:1030B000FB891343FB817B681E4A934203D07B68E4
:1030C0001D4A934223D1FB8923F00803FB813B680F
:1030D000DA89FB891343FB81FB8923F00403FB811D
:1030E0003B689A88FB891343FB81BB8923F4807377
:1030F000BB81BB8923F40073BB813B681A8ABB89FF
:103100001343BB813B685A8ABB891343BB817B68ED
:10311000BA899A807B687A891A833B689A687B6847
:103120005A637B68FA891A8400BF1437BD4680BC95
:10313000704700BF000001400004014080B485B02A
:1031400000AF7860396000237B810023FB8100237E
:10315000BB817B681B8C9BB223F010039AB27B6807
:103160001A847B681B8CFB817B689B88BB817B6896
:103170001B8B7B817B8923F4E0437B817B8923F458
:1031800040737B813B681B881B029AB27B89134387
:103190007B81FB8923F02003FB813B689B891B011A
:1031A0009AB2FB891343FB813B685B881B019AB28F
:1031B000FB891343FB817B68224A934203D07B68DF
:1031C000214A93422BD1FB8923F08003FB813B688A
:1031D000DB891B019AB2FB891343FB81FB8923F036
:1031E0004003FB813B689B881B019AB2FB89134318
:1031F000FB81BB8923F48063BB81BB8923F400631B
:10320000BB813B681B8A9B009AB2BB891343BB817D
:103210003B685B8A9B009AB2BB891343BB817B6886
:10322000BA899A807B687A891A833B689A687B6836
:103230009A637B68FA891A8400BF1437BD4680BC44
:10324000704700BF000001400004014080B485B019
:1032500000AF78600B467B800023FB817B681B8B73
:10326000FB81FB8923F00803FB81FA897B881343E8
:10327000FB817B68FA891A8300BF1437BD4680BC86
:10328000704700BF80B485B000AF78600B467B808C
:103290000023FB817B681B8BFB81FB8923F400638C
:1032A000FB817B881B029AB2FB891343FB817B68FD
:1032B000FA891A8300BF1437BD4680BC704700BF2F
:1032C00080B483B000AF78600B467B8013467B7080
:1032D0007B78002B08D07B689B899AB27B8813434C
:1032E0009AB27B689A8109E07B689B899AB27B8855
:1032F000DB439BB213409AB27B689A8100BF0C37C4
:10330000BD4680BC704700BF80B485B000AF786018
:103310000B467B800023FB730023BB8100237B8152
:103320007B681B8A9AB27B881340BB817B689B8930
:103330009AB27B8813407B81BB89002B05D07B89A7
:10334000002B02D00123FB7301E00023FB73FB7B06
:1033500018461437BD4680BC704700BF80B483B0A8
:1033600000AF78600B467B807B88DB439AB27B683A
:103370001A8200BF0C37BD4680BC70472DE9F04370
:10338000DFF8A4808BB004460D4600F025FA98F9CA
:103390000030013306460F462ED022462B462046EB
:1033A000294602F045FA814630BB2046294601F005
:1033B000C9FC0022194B02F031FAE8B1184B194848
:1033C000CDF8209001228DE80C00CDE90445CDE92F
:1033D000024501F0C3FC98F90030022BCDE906014B
:1033E0000FD0684601F0B8FC58B1089B83B9DDE9FD
:1033F00006010BB0BDE8F083304639460BB0BDE89E
:10340000F08302F06FFD21230360089B002BEED0B8
:1034100002F068FD089B0360E9E700BF0000F03F91
:10342000F05E0008F45E00083C00002000F004BCE0
:103430002DE9F04FDFF8E4928DB006460F461446B2
:103440001D4600F0C5FC99F90080B8F1FF3FCDE9B9
:10345000000146D022462B462046294602F0E8F9D4
:10346000834600283DD132463B463046394602F07D
:10347000DFF9002282460023002840F08480304695
:10348000394602F0A3F9002830D00022002320465C
:10349000294602F09BF98346A8B10122984B02927B
:1034A00000210022CDF828A0CDE90467CDE906452A
:1034B000CDE908120393B8F1000F53D091490020D1
:1034C0000DB0BDE8F08F2046294601F03FFC40B129
:1034D000002200232046294602F082F9002840F00D
:1034E000B780DDE900010DB0BDE8F08FDDE9000136
:1034F00001F02CFC804600285DD04FF0000A4FF010
:10350000000B52465B46DDE9000102F05FF900283E
:10351000E7D03046394601F019FC0028E1D02046BA
:10352000294601F013FC0028DBD099F90030744AD9
:10353000039204210022022BCDE90467CDE9064560
:10354000CDE908AB02910A9203D002A801F004FC75
:1035500070B902F0C7FC2223036009E000230024B5
:10356000CDE9083402A801F0F7FB002800F08680BE
:103570000A9B1BB102F0B6FC0A9B0360DDE908015F
:103580000DB0BDE8F08F2046294602F01FF9002853
:10359000A7D05C495A4BCDF828B001220020B8F1E1
:1035A000020FCDE90467CDE9064502920393CDE908
:1035B0000801D7D197E73046394601F0C7FB00280C
:1035C0009BD02046294601F0C1FB002895D0DDE9BB
:1035D00000231046194602F02BF9002873D103236B
:1035E00099F900800293464B0A900393CDE9046752
:1035F000CDE906450022002330463946B8F1000FD8
:1036000041D1414F4FF06046CDE9086702F0E8F83C
:1036100000289AD000223D4B2046294601F06EFE3C
:1036200004460D4601F0A0FB02460B462046294603
:1036300002F0CCF8002843D1354B99F900804FF0C7
:103640006042CDE90823B8F1020F7FF47EAF80E736
:1036500099F900302A4ACDF828B00121CDE9046754
:10366000CDE9064502910392002B3FF477AF29493B
:103670000020022BCDE908017FF474AF02F032FC88
:103680002123036074E7244F0026CDE9086702F088
:10369000A7F80028D7D000221C4B2046294601F06D
:1036A0002DFE04460D4601F05FFB02460B46204608
:1036B000294602F08BF818B9164B0022CDE90823F1
:1036C00099F90080BFE799F900900D4BCDF828805B
:1036D0000122CDE90467CDE9064502920393B9F1D1
:1036E000000F3FF43BAF002200231046194601F0C3
:1036F0002FFFB9F1020FCDE90801BFD032E700BFBB
:10370000F85E00080000F03FFFFFEF470000E03FD9
:10371000FFFFEFC70000F0FF0000F07F3C0000203B
:103720002DE9F04F8BB004460D4601F0ABF8284B65
:1037300093F900A0BAF1FF3F06460F4612D0224689
:103740002B462046294602F073F8834650B94FF0C5
:1037500000084FF0000942464B462046294602F039
:103760003FF820B9304639460BB0BDE8F08F194B11
:10377000CDF820B00122CDE90445CDE902458DE820
:103780000C00BAF1000F15D042464B464046494660
:1037900001F0DEFEBAF1020FCDE906010CD102F014
:1037A000A1FB21230360089B63B9DDE906010BB08F
:1037B000BDE8F08FCDE90689684601F0CDFA002812
:1037C000F1D1ECE702F08EFB089B0360EDE700BF50
:1037D0003C000020FC5E00082DE9F047C04B21F0C2
:1037E0000048984584B00D46044614DD08F1404871
:1037F00008F58018034658EA030323D002460B4617
:1038000001F0C8FB02460B4601F0A2FE044620462A
:1038100004B0BDE8F087B34B98458A462BDCB8F17D
:10382000795F80F2678192A3D3E9002301F0B4FBB2
:103830000022AD4B01F0F2FFE8B12946204604B06A
:10384000BDE8F0878CA3D3E9002301F057FD8CA3DA
:10385000D3E9002306460F462046294601F04EFDD7
:1038600002460B463046394601F096FB0446204698
:1038700004B0BDE8F0872046294601F063FA02460D
:103880000B460020984901F085FB0022974B01F080
:1038900035FD7DA3D3E9002304460D4601F02EFD3E
:1038A0007BA3D3E9002301F077FB22462B4601F0EE
:1038B00025FD79A3D3E9002301F06CFB22462B46BA
:1038C00001F01CFD76A3D3E9002301F065FB22463D
:1038D0002B4601F013FD74A3D3E9002301F05AFB3A
:1038E00022462B4601F00AFD71A3D3E9002301F023
:1038F00053FB22462B4601F001FD6FA3D3E90023C1
:10390000CDE900012046294601F0F8FC6CA3D3E97B
:10391000002301F03FFB22462B4601F0EFFC6AA397
:10392000D3E9002301F038FB22462B4601F0E6FCE8
:1039300067A3D3E9002301F02DFB22462B4601F0BB
:10394000DDFC694B002201F027FBCDE90201204696
:10395000294600F097FF664B984506460F4666DC01
:10396000DDE90223DDE9000101F0F2FD3246CDE997
:1039700000013B463046394601F00EFB02460B463D
:10398000DDE9000101F0BAFC4FF00008CDE90001CB
:1039900042463B464046394601F0B0FC02460B46E3
:1039A0002046294601F0F6FA424604460D463B46BB
:1039B0003046394601F0F0FA02460B4620462946C9
:1039C00001F0C6FD02460B4601F0E6FA02460B4640
:1039D0002BA1D1E9000101F0DDFA02460B46DDE939
:1039E000000101F0D7FA424604460D463B464046E8
:1039F000394601F0D1FA02460B4637A1D1E9000160
:103A000001F0C8FA02460B462046294601F0C2FAE8
:103A100002460B4630A1D1E9000101F0BBFA044691
:103A2000BAF1000F3FF7F3AE01F10041EFE6DDE937
:103A30000223DDE9000101F08BFD32463B4601F037
:103A40005DFC32463B4601F0A7FA02460B4601F008
:103A5000A3FA0BA3D3E9002301F09CFA02460B461C
:103A600005A1D1E9000101F095FA0446D8E700BFAD
:103A70009C7500883CE4377E182D4454FB21F93FA7
:103A8000075C143326A6913C09F7FD0DE13D023F8A
:103A900088B20175E0EF493F3B8F68B52882A43FAB
:103AA0005544880E55C1C93F7D6FEB0312D6D43FF4
:103AB000555555555555C53F82922EB1C5B8B33FA2
:103AC00059018D1B6C06E63FC88A599CE52A0040C7
:103AD0004B2D8A1C273A0340182D4454FB21E93F03
:103AE000FFFFEF3FFFFFDF3F0000F03F0000E03F40
:103AF0003233EF3F02460B4601F000FC38A3D3E916
:103B0000002306460F4601F0F9FB37A3D3E9002353
:103B100001F042FA32463B4601F0F0FB34A3D3E910
:103B2000002301F037FA32463B4601F0E7FB32A3AF
:103B3000D3E9002301F030FA32463B4601F0DEFBC8
:103B40002FA3D3E9002301F025FA32463B4601F0CA
:103B5000D5FB2DA3D3E9002301F01EFA32463B46E4
:103B600001F0CCFB2AA3D3E90023804689463046E6
:103B7000394601F0C3FB28A3D3E9002301F00AFA78
:103B800032463B4601F0BAFB25A3D3E9002301F0FE
:103B900003FA32463B4601F0B1FB23A3D3E90023ED
:103BA00001F0F8F932463B4601F0A8FB0022204B19
:103BB00001F0F2F902460B464046494601F0C8FCC6
:103BC00022462B4601F09AFB22462B4601F0E4F9EF
:103BD0000446204604B0BDE8F08700BFAFF3008084
:103BE00009F7FD0DE13D023F88B20175E0EF493F65
:103BF0003B8F68B52882A43F5544880E55C1C93F04
:103C00007D6FEB0312D6D43F555555555555C53FDD
:103C100082922EB1C5B8B33F59018D1B6C06E63FA9
:103C2000C88A599CE52A00404B2D8A1C273A03403C
:103C30000000F03F000000002DE9F84F544214430B
:103C400023F00049DFF880E149EAD4747445064660
:103C50000D463ED84442044321F0004B4BEAD47455
:103C600074458A4635D803F1404404F58014144362
:103C700044D09C1704F0020444EAD17450EA0B01CA
:103C80002FD052EA090133D0F14546D0F3452FD069
:103C9000C9EB0B094FEA2959B9F13C0F34DC002B71
:103CA00057DB3046294601F053FC01F04BF800F099
:103CB000ABFE012C4AD0022C3BD084B132A3D3E915
:103CC000002301F067F932A3D3E9002301F062F980
:103CD00005E01046194632462B4601F05DF9BDE875
:103CE000F88F022C14D0032C0CD12D482D49F6E767
:103CF000BAF1000F2A480EDB2B49F0E7BDE8F84F78
:103D000000F082BE2946EAE723A1D1E90001D0E70D
:103D100023482649E3E72649E1E7CB451FD0022C9B
:103D2000F6D0032CE1D0012C4FF0000020D001464A
:103D3000D5E715A3D3E9002301F02CF902460B4681
:103D400013A1D1E9000101F025F9C8E701F1004113
:103D5000C5E719F13C0FA4DA00200021A9E7022CE5
:103D60000ED0032C09D0012C0D4804D01149B6E720
:103D70004FF00041B3E71049B1E710481049AEE7F2
:103D80000E481049ABE700BF075C143326A6A13CE0
:103D9000182D4454FB210940182D4454FB21F93FB0
:103DA000182D4454FB2109C0FB21F93FFB21094098
:103DB000FB21F9BFFB21E93FFB21E9BFD221337F82
:103DC0007CD902C07CD902400000F07F00000000D6
:103DD0002DE9F04F23F0004858EA020993B03CD097
:103DE000714C21F00046A64283460D460CDD06F1DB
:103DF000404606F5801656EA0B0038D16B498346DB
:103E0000584613B0BDE8F08F9A4696462BD0A04591
:103E1000EDDC654CA04578D0002D0F468146CDE9FC
:103E2000002376DB0024BEF1000F27D15E4B9845BE
:103E300000F08B805D4B984552D0BAF1804F00F076
:103E4000C2835B4B9A4519D1002D17DB4846394692
:103E500013B0BDE8F04F00F015BDCB4653495846AE
:103E600013B0BDE8F08F0028C1D1B045D1DD514875
:103E700013B0BDE8F04F00F071BF0024484639464A
:103E800000F060FFBBF1000F1CD0ED0F013D54EAC4
:103E9000050370D0484B984540F3948003F10473B8
:103EA000984540F30584454B9E4270DDBAF1000F02
:103EB00070DD3BA3D3E900231046194601F01EFA3A
:103EC00083469DE726B1394B25F040429A42DCD12A
:103ED000BAF1000FC0F2B083002D08DB83468FE7F4
:103EE000BAF1000FC0F25684CB46394688E706F196
:103EF000404606F5801656EA040300F07B84012C48
:103F0000ECD1834601F100417AE7BEF1000F83D086
:103F10006DE72B4B98452CDCA3F15473984581DD5C
:103F20004FEA2853A3F2FF33142B40F34B84C3F121
:103F300034032EFA03F202FA03F39E457FF472AFC4
:103F400002F00102C2F102046DE706F1404303F5FD
:103F5000801353EA0B0300F03383184B9E4240F367
:103F60006083BAF1000F15DBDDE900349B46214682
:103F700046E7022457E74A4648463B46394601F0A1
:103F800009F802460B4601F0E3FA834638E7BAF136
:103F9000000F8EDB4FF0000B594631E7AFF3008086
:103FA0009C7500883CE4377E0000F07F0000F03F05
:103FB0000000E03FF45E00080000E041FFFFEF3F3B
:103FC000FFFF3F43B6F5801F4FF0000205DAD44BE8
:103FD00001F094F96FF034020E463315D14FC6F359
:103FE0001306A3F2FF33134446F07F5ABE421A462B
:103FF0000D934AF4401A40F3C183CB4B9E4240F3E9
:10400000FD83134601330D93C84B0022CDE90623EF
:1040100000270026CDE90867CDE90E67AAF5801ACA
:104020000027024653465146CDE90A23DDE906231F
:1040300000F0B0FFDDE9062380468946DDE90A018C
:1040400000F0AAFF02460B460020B84901F080FAB2
:104050000A460146CDE9101213464946024640463B
:1040600001F04CF94FEA6A0343F000538C46834653
:1040700003F50023CDE904BCDA468B46D9190023A9
:10408000CDE902AB0293DDE902AB002006460F4604
:1040900002460B465046594601F030F902460B469F
:1040A0004046494600F076FFDDE906238046894612
:1040B0003046394600F06EFF02460B46DDE90A0144
:1040C00000F068FF52465B4601F018F902460B46C5
:1040D0004046494600F05EFFDDE9102301F00EF98D
:1040E000DDE90467CDE9060132463B4630463946F4
:1040F00001F004F978A3D3E9002306460F4601F046
:10410000FDF877A3D3E9002300F046FF32463B4693
:1041100001F0F4F874A3D3E9002300F03DFF324628
:104120003B4601F0EBF872A3D3E9002300F034FF23
:1041300032463B4601F0E2F86FA3D3E9002300F0DA
:104140002BFF32463B4601F0D9F86DA3D3E900239B
:1041500000F022FF3246804689463B4630463946CB
:1041600001F0CCF802460B464046494601F0C6F83D
:10417000524606460F465B46DDE9040100F00CFF9F
:10418000DDE9062301F0BAF832463B4600F004FFB1
:104190005246804689465B465046594601F0AEF885
:1041A0000022634BCDE90A0100F0F6FE42464B4681
:1041B00000F0F2FE02980F46064632463B46504655
:1041C000594601F09BF8002282468B46584B3046F8
:1041D000394600F0DFFEDDE90A2300F0DBFE02468F
:1041E0000B464046494600F0D5FEDDE9042301F0C8
:1041F00085F83246804689463B46DDE9060101F0F6
:104200007DF802460B464046494600F0C5FE804612
:10421000894602460B4650465946CDE904AB00F0AC
:10422000BBFEDDE902AB38A3D3E9002350460F46BD
:1042300001F064F8DDE90423CDE902013946504676
:1042400000F0A8FE02460B464046494600F0A2FE9A
:104250002FA3D3E9002301F051F82FA3D3E90023C2
:10426000804689465046394601F048F802460B46DA
:104270004046494600F090FEDDE90E2300F08CFE3A
:1042800080460D98894600F0D3FF424606460F4609
:104290004B46DDE9020100F07FFEDDE9082300F076
:1042A0007BFE32463B4600F077FE32463B465046A8
:1042B0008B4600F06FFEDDE9082300F06BFEDDE9C0
:1042C000022300F067FE02460B464046494600F0D6
:1042D00061FE80462EE000BFEF4E454A287ECA3F71
:1042E00065DBC9934A86CD3F01411DA96074D13F6A
:1042F0004D268F515555D53FFFAB6FDBB66DDB3F7C
:10430000033333333333E33F000000E009C7EE3FAC
:10431000FD033ADC09C7EE3FF5015B14E02F3EBE1A
:10432000000040438E98030079B60B000000F03F78
:10433000000008408946013C54EA0503DDE900011C
:1043400014BFD54CD54C0023CDE9043403460C46AC
:10435000CDE9023400230293DDE9024522462B46D3
:1043600000F018FE52465B4600F0C8FFDDE900236E
:1043700006460F464046494600F0C0FF02460B463F
:104380003046394600F008FE224606460F462B46C8
:1043900050465946CDE9006700F0B0FF0B46024693
:1043A000804689463046394600F0F6FDBC4B9942BE
:1043B00006460D460C4640F30E8101F13F4303F5DE
:1043C000E003034340F0EF819FA3D3E90023DDE93D
:1043D000000100F0E1FD424682468B464B463046E6
:1043E000294600F0D7FD02460B465046594601F0DB
:1043F00015FA002840F0D7812F463B154FF4801264
:10440000A3F2FE3342FA03F32344C3F30A52A54E48
:10441000A2F2FF321641C3F3130B0020C2F11405C0
:1044200023EA06014BF4801B02460B46002C4BFA94
:1044300005FB40464946B8BFCBF1000B00F0AAFD92
:1044400002460B4680468946DDE9000100F0A4FDE6
:104450004FEA0B5A00247EA3D3E9002320460D46E1
:1044600000F04CFF424606460F464B462046294682
:1044700000F090FD02460B46DDE9000100F08AFDE8
:1044800075A3D3E9002300F039FF75A3D3E9002316
:10449000804689462046294600F030FF02460B46FA
:1044A0004046494600F078FD8046894602460B4664
:1044B0003046394600F070FD32463B4604460D4614
:1044C00000F068FD02460B464046494600F062FD9A
:1044D0002246804689462B462046294600F00EFF9C
:1044E00061A3D3E9002306460F4600F007FF60A34F
:1044F000D3E9002300F04EFD32463B4600F0FEFEBD
:104500005DA3D3E9002300F047FD32463B4600F0AF
:10451000F5FE5BA3D3E9002300F03CFD32463B46A9
:1045200000F0ECFE58A3D3E9002300F035FD32463D
:104530003B4600F0E3FE02460B462046294600F0CB
:1045400029FD06460F4602460B462046294600F046
:10455000D5FE0022CDE900014FF0804330463946B8
:1045600000F018FD02460B46DDE9000100F0F0FF07
:10457000424606460F464B462046294600F0BEFE00
:1045800042464B4600F008FD02460B46304639468F
:1045900000F000FD22462B4600F0FCFC02460B46D4
:1045A00000203D4900F0F6FC8A44BAF5801FC0F2B5
:1045B00036815146DDE9042300F0A0FE83461FE466
:1045C000F34635491CE44A4648463B46394600F026
:1045D00095FE834614E4344B21F000479F4240F39C
:1045E0000081324B0B4403430CD142464B4600F052
:1045F000D1FC02460B46DDE9000101F0FBF8002882
:104600003FF4FBAE22A3D3E90023DDE9040100F06F
:1046100075FE1FA3D3E9002300F070FE8346FFF769
:10462000EFBBBAF1000FBFF6B5ACDDE900349B4635
:1046300004F10041FFF7E4BB02460B460020164997
:1046400000F086FF48E400BFFE822B654715973CCB
:1046500000000000432EE63FEF39FAFE422EE63F0F
:10466000396CA80C615C20BED0A4BE726937663E6E
:10467000F16BD2C541BDBB3E2CDE25AF6A56113F62
:1046800093BDBE166CC1663F3E5555555555C53F49
:1046900059F3F8C21F6EA5010000F03F0000F0BF03
:1046A000FFFF8F40FFFF0F00FFCB904000346F3FB4
:1046B0006F4B9E427FF76BAC6E4B9E423FF7F6AB63
:1046C00000226C4B00F066FC5BA3D3E90023064696
:1046D0000F4600F013FE5AA3D3E900238046894613
:1046E0003046394600F00AFE002282468B46624B75
:1046F0003046394600F002FE02460B4652A1D1E98F
:10470000000100F047FC32463B4600F0F7FD024650
:104710000B460020594900F03DFC3246CDE902012C
:104720003B463046394600F0E9FD02460B46DDE9DE
:10473000020100F0E3FD46A3D3E9002300F0DEFD13
:1047400002460B465046594600F024FC02460B46F2
:1047500006460F464046494600F01EFC42464B4680
:10476000002082468B4600F015FC02460B46304680
:10477000394600F00FFC80468946DCE50022002324
:10478000CDE90823CDE90E233A4B00220027CDE9DD
:10479000062346E44A463B460020364900F0D8FE50
:1047A0008346FFF72DBB2CA3D3E90023DDE90401E9
:1047B00000F0A4FD28A3D3E9002300F09FFD834669
:1047C000FFF71EBBBEF1000F7FF457ABC3F114031C
:1047D00048FA03F202FA03F3984524D07446FFF72F
:1047E00029BB264B9F423FF708AEDDE902349A46CB
:1047F0009B462FE602460B46FFF7C1BB18A3D3E941
:104800000023CDE9082318A3D3E90023CDE90E2323
:104810001B4B00224FF48027CDE9062301E45A46C2
:1048200000F02EFBC6E602F00102C2F10204FFF71F
:1048300001BB00BFAFF30080000000604715F73FE9
:1048400044DF5DF80BAE543E555555555555D53F93
:10485000FE822B654715F73F9C7500883CE4377E48
:104860000000004003B8E23F06D0CF43EBFD4C3ED2
:10487000FEFFEF3F0000F03F0000D03F0000E03FB0
:104880000000F83F2DE9F8435D4EB6460E407645F0
:104890000C46054600F0958000290B46024673DD64
:1048A0000F157ED0A7F2FF37C3F31303F80743F4C5
:1048B000801364D403EBD27100260B447F105200A6
:1048C000B64616204FF400110EEB01049C424FEA4D
:1048D000D2754FEA420203DC1B1B04EB010E0E44AF
:1048E000013805EB43034FEA5101EDD18446202402
:1048F0004FF0004109E020D003EBD275013C4FEAB4
:1049000051012B444FEA420220D09E4501EB0C0599
:10491000F1DA002D05EB010C09DBF0469542CEEBF8
:10492000030300D9013B521B0844C646E4E7BCF12F
:10493000000FF2DB0EF10108F0E7954217D8002DC9
:1049400005EB010C47DB98460023ECE7134310D13D
:104950004008731003F17F5303F50013F20703EBD4
:10496000075948BF40F000404946BDE8F883734608
:10497000C2E7411C33D000F001031844E8E75B00B4
:1049800003EBD273520095E721F000460643ECD0CA
:1049900069BB0F46D30A153F5205002BFAD0DD0242
:1049A00020D4002100E001465B00DC0201F101009F
:1049B000F9D5C0F1200422FA04F423437F1A82407F
:1049C00070E702460B4600F099FC2A46234600F0A9
:1049D000E3FABDE8F883BCF1000FABDAB3E70136C8
:1049E0002046B6E720244FF0FF310020E3E70246DF
:1049F0000B4600F0CFFA02460B4600F0A9FDB4E7E3
:104A00000000F07F000000002DE9F84FC04B21F0BE
:104A100000469E420D468A4604460FDDBD4B9E422F
:104A200000F3B28000F0AD80BB4BBC49BC4CBAF186
:104A3000000FC8BF19462046BDE8F88FB94B9E420B
:104A400000F3BC80A3F1DE739E4240F3A7804FF0D9
:104A5000FF3B22462B462046294600F04FFC0246EB
:104A60000B468046894600F049FC91A3D3E9002318
:104A700006460F4600F042FC8FA3D3E9002300F066
:104A80008BFA32463B4600F039FC8DA3D3E9002374
:104A900000F082FA32463B4600F030FC8AA3D3E9AC
:104AA000002300F079FA32463B4600F027FC88A349
:104AB000D3E9002300F070FA32463B4600F01EFCBA
:104AC00085A3D3E9002300F067FA42464B4600F085
:104AD00015FC83A3D3E90023804689463046394636
:104AE00000F00CFC80A3D3E9002300F053FA324617
:104AF0003B4600F003FC7EA3D3E9002300F04AFA12
:104B000032463B4600F0FAFB7BA3D3E9002300F0DA
:104B100041FA32463B4600F0F1FB79A3D3E900238A
:104B200000F038FA32463B4600F0E8FBBBF1FF3FAD
:104B300002460B4669D04046494600F02DFA22460F
:104B40002B4600F0DBFB784E784B4FEACB0B5E44F4
:104B50009B44DBE9002300F01DFA22462B4600F0BF
:104B600019FA02460B46D6E9000100F013FABAF131
:104B7000000F0446BFF65FAF01F100412046BDE8DB
:104B8000F88F00283FF450AF224620462B46294696
:104B900000F002FA04462046BDE8F88F5AA3D3E994
:104BA000002300F0F9F90022614B00F037FE0028E5
:104BB0003FF44DAF29462046BDE8F88F00F0C2F81B
:104BC0005C4B9E4204460D462FDCA3F550239E42CB
:104BD00054DC02460B4600F0DFF90022544B00F093
:104BE000D9F9002206460F464FF080432046294659
:104BF00000F0D2F902460B463046394600F0A8FCD8
:104C00004FF0000B04460D4623E74046494600F0AE
:104C1000C3F922462B4600F071FB02460B462046A4
:104C2000294600F0B7F9044605E7434B9E421ADCDB
:104C30000022424B00F0AEF9002206460F463F4BE1
:104C40002046294600F05AFB0022394B00F0A4F917
:104C500002460B463046394600F07AFC4FF0020B14
:104C600004460D46F5E602460B460020344900F0A6
:104C70006FFC4FF0030B04460D46EAE600222C4B76
:104C800000F088F9002206460F46294B20462946A7
:104C900000F082F902460B463046394600F058FCD7
:104CA0004FF0010B04460D46D3E600BFAFF3008082
:104CB00011DA22E33AAD903FEB0D76244B7BA93F0E
:104CC000513DD0A0660DB13F6E204CC5CD45B73FDC
:104CD000FF8300922449C23F0D5555555555D53F88
:104CE0002F6C6A2C44B4A2BF9AFDDE522DDEAD3F7C
:104CF0006D9A74AFF2B0B33F711623FEC671BC3F1C
:104D0000C4EB98999999C93F9C7500883CE4377E1B
:104D1000FFFF0F440000F07FFB21F93FFB21F9BFAB
:104D2000182D4454FFFFDB3F285F0008085F000890
:104D30000000F03FFFFFF23FFF7F03400000F83F1D
:104D40000000F0BF21F00041704700BF41F000417A
:104D500001F58010C00F7047002070470020014906
:104D6000704700BF0000F87FF0B5C1F30A5EAEF2F5
:104D7000FF36132E83B002460B460C464FEAD17520
:104D800007462EDC002E49DB3B49314103EA010096
:104D900010432BD049080B4053EA02070CD04FF4C4
:104DA0008023132E24EA010143FA06F444EA0104A5
:104DB0000CBF4FF000470027304B03EBC5052146E1
:104DC000D5E90045384622462B4600F0E5F8CDE906
:104DD000000122462B46DDE9000100F0DBF803B0BC
:104DE000F0BD332E06DDB6F5806F42D01046194671
:104DF00003B0F0BDAEF2134E4FF0FF3121FA0EF1C9
:104E00000842F3D049080842D6D04FF0804320EA48
:104E1000010143FA0EFE4EEA0107CDE721F0004101
:104E20000143E3D0C3F31301144E41EA000CCCF16B
:104E3000000106EBC506D6E9006741EA0C0C5C0CE4
:104E40004FEA1C3C0CF4002C64044CEA040132468A
:104E50003B4600F0A1F8CDE900013B463246DDE9D2
:104E6000000100F097F821F0004444EAC5731946A8
:104E7000BEE700F091F8BBE7FFFF0F00485F0008B6
:104E8000F8B5C1F30A5604460D460B46174606BB55
:104E900021F00043034325D00022354B00F02EFAC9
:104EA000344A974204460D460B462ADBC1F30A56A4
:104EB000363E3E4440F2FE72964228DC002E12DD61
:104EC00023F0FF4323F4E00343EA06552046294636
:104ED000F8BD40F2FF729642EBD102460B4600F05D
:104EE0005BF8F8BDF8BD16F1350F1DDA4CF2503302
:104EF0009F4222462B4625DC19A1D1E9000100F092
:104F00003DF817A3D3E9002300F0F8F9F8BD2246D5
:104F10002B4615A1D1E9000100F030F812A3D3E926
:104F2000002300F0EBF9F8BD23F0FF4323F4E00386
:104F3000363643EA06552046294600220E4B00F03D
:104F4000DDF9F8BD08A1D1E9000100F017F806A3CA
:104F5000D3E9002300F0D2F9F8BD00BFAFF3008021
:104F600059F3F8C21F6EA5019C7500883CE4377E9A
:104F700000005043B03CFFFF0000903C03F00043B2
:104F800021F0004242EA0301704700BF81F0004176
:104F900002E000BF83F0004330B54FEA41044FEA1E
:104FA000430594EA050F08BF90EA020F1FBF54EAB9
:104FB000000C55EA020C7FEA645C7FEA655C00F055
:104FC000E2804FEA5454D4EB5555B8BF6D420CDD26
:104FD0002C4480EA020281EA030382EA000083EAA9
:104FE000010180EA020281EA0303362D88BF30BD49
:104FF00011F0004F4FEA01314FF4801C4CEA11319F
:1050000002D0404261EB410113F0004F4FEA0333FD
:105010004CEA133302D0524263EB430394EA050F88
:1050200000F0A780A4F10104D5F1200E0DDB02FAF7
:105030000EFC22FA05F2801841F1000103FA0EF28B
:10504000801843FA05F359410EE0A5F120050EF151
:10505000200E012A03FA0EFC28BF4CF0020C43FA82
:1050600005F3C01851EBE37101F0004507D54FF08F
:10507000000EDCF1000C7EEB00006EEB0101B1F5DF
:10508000801F1BD3B1F5001F0CD349085FEA300025
:105090004FEA3C0C04F101044FEA445212F5800F30
:1050A00080F09A80BCF1004F08BF5FEA500C50F1CD
:1050B000000041EB045141EA050130BD5FEA4C0CB0
:1050C000404141EB010111F4801FA4F10104E9D139
:1050D00091F0000F04BF01460020B1FA81F308BF30
:1050E0002033A3F10B03B3F120020CDA0C3208DDFC
:1050F00002F1140CC2F10C0201FA0CF021FA02F1D7
:105100000CE002F11402D8BFC2F1200C01FA02F146
:1051100020FA0CFCDCBF41EA0C019040E41AA2BF6B
:1051200001EB0451294330BD6FEA04041F3C1CDA33
:105130000C340EDC04F11404C4F1200220FA04F053
:1051400001FA02F340EA030021FA04F345EA0301FD
:1051500030BDC4F10C04C4F1200220FA02F001FABF
:1051600004F340EA0300294630BD21FA04F0294641
:1051700030BD94F0000F83F4801306BF81F48011DA
:105180000134013D4EE77FEA645C18BF7FEA655C4D
:1051900029D094EA050F08BF90EA020F05D054EA1F
:1051A000000C04BF1946104630BD91EA030F1EBF24
:1051B0000021002030BD5FEA545C05D14000494128
:1051C00028BF41F0004130BD14F580043CBF01F51B
:1051D000801130BD01F0004545F0FE4141F4700101
:1051E0004FF0000030BD7FEA645C1ABF19461046DC
:1051F0007FEA655C1CBF0B46024650EA013406BFDD
:1052000052EA033591EA030F41F4002130BD00BF9B
:1052100090F0000F04BF0021704730B54FF4806458
:1052200004F132044FF000054FF0000150E700BFD9
:1052300090F0000F04BF0021704730B54FF4806438
:1052400004F1320410F0004548BF40424FF0000125
:105250003EE700BF42004FEAE2014FEA31014FEA68
:1052600002701FBF12F07F4393F07F4F81F06051B7
:10527000704792F0000F14BF93F07F4F704730B526
:105280004FF4607401F0004521F0004120E700BFB9
:1052900050EA010208BF704730B54FF000050AE040
:1052A00050EA010208BF704730B511F0004502D541
:1052B000404261EB41014FF4806404F132045FEA43
:1052C000915C3FF4DCAE4FF003025FEADC0C18BFE8
:1052D00003325FEADC0C18BF033202EBDC02C2F1DE
:1052E000200300FA03FC20FA02F001FA03FE40EA70
:1052F0000E0021FA02F11444C1E600BF70B54FF070
:10530000FF0C4CF4E06C1CEA11541DBF1CEA135551
:1053100094EA0C0F95EA0C0F00F0DEF82C4481EAB9
:10532000030621EA4C5123EA4C5350EA013518BFD9
:1053300052EA033541F4801143F4801338D0A0FBC6
:1053400002CE4FF00005E1FB02E506F00042E0FB73
:1053500003E54FF00006E1FB03569CF0000F18BF79
:105360004EF0010EA4F1FF04B6F5007F64F5407421
:1053700004D25FEA4E0E6D4146EB060642EAC621B4
:1053800041EA55514FEAC52040EA5E504FEACE2E21
:10539000B4F1FD0C88BFBCF5E06F1ED8BEF1004F24
:1053A00008BF5FEA500E50F1000041EB045170BDA0
:1053B00006F0004646EA010140EA020081EA0301E4
:1053C000B4EB5C04C2BFD4EB0C0541EA045170BDE0
:1053D00041F480114FF0000E013C00F3AB8014F15A
:1053E000360FDEBF002001F0004170BDC4F10004A3
:1053F000203C35DA0C341BDC04F11404C4F1200524
:1054000000FA05F320FA04F001FA05F240EA02007E
:1054100001F0004221F0004110EBD37021FA04F6B4
:1054200042EB06015EEA430E08BF20EAD37070BD6E
:10543000C4F10C04C4F1200500FA04F320FA05F0CD
:1054400001FA04F240EA020001F0004110EBD370CF
:1054500041F100015EEA430E08BF20EAD37070BD3F
:10546000C4F1200500FA05F24EEA020E20FA04F318
:1054700001FA05F243EA020321FA04F001F00041C7
:1054800021FA04F220EA020000EBD3705EEA430E38
:1054900008BF20EAD37070BD94F0000F0FD101F067
:1054A0000046400041EB010111F4801F08BF013CA0
:1054B000F7D041EA060195F0000F18BF704703F0DE
:1054C0000046520043EB030313F4801F08BF013D65
:1054D000F7D043EA0603704794EA0C0F0CEA135521
:1054E00018BF95EA0C0F0CD050EA410618BF52EADB
:1054F0004306D1D181EA030101F000414FF00000E1
:1055000070BD50EA410606BF1046194652EA4306EE
:1055100019D094EA0C0F02D150EA013613D195EA62
:105520000C0F05D152EA03361CBF104619460AD1AA
:1055300081EA030101F0004141F0FE4141F47001B4
:105540004FF0000070BD41F0FE4141F4780170BDA4
:1055500070B54FF0FF0C4CF4E06C1CEA11541DBF09
:105560001CEA135594EA0C0F95EA0C0F00F0A7F80B
:10557000A4EB050481EA030E52EA03354FEA013138
:1055800000F088804FEA03334FF0805545EA13134B
:1055900043EA12634FEA022245EA111545EA106513
:1055A0004FEA00260EF000419D4208BF964244F1AA
:1055B000FD0404F5407402D25B084FEA3202B61AC9
:1055C00065EB03055B084FEA32024FF480104FF49D
:1055D000002CB6EB020E75EB030E22BFB61A754611
:1055E00040EA0C005B084FEA3202B6EB020E75EBA4
:1055F000030E22BFB61A754640EA5C005B084FEA0C
:105600003202B6EB020E75EB030E22BFB61A7546D8
:1056100040EA9C005B084FEA3202B6EB020E75EBE3
:10562000030E22BFB61A754640EADC0055EA060EA4
:1056300018D04FEA051545EA16754FEA06164FEAE7
:10564000C30343EA52734FEAC2025FEA1C1CC0D193
:1056500011F4801F0BD141EA00014FF000004FF020
:10566000004CB6E711F4801F04BF01430020B4F1E1
:10567000FD0C88BFBCF5E06F3FF6AFAEB5EB030C99
:1056800004BFB6EB020C5FEA500C50F1000041EB96
:10569000045170BD0EF0004E4EEA113114EB5C0463
:1056A000C2BFD4EB0C0541EA045170BD41F4801136
:1056B0004FF0000E013C90E645EA060E8DE60CEA3E
:1056C000135594EA0C0F08BF95EA0C0F3FF43BAF5B
:1056D00094EA0C0F0AD150EA01347FF434AF95EA12
:1056E0000C0F7FF425AF104619462CE795EA0C0FF6
:1056F00006D152EA03353FF4FDAE1046194622E7C3
:1057000050EA410618BF52EA43067FF4C5AE50EA9C
:1057100041047FF40DAF52EA43057FF4EBAE12E78C
:105720004FF0FF3C06E000BF4FF0010C02E000BF6D
:105730004FF0010C4DF804CD4FEA410C7FEA6C5C50
:105740004FEA430C18BF7FEA6C5C1BD001B050EAF3
:10575000410C0CBF52EA430C91EA030F02BF90EADE
:10576000020F0020704710F1000F91EA030F58BF9D
:10577000994208BF90422CBFD8176FEAE37040F0FF
:10578000010070474FEA410C7FEA6C5C02D150EA9D
:10579000013C07D14FEA430C7FEA6C5CD6D152EA58
:1057A000033CD3D05DF8040B704700BF844610461D
:1057B00062468C461946634600E000BF01B5FFF71C
:1057C000B7FF002848BF10F1000F01BD4DF808EDEC
:1057D000FFF7F4FF0CBF012000205DF808FB00BFBD
:1057E0004DF808EDFFF7EAFF34BF012000205DF817
:1057F00008FB00BF4DF808EDFFF7E0FF94BF012064
:1058000000205DF808FB00BF4DF808EDFFF7CEFF64
:1058100094BF012000205DF808FB00BF4DF808EDA3
:10582000FFF7C4FF34BF012000205DF808FB00BF74
:105830004FEA410C7FEA6C5C02D150EA013C0AD18C
:105840004FEA430C7FEA6C5C02D152EA033C02D17E
:105850004FF0000070474FF0010070474FEA4102DF
:10586000B2F1E04324BFB3F5001CDCF1FE5C0DD9BE
:1058700001F0004C4FEAC0024CEA5070B2F1004F08
:1058800040EB830008BF20F00100704711F0804F0B
:1058900021D113F13872BCBF01F00040704741F4D0
:1058A00080114FEA5252C2F11802C2F1200C10FAD4
:1058B0000CF320FA02F018BF40F001004FEAC123B8
:1058C0004FEAD32303FA0CFC40EA0C0023FA02F35C
:1058D0004FEA4303CCE77FEA625307D150EA013332
:1058E0001EBF4FF0FE4040F44000704701F0004002
:1058F00040F0FE4040F40000704700BF80F00040E0
:1059000002E000BF81F0004142001FBF5FEA410397
:1059100092EA030F7FEA226C7FEA236C6AD04FEA97
:105920001262D2EB1363C1BFD218414048404140DC
:10593000B8BF5B42192B88BF704710F0004F40F48E
:10594000000020F07F4018BF404211F0004F41F4AA
:10595000000121F07F4118BF494292EA030F3FD076
:10596000A2F1010241FA03FC10EB0C00C3F1200389
:1059700001FA03F100F0004302D5494260EB400018
:10598000B0F5000F13D3B0F1807F06D340084FEA83
:10599000310102F10102FE2A51D2B1F1004F40EB78
:1059A000C25008BF20F0010040EA030070474900E0
:1059B00040EB000010F4000FA2F10102EDD1B0FAAB
:1059C00080FCACF1080CB2EB0C0200FA0CF0AABFA0
:1059D00000EBC25052421843BCBFD040184370473E
:1059E00092F0000F81F4000106BF80F40000013244
:1059F000013BB5E74FEA41037FEA226C18BF7FEA1B
:105A0000236C21D092EA030F04D092F0000F08BF5C
:105A10000846704790EA010F1CBF0020704712F043
:105A20007F4F04D1400028BF40F00040704712F182
:105A300000723CBF00F50000704700F0004343F0E7
:105A4000FE4040F4000070477FEA226216BF08461D
:105A50007FEA23630146420206BF5FEA412390EAE0
:105A6000010F40F4800070474FF0000304E000BFD6
:105A700010F0004348BF40425FEA000C08BF704787
:105A800043F0964301464FF000001CE050EA01024B
:105A900008BF70474FF000030AE000BF50EA010260
:105AA00008BF704711F0004302D5404261EB41014D
:105AB0005FEA010C02BF84460146002043F0B64372
:105AC00008BFA3F18053A3F50003BCFA8CF2083A97
:105AD000A3EBC25310DB01FA02FC634400FA02FCA0
